:040000008A154D2CE4
:10000600FB14FB1F0D28FF30F300F200F100F00097
:08001600FA0DF20CFF300800A6
:0E001E00F201F101F001F801F30100300800D9
:10002C007B15FB1F20280130F300F201F101F001D8
:08003C00FA0DF20CFF30080080
:08004400FA1FF213003008005E
:10004C007C185C28FC182D287C197B282628A001FC
:10005C007208031D4D287108F2007008F100780831
:10006C00F000F801A0157208031D4D287108F2006C
:10007C007008F100F001A01120167208031D4D2824
:10008C007108F200F101A015720803196F282008FD
:10009C00F302031D031C73280310F21B5C28F80DDC
:1000AC00F00DF10DF20DF30B532873287B1B701C14
:1000BC007728F81F7728F00A0319F10A0319F20AB6
:1000CC00031D7728F20CF10CF00CF30A03197B28B2
:1000DC0077280130FC000F207E280230FC0016200F
:1000EC007E280430FC0022207E280830FC000320EF
:0400FC0000000800F8
:1001000083120313FB01FA01F9018030F800F10CAE
:10011000F00C031C94287408F90775080318750F70
:10012000FA070318FB0A0310F01F9C287408FA074B
:1001300075080318750FFB07FB0CFA0CF90CF80C8B
:10014000031C87287B08F3007A08F2007908F10085
:060150007808F000080031
:10015600A0017208031DC0287108F2007008F100A2
:10016600F001A0157208031DC0287108F200F10104
:10017600A011201672080319CE282008F302031DC9
:10018600031CD2280310F21BD628F00DF10DF20D38
:10019600F30BC628D2280130FC000F20D9280230E4
:0E01A600FC001620D9280430FC00222008009E
:1001B4007B14FB1FE528F201FA1FFF30F200F10067
:0A01C400F000FA0DF20CFF30080005
:0601CE00FB15FF300800E4
:0C01D400831203139B011D129D120800F2
:1001E00083120313F801F9011030FC00710DF80DB2
:1001F000F90D7408F8027508031C750FF90203184D
:1002000008297408F80775080318750FF907031013
:0A021000F00DF10DFC0BF6280800BC
:0C021A00831203139501171297120800BD
:10022600831603131208013EF000F1010318F10AC8
:1002360083126C08F400F50180200630F200700885
:10024600F4007108F500720803192E29F50CF40C58
:10025600F513FF3E27290430F1007408F0007108F9
:1002660003193929F00D7010FF3E3329303070051F
:10027600F3007408F0007508F100F10CF00CF113AE
:10028600F10CF00CF11370089B000F309D057308FC
:040296009D040800BB
:10029A00831603131208013EF000F1010318F10A54
:1002AA0083126C08F400F50180200630F200700811
:1002BA00F4007108F500720803196829F50CF40CAA
:1002CA00F513FF3E61290430F1007408F00071084B
:1002DA0003197329F00D7010FF3E6D293030700537
:1002EA00F3007408F0007508F100F10CF00CF1133A
:1002FA00F10CF00CF113700895000F309705730894
:04030A00970408004C
:10030E00831603138710831212150C309D040800F8
:10031E008312031372087606A000F801F901730820
:10032E007702031CB2297708FD007308F7007D08D9
:10033E00F3007608FD007208F6007D08F2007508DD
:10034E00FD007108F5007D08F1007408FD007008CD
:10035E00F4007D08F000770803192B2A7208FA00C2
:10036E00F217F61777087302F7000319E52908301C
:10037E007702031CDB29F7007408F9007508F400F6
:10038E007608F500F60108307702031CDB29F7002A
:10039E007408F9007508F400F50108307702031CA3
:1003AE00DB297A08F2002B2A77080319E5290310B6
:1003BE00F60CF50CF40CF90CF70BDE29A01FF22944
:1003CE00F909F409F509F609F90A0319F40A0319EA
:1003DE00F50A0319F60A7908F80774080318740F5A
:1003EE00F00775080318750FF10776080318760FD6
:1003FE00F207A01B0B2A031C1B2AF20CF10CF00CAB
:10040E00F80CF30F1B2A272A03181F2AF809F009E4
:10041E00F109F209F80A0319F00A0319F10A03198E
:10042E00F20A8030FA06232A0130FC0026202D2AFB
:10043E000230FC0026202D2A0430FC00AB202D2A91
:10044E000830FC0003202D2A0030FC0000000800BC
:10045E00831603130711831212150C30970408002C
:10046E0083160313071583121211F0309705080037
:10047E0083120313FB01730803197C2A7208FA0016
:10048E00F2178E30F302F31F7F2AF309F30A0830B6
:10049E007302031C622AF300F10D7208F100F201DF
:1004AE0008307302031C622AF300F10DF101730888
:1004BE00031D03106A2A730803196A2A0310F20C2B
:1004CE00F10CF30B652A7B1B711C742A031C742A16
:1004DE00F10A0319F20AF21B8B2AFA1F8E2AF2096D
:1004EE00F109F10A0319F20A8E2AF201F1018E2A9C
:1004FE007B14FB1F912AF201FA1F912AFF30F200A2
:10050E00F100FA0DF20C912A0130FC00932A003012
:10051E00FC00932AFF30FC00FC080319972ADA200E
:0A052E007108F0007208F1000800E7
:100538000030831203136702031CB52A6708033CC3
:10054800031CB52A6708F1000130F000710803198F
:10055800B12AF00D7010FF3EAB2A7008831685048F
:10056800D72A83126708043A031DBD2A8316851605
:10057800D72A053083126702031CD72A6708073C6D
:10058800031CD72A05306702F0007008F10001301B
:10059800F00071080319D42AF00D7010FF3ECE2A1E
:1005A80070088316890483126708F1000130F0008F
:1005B80071080319E32AF00D7010FF3EDD2A700858
:1005C800831603178804831203136708F000F00DDD
:1005D8007010F00D70107008C13E9F001030FD00C3
:1005E800FD0BF42A00009F149F1CFB2AF82A1E0802
:1005F800F200F301F20DF30D7210F20DF30D72100B
:100608000630F10083161E08F00071080319102B3C
:10061800F00CF013FF3E0A2B0030F1007208F007CF
:0A06280073080318013EF1070800F3
:10063200831203137008F8007108F000F101F2014F
:10064200F301FB01FC019630F300FA01F01F2F2B9E
:10065200F809F009F80A0319F00AFA177008F1000C
:0C0662007808F000F801F201AB2008005D
:0E066E008312031340088A003F088200080030
:10067C00831203132408003A031D5C2B0130A400E1
:10068C00831603170910091186100611031308109D
:10069C008810831212149210F930831692000D21D7
:0E06AC0012149210F93083169200EA20080012
:1006BA00831603139818632B00005D2B83126708B7
:0406CA00990008008B
:1006CE0083120313EA0105306A020318752B6A08B8
:1006DE006907840020308000EA0A6A2B6A086907DD
:1006EE0084008001EA036A086907EB000A30F4000F
:1006FE00F5016708F0006808F100F0207808F000B6
:10070E007908F1003030F0076B0884007008800023
:10071E000A30F400F5016708F0006808F100F020D7
:10072E007008E7007108E80000307106031DA12B68
:10073E0000307006031DA42BA62BEA037A2B0800AB
:10074E00831203137408003A031DC22B7508003A76
:10075E00031DC22B7608003A031DC22B7708003A00
:10076E00031DC22BFF30F000FF30F1007F30F2008E
:10077E00FF30F3005D2C8312031377080319512CFD
:10078E0073080319542C720876068039FA00F21792
:10079E00F617A0017208F8007108FC007008FD0041
:1007AE007408FD027508031C750FFC027608031C05
:1007BE00760FF802F801FC01FD01031CED2B03106E
:1007CE00F20CF10CF00CF80C0130A0007708F302DB
:1007DE00031CF72B7E302007F3070318572CFC2B36
:1007EE007E302007F307031C5A2C1830FA07FD0D34
:1007FE00FC0DF80DF00DF10DF20DA00D7408F002C8
:10080E007508031C750FF1027608031C760FF202B1
:10081E00760DA004201C152C7D14202C7408F007D6
:10082E0075080318750FF10776080318760AF20794
:10083E007D10FA031F307A05031DFE2B7B1B7D1CDA
:10084E00472C0310F00DF10DF20DA00D7408F002FF
:10085E007508031C750FF1027608031C760FF20261
:10086E00760D20040139FD070318FC0A0319F80A56
:10087E00031D472CF80CFC0CFD0CF30A0319572C26
:10088E00FA1FF8137808F2007C08F1007D08F000DA
:10089E0000305C2C0130E7205C2C02300F205C2CE9
:0E08AE00043003205C2C0830162000000800E7
:1008BC00831203136708210603196C2C6708A10027
:0E08CC006708EC004D216708EC0013210800BE
:0808DA002F2208148810080009
:1008E20083160313871483121211F0309D0508003A
:0808F2002F22081088140800F1
:0808FA00872186140611080095
:0C090200831203138030F6068F210800DA
:08090E00872186100615080080
:1009160083120313E7015E2437220810881071241E
:0809260086100611A40108006F
:0E092E003E235E08E7005E2479247D24080045
:10093C00831203135F08F000DF0A700884000008BC
:10094C000319A92C9E2CDF035E08840000080319F0
:10095C00BA2C5E0884000008F0005F088400700860
:10096C008000DF0ADE0AAA2C5F08840080010800E0
:0E097C003E235E08E7005E246D2487240800F9
:10098A0083120313E301E4015E08E5005F08E60051
:10099A0080305F06F00080307002031DD62C0030D4
:1009AA005E020318E42C0130E3000030E4005E0824
:1009BA00003CE5005F08031C013EE601E60265080B
:1009CA00E7006608E8006008E90067230630E100EE
:1009DA000030E2006208003C031DF52C6108003C6F
:1009EA000318102D61086007F20001306102F0005F
:1009FA000030031C013E6202F100700860078400A7
:100A0A000008F00072088400700880000130E102DA
:100A1A00031CE203EF2C6008840020308000630886
:100A2A00640403192E2DE101E201610860078400C4
:100A3A000008203A031D252DE10A0319E20A1A2D9E
:100A4A000130E102031CE2036108600784002D30D3
:040A5A008000080010
:100A5E00831203131A08F100981C372D181218165A
:060A6E007108F000080011
:100A7400003083120313DE000030DF004830E00052
:100A84008530E100E201E3010230E7009C22831299
:100A940003137008E2007108E3008030F200803034
:100AA40071067202031D582D70085A3C0318842DD8
:100AB40005306207F00063080318013EF1001923B2
:100AC4007008F4007108F5007208F6007308F70066
:100AD4000030F0002030F1003630F2008A30F300AC
:100AE400A7230030F4000030F5000030F6007F301A
:100AF400F70081247008DE007108DF007208E0004E
:100B04007308E1005E08F0005F08F1006008F2007D
:080B14006108F3003F22080014
:0E0B1C000030831203138C1A0130F000080021
:100B2A00831203135E08BF005F08C00037238A11CF
:100B3A000A12F00070080319B32D5E08BF005F089F
:100B4A00C00037238A110A12F00060088400700876
:100B5A008000E00ADE0A0319DF0A952D6008840086
:040B6A0080010800FE
:100B6E0083120313E0015E0884000008DF005F08B3
:100B7E00003A0319CC2D5F08E7005D23E00A6008F8
:0C0B8E005E0784000008DF00BE2D080098
:100B9A00013083120313E7009C22831203137008A7
:100BAA00D6008030003AF2008030700672020318D4
:100BBA00E92D80305606F0008030323A7002031870
:0C0BCA00E92D0130F000EA2DF0010800D8
:100BD600003083120313D6000030D7004830D80007
:100BE6008530D900DA01DB010330E7009C2283124D
:100BF60003137008DA007108DB008030F2008030E1
:100C060071067202031D092E70085A3C0318352E10
:100C160005305A07F0005B080318013EF10019235E
:100C26007008F4007108F5007208F6007308F70002
:100C36000030F0002030F1003630F2008A30F30048
:100C4600A7230030F4000030F5000030F6007F30B6
:100C5600F70081247008D6007108D7007208D80002
:100C66007308D9005608F0005708F1005808F2003A
:080C76005908F3003F220800B9
:100C7E00831203135608DE005708DF002F30E00002
:100C8E0095255808DE005908DF002530E000C52400
:100C9E002530DE002F30DF009E245A08DE005B0870
:100CAE00DF002530E000C5242530DE002F30DF00C8
:100CBE009E242F30DE00B7258E25700803196B2E6B
:0C0CCE002F250030F1006C2E632E080072
:100CDA008312031357085906031D752E5808560622
:100CEA00031D792EF0018A2E80305906F0008030DB
:100CFA0057067002031D832E560858020318882EC1
:0C0D0A000130F0008A2EFF30F0000800DD
:100D16003A257008D6004030DE00BE243A25700819
:100D2600D70056087006031D9B2E4030DE00972420
:100D360080305706F0008030560670020318A42E45
:100D4600B02E80305606F000803057067002031829
:0C0D5600AF2E8030DE0097248B240800B4
:100D6200831203135608DE005708DF002F30E0001D
:100D720095255808DE005908DF002530E000C5241B
:100D82002530DE002F30DF009E245A08DE005B088B
:100D9200DF002530E000C5242530DE002F30DF00E3
:100DA2009E245C08DE005D08DF002530E000C524DB
:100DB2002530DE002F30DF009E242F30DE00B725E5
:020DC200080027
:100DC400831203137008F100F0010830FC0071086D
:100DD400F40C0318F12EFC0BEA2EF101003403107D
:100DE400F62EF40C0318F107F10CF00CFC0BF32EA7
:020DF4000800F5
:100DF6008312031347084602F1007108C8008030C9
:100E0600043AF00080307106700203180D2F48086E
:100E1600083CC80080304806F0008030003A700276
:100E2600031C312FFF30DE0097248030003AF0009B
:100E36008030480670020318302F0830FB004F3010
:100E4600FC001930FD00FD0B262FFC0B262FFB0B9B
:100E5600262F00000000C803182F4C2FFF30DE009D
:100E6600BE2480304806F0008030003A7002031835
:100E76004C2F0830FB004F30FC001930FD00FD0BF5
:100E8600422FFC0B422FFB0B422F00000000C80A2A
:060E9600342F8B2408003C
:100E9C0083160313981690308312980083168717C5
:100EAC00071383128C1E5D2F1A08F000572F0800B1
:100EBC0037238A110A128000840ABF0A0319C00A58
:080ECC00F003031D5E2F080076
:10100000013083120313D2000130D3000130D40029
:10101000D5012208D6002308D7004E08D8004F0873
:10102000D9008A116D268A157008D3002B08D600C6
:101030002C08D7005008D8005108D9008A116D2615
:101040008A155308FF3A031D28285408033ED2008E
:101050005308003A031D422836280130D2004228A6
:101060000930D20042280530D20042285408FF3A05
:1010700003192D285408003A031930285408013A5E
:10108000031933285308013A031D49285408073C23
:10109000D200C92A8A113A258A158030023AF10015
:1010A000803070067102031877288A113E238A1552
:1010B000FF30E7008A115E248A158A1179248A1587
:1010C0008A1187248A150430FB009B30FC000F3006
:1010D000FD00FD0B6928FC0B6928FB0B69288A11B0
:1010E0008B248A158A118B268A150130D500112B85
:1010F0008A113A258A158030023AF1008030700654
:1011000071020318D4288A11EB258A158030023A1F
:10111000F1008030700671020318D428FF30DE0021
:101120008A1197248A150330FB007030FC005C3074
:10113000FD00FD0B9928FC0B9928FB0B992800005A
:101140008A113E238A15FF30E7008A115E248A1532
:101150008A1179248A158A1187248A150430FB00A4
:101160009B30FC000F30FD00FD0BB428FC0BB428B5
:10117000FB0BB4288A118B248A15FF30DE008A11FC
:10118000BE248A150330FB007030FC005C30FD008B
:10119000FD0BC828FC0BC828FB0BC82800008A11CF
:1011A0008B268A150130D500112B8A11EB258A1563
:1011B0008030023AF1008030700671020318432932
:1011C0008A113E238A15FF30E7008A115E248A15B2
:1011D0008A116D248A158A117D248A150430FB003A
:1011E0009B30FC000F30FD00FD0BF428FC0BF428B5
:1011F000FB0BF4288A118B248A15FF30DE008A113C
:1012000097248A150330FB007030FC005C30FD0031
:10121000FD0B0829FC0B0829FB0B082900008A118B
:101220003E238A15FF30E7008A115E248A158A1151
:1012300079248A158A1187248A150430FB009B3093
:10124000FC000F30FD00FD0B2329FC0B2329FB0BB9
:1012500023298A118B248A15FF30DE008A11BE24CF
:101260008A150330FB007030FC005C30FD00FD0B84
:101270003729FC0B3729FB0B372900008A118B26F5
:101280008A150130D500112B8A11EB258A15803083
:10129000023AF10080307006710203189529FF3080
:1012A000DE008A11BE248A150330FB007030FC007A
:1012B0005C30FD00FD0B5A29FC0B5A29FB0B5A2907
:1012C00000008A113E238A15FF30E7008A115E2450
:1012D0008A158A116D248A158A117D248A15043095
:1012E000FB009B30FC000F30FD00FD0B7529FC0B53
:1012F0007529FB0B75298A118B248A15FF30DE00B6
:101300008A1197248A150330FB007030FC005C3092
:10131000FD00FD0B8929FC0B8929FB0B89290000A5
:101320008A118B268A150130D500112B8A113E2394
:101330008A15FF30E7008A115E248A158A116D2410
:101340008A158A117D248A150430FB009B30FC002D
:101350000F30FD00FD0BAA29FC0BAA29FB0BAA29C3
:101360008A118B248A158A113E238A158A118B26AD
:101370008A150130D500112BFF30DE008A11972429
:101380008A150330FB007030FC005C30FD00FD0B63
:10139000C729FC0BC729FB0BC72900008A113E2374
:1013A0008A15FF30E7008A115E248A158A116D24A0
:1013B0008A158A117D248A150430FB009B30FC00BD
:1013C0000F30FD00FD0BE229FC0BE229FB0BE229AB
:1013D0008A118B248A15FF30DE008A11BE248A15FB
:1013E0000330FB007030FC005C30FD00FD0BF62983
:1013F000FC0BF629FB0BF62900008A118B268A15B7
:101400000130D500112B8A113E238A15FF30E700E9
:101410008A115E248A158A116D248A158A117D2409
:101420008A150430FB009B30FC000F30FD00FD0BE3
:10143000172AFC0B172AFB0B172A8A118B248A15F3
:10144000FF30DE008A11BE248A150330FB007030A5
:10145000FC005C30FD00FD0B2B2AFC0B2B2AFB0B48
:101460002B2A00008A113E238A15FF30E7008A11DB
:101470005E248A158A1179248A158A1187248A158F
:101480000430FB009B30FC000F30FD00FD0B462AB2
:10149000FC0B462AFB0B462A8A118B248A15FF3047
:1014A000DE008A1197248A150330FB007030FC009F
:1014B0005C30FD00FD0B5A2AFC0B5A2AFB0B5A2A02
:1014C00000008A118B268A150130D500112B8A1154
:1014D0003A258A158030023AF10080307006710298
:1014E0000318B82AFF30DE008A11BE248A150330A3
:1014F000FB007030FC005C30FD00FD0B7D2AFC0B16
:101500007D2AFB0B7D2A00008A113E238A15FF30BD
:10151000E7008A115E248A158A1179248A158A11B6
:1015200087248A150430FB009B30FC000F30FD003F
:10153000FD0B982AFC0B982AFB0B982A8A118B2406
:101540008A15FF30DE008A1197248A150330FB00CC
:101550007030FC005C30FD00FD0BAC2AFC0BAC2AAB
:10156000FB0BAC2A00008A118B268A150130D500AE
:10157000112B9530D6000730D7000130D80000304D
:10158000D9000130DA000030DB008A113F268A15CD
:10159000112B5208013A03194A285208013A03193B
:1015A0004A285208023A031978285208023A0319C5
:1015B00078285208033A0319D5285208033A031928
:1015C000D5285208043A031944295208043A031949
:1015D00044295208053A031996295208053A031975
:1015E00096295208063A0319BC295208063A0319EB
:1015F000BC295208073A0319032A5208073A03196B
:10160000032A5208083A0319672A5208083A0319AC
:10161000672A5208093A0319B92A5208093A0319E4
:10162000B92A8A11CD258A15700803192D2B550862
:1016300003192D2B8730D6000730D7004E08D8006D
:101640004F08D9005008DA005108DB000130DC00F7
:101650000030DD008A11B1268A155508F000080017
:10166000753083120313D6000730D7000130D8003D
:101670000030D9000130DA000030DB008A113F264B
:101680008A1500307106031D472B0D307006031DAF
:101690004A2B4C2CA130D6000730D7002208D800A6
:1016A0002308D9002B08DA002C08DB008A113F261A
:1016B0008A157008CC007108CD00A630D60007301E
:1016C000D7002208D8002308D9002B08DA002C08FC
:1016D000DB007008DC007108DD008A11B1268A1574
:1016E000CC0A0319CD0A8E30D6000730D700220865
:1016F000D8002308D9002B08013EDA000030031877
:10170000013E2C07DB008A113F268A157008CA00AB
:101710007108CB00AD010130AA00FF30C600FF30D8
:10172000C7008030F000803047067002031D9A2BFE
:101730004608013C031CF32BFF30C800FF30C900F2
:101740008030F000803049067002031DA92B480844
:10175000013C031CEF2B00304706031DB12B00306A
:101760004606031DBC2B00304906031DB92B003073
:101770004806031DBC2BEB2B8030D6000730D7006A
:1017800046082207D80023080318013E4707D9005E
:1017900048082B07DA002C080318013E4907DB0034
:1017A0008A113F268A157008CC007108CD00803060
:1017B0007106F20080304B067202031DE12B4A08CD
:1017C00070020318EB2B4C08CA004D08CB004608EA
:1017D000AD004808AA00C80A0319C90AA02BC60A06
:1017E0000319C70A912B2E08013A031DF72B2E0867
:1017F000053A031D042C2A08F000FF30F4008A117A
:10180000E2268A157008AA002E08073A031D132C39
:101810002D08CC000030CC1BFF30CD002A08AD00D5
:101820004C08003CAA002E08033A031D222C2D0868
:10183000CC000030CC1BFF30CD002A08AD004C0896
:10184000003CAA002D082207CE0023080318013E01
:10185000CF000030AD1BFF30CF072A082B07D00088
:101860002C080318013ED1000030AA1BFF30D1071D
:101870000020700803194C2C2D08A2070318A30A96
:101880000030AD1BFF30A3072A08AB070318AC0AD2
:0A1890000030AA1BFF30AC0708006F
:10189A007F3083120313A100A201A301A401A501B1
:1018AA00A601A701A801A901AA01AB01AC01AD01DA
:1018BA000530AE0081308316990018158A114E271B
:1018CA008A159B30D6000730D7000130D800003087
:1018DA00D9000130DA000030DB008A113F268A1570
:1018EA0000307106031D7B2C0D30700603198C2CF9
:1018FA000330FB008A30FC005530FD00FD0B832CC1
:10190A00FC0B832CFB0B832C00000000662C01309F
:10191A00AE008A11EB258A157008F100F10CF1135B
:10192A00711BF11771081E3CA200A301031CA3033B
:10193A000130F11F0030A3070130A202031CA303E8
:10194A008A113A258A157008F100F10CF113711BFE
:10195A00F11771081E3CAB00AC01031CAC0301304B
:10196A00F11F0030AC070130AB02031CAC0380301E
:10197A002306F00080307002031DC52C00302202BD
:10198A000318C92CA201A30180302C06F000803074
:10199A007002031DD22C00302B020318D62CAB0187
:1019AA00AC016A30D6000730D7000130D8000030C9
:1019BA00D9000130DA000030DB008A113F268A158F
:1019CA0000307106031DEB2C0D3070060319EF2D44
:1019DA008A11EB258A157008C2000030C21BFF303D
:1019EA00C3008A113A258A157008C4000030C41B46
:1019FA00FF30C50000304306031D052D6430420642
:101A0A000319102D00304506031D0D2D64304406C0
:101A1A000319102DED2D8030F0008030230670025E
:101A2A00031D192D2208143C031C282D8030F000B8
:101A3A0080302C067002031D242D2B080A3C031C3F
:101A4A00282D0530C1008030F00080302306700256
:101A5A00031D312D2208143C0318402D8030F0005C
:101A6A0080302C067002031D3C2D2B080A3C031CF7
:101A7A00402D0330C1008030F00080302C06700207
:101A8A00031D492D2B08143C031C632D8030F000E4
:101A9A0080302C067002031D542D2B080A3C0318B3
:101AAA00632D8030F000803023067002031D5F2D05
:101ABA002208143C031C632D0730C1008030F0005B
:101ACA0080302C067002031D6C2D2B08143C031C5D
:101ADA00862D8030F00080302C067002031D772D91
:101AEA002B080A3C0318862D8030F000803023062C
:101AFA007002031D822D2208143C0318862D033020
:101B0A00C1008030F00080302C067002031D8F2D3A
:101B1A002B08143C03189E2D8030F00080302306D9
:101B2A007002031D9A2D2208143C031C9E2D0730B7
:101B3A00C1008030F00080302C067002031DA72DF2
:101B4A002B08143C0318B62D8030F0008030230691
:101B5A007002031DB22D2208143C0318B62D013061
:101B6A00C1002E08C6004108C7008A11FB268A1543
:101B7A004108AE008A11EB258A157008F100F10CB4
:101B8A00F113711BF11771081E3CA200A301031C7B
:101B9A00A3030130F11F0030A3070130A202031C86
:101BAA00A3038A113A258A157008F100F10CF11382
:101BBA00711BF11771081E3CAB00AC01031CAC038E
:101BCA000130F11F0030AC070130AB02031CAC033B
:061BDA003023D62CEF2D94
:100ED4006A346F3462346934733464346F346E3416
:060EE40065343F340034C8
:100EEA006A346F3462346934733464346F346E3400
:060EFA0065343F340034B2
:0E0F000048342B34683465347634723400344F
:0E0F0E004D346534743461346C346C3400340A
:0E0F1C0048342B346834653476347234003433
:0C0F2A007A34653472346F34643400345F
:0C0F360073347434613472347434003449
:0A0F4200483469346E34743400340E
:0A0F4C00483469346E347434003404
:04400E00F22F000687
:00000001FF
