:040000000A16FC2DB3
:100006007B15FB1F0D280130F300F201F101F00111
:08001600FA0DF20CFF300800A6
:08001E00FA1FF2130030080084
:0E002600F201F101F001F801F30100300800D1
:10003400FB14FB1F2428FF30F300F200F100F00052
:08004400FA0DF20CFF30080078
:10004C00A0017208031D3B287108F2007008F10032
:10005C00F001A0157208031D3B287108F200F10194
:10006C00A01120167208031949282008F302031D59
:10007C00031C4D280310F21B5128F00DF10DF20D4D
:10008C00F30B41284D280130FC001320542802307A
:0E009C00FC00032054280430FC000F20080054
:1000AA0083120313FB01FA01F9018030F800F10C05
:1000BA00F00C031C69287408F90775080318750FF2
:1000CA00FA070318FB0A0310F01F71287408FA07CD
:1000DA0075080318750FFB07FB0CFA0CF90CF80CE2
:1000EA00031C5C287B08F3007A08F2007908F10007
:0600FA007808F000080088
:100100007C18B628FC1887287C19D5288028A001DF
:100110007208031DA7287108F2007008F100780822
:10012000F000F801A0157208031DA7287108F2005D
:100130007008F100F001A01120167208031DA72815
:100140007108F200F101A01572080319C9282008EE
:10015000F302031D031CCD280310F21BB628F80D73
:10016000F00DF10DF20DF30BAD28CD287B1B701CAB
:10017000D128F81FD128F00A0319F10A0319F20A4D
:10018000031DD128F20CF10CF00CF30A0319D52849
:10019000D1280130FC001320D8280230FC000320B5
:1001A000D8280430FC000F20D8280830FC001A2082
:0401B0000000080043
:1001B4008312031372087606A000F801F90173088C
:1001C4007702031CFD287708FD007308F7007D08FB
:1001D400F3007608FD007208F6007D08F200750849
:1001E400FD007108F5007D08F1007408FD00700839
:1001F400F4007D08F0007708031976297208FA00E4
:10020400F217F61777087302F7000319302908303C
:100214007702031C2629F7007408F9007508F40016
:100224007608F500F60108307702031C2629F7004A
:100234007408F9007508F400F50108307702031C0E
:1002440026297A08F2007629770803193029031041
:10025400F60CF50CF40CF90CF70B2929A01F3D2919
:10026400F909F409F509F609F90A0319F40A031955
:10027400F50A0319F60A7908F80774080318740FC5
:10028400F00775080318750FF10776080318760F41
:10029400F207A01B5629031C6629F20CF10CF00C82
:1002A400F80CF30F6629722903186A29F809F00972
:1002B400F109F209F80A0319F00A0319F10A0319FA
:1002C400F20A8030FA066E290130FC008020782979
:1002D4000230FC00802078290430FC002620782994
:1002E4000830FC001A2078290030FC0000000800C7
:1002F400831603131208013EF000F1010318F10AFA
:100304004608F400F50155200630F2007008F400A8
:100314007108F500720803199429F50CF40CF5130F
:10032400FF3E8D290430F1007408F00071080319B0
:100334009F29F00D7010FF3E992930307005F300AD
:100344007408F0007508F100F10CF00CF113F10CD5
:10035400F00CF11370089B000F309D0573089D0489
:0203640008008F
:100366007B14FB1FBE29F201FA1FFF30F200F100D9
:0A037600F000FA0DF20CFF30080051
:10038000831603138710831212150C309D04080086
:10039000831603130711831212150C3097040800FB
:1003A00083120313F801F9011030FC00710DF80DF0
:1003B000F90D7408F8027508031C750FF90203188B
:1003C000E8297408F80775080318750FF907031072
:0A03D000F00DF10DFC0BD62908001A
:0603DA00FB15FF300800D6
:0C03E000831203139B011D129D120800E4
:1003EC00831603131208013EF000F1010318F10A01
:1003FC004608F400F50155200630F2007008F400B0
:10040C007108F50072080319102AF50CF40CF51399
:10041C00FF3E092A0430F1007408F000710803193A
:10042C001B2AF00D7010FF3E152A30307005F300BA
:10043C007408F0007508F100F10CF00CF113F10CDC
:10044C00F00CF113700895000F30970573089704A2
:02045C00080096
:0C045E0083120313950117129712080077
:10046A0083160313871483121211F0309D050800B6
:08047A00C821081488100800D5
:08048200C821081088140800CD
:10048A00831203132308003A031D632A0130A300D1
:10049A008316031709100911861006110313081091
:1004AA008810831212149210F930831692002F22A8
:0E04BA0012149210F93083169200F0210800FF
:1004C800831603134108831224060319772A831617
:1004D80041088312A40083164108C600F62183163A
:0804E8004108C6007A2108005A
:0C04F000831203138030F606DA200800A7
:0E04FC008312031349088A0048088200080092
:10050A0083120313FB017308031D77080319DC2AFE
:10051A0072087606FA007708F3077E30031C992AD8
:10052A00F3020318DF2A9C2AF302031CE22A720848
:10053A00F8007108FC007008FD00F817F6170310A0
:10054A00F201F101F0011830A0007D1CB62A7408EE
:10055A00F00775080318750FF10776080318760F68
:10056A00F207F20CF10CF00CF80CFC0CFD0C031069
:10057A00A00BAA2AF21BC62AF80DF00DF10DF20DF6
:10058A00F3037B1B701CD82AF81FD82AF00A031918
:10059A00F10A0319F20A031DD82AF20CF10CF00C25
:1005AA00F30A0319DF2AFA1FF2130030E42A013092
:1005BA001320E42A02301A20E42A0430032000001F
:0205CA00080027
:0805CC00C0218614061108008D
:1005D400831203137408003A031D052B7508003AAF
:1005E400031D052B7608003A031D052B7708003AF6
:1005F400031D052BFF30F000FF30F1007F30F200C7
:10060400FF30F300A02B8312031377080319942BF4
:1006140073080319972B720876068039FA00F217CB
:10062400F617A0017208F8007108FC007008FD00BC
:100634007408FD027508031C750FFC027608031C80
:10064400760FF802F801FC01FD01031C302B0310A6
:10065400F20CF10CF00CF80C0130A0007708F30256
:10066400031C3A2B7E302007F30703189A2B3F2BE9
:100674007E302007F307031C9D2B1830FA07FD0D6D
:10068400FC0DF80DF00DF10DF20DA00D7408F00243
:100694007508031C750FF1027608031C760FF2022D
:1006A400760DA004201C582B7D14632B7408F007CE
:1006B40075080318750FF10776080318760AF20710
:1006C4007D10FA031F307A05031D412B7B1B7D1C13
:1006D4008A2B0310F00DF10DF20DA00D7408F00239
:1006E4007508031C750FF1027608031C760FF202DD
:1006F400760D20040139FD070318FC0A0319F80AD2
:10070400031D8A2BF80CFC0CFD0CF30A03199A2B1D
:10071400FA1FF8137808F2007C08F1007D08F00055
:1007240000309F2B0130ED219F2B023013209F2B93
:0E07340004301A209F2B08300320000008001C
:1007420083160313071583121211F0309705080060
:1007520083120313FB01FC01F80173080319212C16
:100762007208FA00F2179E30F302F31F112CF309FC
:10077200F30A08307302031CE62BF300F80D70082D
:10078200F8007108F0007208F100F20108307302FB
:10079200031CE62BF300F80D7008F8007108F00056
:1007A200F10108307302031CE62BF300F80D700808
:1007B200F800F00108307302031CE62BF300F80D79
:1007C200F8017308031D0310F02B73080319F02BB3
:1007D2000310F20CF10CF00CF80CF30BE92B7B1B61
:1007E200781CFE2B031CFE2BF80A0319F00A0319CE
:1007F200F10A0319F20AF21B1E2CFA1F212CF2092C
:10080200F109F009F809F80A0319F00A0319F10AC3
:100812000319F20A212CF201F101F001F801212C55
:100822007B14FB1F242CF201FA1F242CF200F1008E
:10083200F000F800FA0DF20C242C0130FC00262CFA
:100842000030FC00262CFF30FC00FC0803192A2C87
:10085200B3217208F3007108F2007008F100780801
:04086200F00008009A
:100866000030831603134102031C4B2C4108033C42
:10087600031C4B2C4108F1000130F00071080319EC
:10088600482CF00D7010FF3E422C70088504692C30
:100896004108043A031D512C8516692C0530410286
:1008A600031C692C4108073C031C692C05304102D6
:1008B600F0007008F1000130F00071080319672C90
:1008C600F00D7010FF3E612C700889044108F1009C
:1008D6000130F00071080319742CF00D7010FF3E02
:1008E6006E2C70080317880403134108F000F00DFE
:1008F6007010F00D70107008C13E83129F0010300A
:10090600FD00FD0B842C00009F149F1C8B2C882C53
:100916001E08F200F301F20DF30D7210F20DF30D45
:1009260072100630F10083161E08F00071080319D4
:10093600A02CF00CF013FF3E9A2C0030F100720848
:0C094600F00773080318013EF1070800D9
:1009520083120313FA017308031D7A147708031D27
:10096200FA147A080319F52C033A0319C02C7A18E1
:10097200BD2CF61FF32CF12CF21FF12CF32C720874
:100982008039FA00F21376088039F6137A060319D1
:10099200CE2C7A080319F12CF32C77087302031971
:1009A200D52C031CE92CED2C760872020319DC2CE1
:1009B200031CE92CED2C750871020319E32C031CAE
:1009C200E92CED2C740870020319F52C0318ED2C98
:1009D200FA080319F32CF12CFA080319F12CF32C61
:1009E200031408000310080003140315080008008C
:1009F200831203137008F8007108F0007208F10006
:100A02007308F200F301FB01FC019E30F300FA01CE
:100A1200F21F172DF809F009F109F209F80A031972
:100A2200F00A0319F10A0319F20AFA170230FC005C
:040A32008020080018
:100A360083120313FB0173080319582D7208FA0079
:100A4600F2178E30F302F31F5B2DF309F30A083019
:100A56007302031C3E2DF300F10D7208F100F20142
:100A660008307302031C3E2DF300F10DF1017308EB
:100A7600031D0310462D73080319462D0310F20CAF
:100A8600F10CF30B412D7B1B711C502D031C502DBB
:100A9600F10A0319F20AF21B672DFA1F6A2DF209F1
:100AA600F109F10A0319F20A6A2DF201F1016A2D20
:100AB6007B14FB1F6D2DF201FA1F6D2DFF30F20026
:100AC600F100FA0DF20C6D2D0130FC006F2D003097
:100AD600FC006F2DFF30FC00FC080319732DB321B9
:0A0AE6007108F0007208F10008002A
:100AF000831203137008F8007108F000F101F2018D
:100B0000F301FB01FC019630F300FA01F01F8E2D7A
:100B1000F809F009F80A0319F00AFA177008F10049
:0C0B20007808F000F801F201262008001F
:100B2C0083160313C401053044020318A42D440892
:100B3C004307840020308000C40A992D44084307E1
:100B4C0084008001C40344084307C5000A30F40044
:100B5C00F5014108F0004208F100D0217808F000BE
:100B6C007908F1003030F0078316450884007008CE
:100B7C0080000A30F400F5014108F0004208F10051
:100B8C00D02170088316C1007108C20000307106B4
:100B9C00031DD22D00307006031DD52DD72DC40397
:040BAC00A92D080067
:080BB000C021861006150800A3
:100BB800831603139818E22D0000DC2D41088312D8
:040BC8009900080088
:100BCC0083160313B701350884000008B6003608F5
:100BDC00003A0319FC2D3608C100DC258316B70A30
:0E0BEC003708350784000008B600ED2D08001C
:100BFA008316031335088312C80083163608831236
:100C0A00C9007E228A110A12F00070080319232EE5
:100C1A00831635088312C800831636088312C90062
:100C2A007E228A110A12F00083163708840070089F
:100C3A008000B70AB50A0319B60AFD2D83163708CC
:060C4A0084008001080097
:100C500083160313BA01BB013508BC003608BD007A
:100C600080303606F00080307002031D392E0030CF
:100C700035020318472E0130BA000030BB0035089A
:100C8000003CBC003608031C013EBD01BD023C080F
:100C9000C1003D08C2003708C30096250630B800E1
:100CA0000030B9003908003C031D582E3808003CBC
:100CB0000318732E38083707F20001303802F000AD
:100CC0000030031C013E3902F10070083707840030
:100CD0000008F00072088400700880000130B8023B
:100CE000031CB903522E37088400203080003A08D4
:100CF0003B040319912EB801B90138083707840065
:100D00000008203A031D882EB80A0319B90A7D2E5F
:100D10000130B802031CB9033808370784002D30AE
:040D20008000080047
:0E0D24000030831203138C1A0130F000080017
:100D3200831203131A08F100981CA12E1812181618
:060D42007108F00008003A
:100D4800643083160313B5000030B600B701B8014C
:100D58000230C10033248312031370088316B700CE
:100D68007108B8008030F200803071067202031DED
:100D7800BF2E70085A3C0318E92E05303707F000DB
:100D880038080318013EF10078257008F40071084E
:100D9800F5007208F6007308F7000030F000203004
:100DA800F1003630F2008A30F300EA220030F40015
:100DB8000030F5000030F6007F30F70078221B2560
:100DC80070088316B5007108B6003508F0003608BB
:040DD800F10008001E
:100DDC00831603133B08F0003C08F100F00DF10DF5
:100DEC007010F00DF10D70103908F0073A08031867
:100DFC00013EF10770088312C8007108C9007E22F9
:100E0C008A110A128316BD008312C80A0319C90A73
:100E1C007E228A110A128316BE008312C80A031995
:100E2C00C90A7E228A110A128316BF008312C80ACD
:100E3C000319C90A7E228A110A128316C0003B08C4
:100E4C003C040319782F3508F0003608F1003708F8
:100E5C00F2003808F3003D08F4003E08F5003F08A6
:100E6C00F6004008F700852201308316BB02031CF4
:100E7C00BC033B08F4003C08F500F40DF50D7410B0
:100E8C00F40DF50D74103908F4073A080318013EF7
:100E9C00F50774088312C8007508C9007E228A11F0
:100EAC000A12F400C80A0319C90A7E228A110A120E
:100EBC00F500C80A0319C90A7E228A110A12F60023
:100ECC00C80A0319C90A7E228A110A12F700DA200D
:100EDC0070088316BD007108BE007208BF0073084D
:100EEC00C000252F3D08F0003E08F1003F08F2003D
:060EFC004008F3000800AD
:100F0200452283163508C10064223D22D8250800F7
:100F1200831603133608F000B60A7008840000082E
:100F22000319942F892FB60335088400000803198A
:100F3200A52F350884000008F000360884007008E8
:100F42008000B60AB50A952F360884008001080091
:100F5200452283163508C10064224122E622080098
:100F620083160313C1016422A123081088103522BD
:080F720086100611A30108001E
:100F7A00831603132D082F06031DC52F2E082C06D2
:100F8A00031DC92FF001DA2F80302F06F0008030C0
:100F9A002D067002031DD32F2C082E020318D82FFA
:0C0FAA000130F000DA2FFF30F0000800EA
:100FB60083160313AC010130C100332483120313DB
:100FC60070088316AC008030003AF200803070065C
:100FD60072020318F92F80302C06F0008030323A66
:100FE60070020318F92F0130F000FA2FF001080003
:10100000831603133808F000F101F201F301FF30F9
:10101000F0050030F1057008BD007108BE007F309A
:101020007002F2000030031C013E7102F3007208EE
:10103000BD007308BE0080307306F000803070027F
:10104000031D24280030720203184A28F401F50118
:10105000F601F7013508F0003608F1003708F20014
:101060003808F3008A11A9248A15013003180030CA
:10107000F0007008031945280030F0000030F1003E
:101080008030F2007F30F300AB28F001F101F20173
:10109000F301AB2883163E08003C031D51283D0890
:1010A000183C03185C283508F0003608F1003708B2
:1010B000F2003808F300AB283508F0003608F100DC
:1010C0003708F2003808F3008A11A9238A158A111B
:1010D000F9248A1570088316B9007108BA007208DD
:1010E000BB007308BC007008F4007108F5007208BA
:1010F000F6007308F7003508F0003608F1003708ED
:10110000F2003808F3008A11A9248A150130031867
:101110000030F00070080319A2280030F4000030FD
:10112000F5000030F6007F30F70083163908F00034
:101130003A08F1003B08F2003C08F3008A117822DB
:101140008A15AB2883163908F0003A08F1003B08ED
:08115000F2003C08F300080066
:10115800710DF80DF90D7408F8027508031C750F68
:10116800F902F00DF10D0F30FC00710DF80DF90DBD
:101178007408701CC528F8027508031C750FF9025D
:10118800CA28F80775080318750FF907F00DF10D4F
:10119800FC0BB9287018D6287408F80775080318C6
:0811A800750FF90700000800B3
:1011B000831603132C08B5002D08B6004A30B7007B
:1011C0008A11FD258A152E08B5002F08B600373084
:1011D000B7008A1128268A153330B5004A30B60088
:1011E0008A1189278A153730B5004A30B6008A112E
:1011F00089278A153008B5003108B6003730B700A6
:101200008A1128268A153730B5004A30B6008A116F
:1012100089278A154630B5004A30B6008A118927D9
:101220008A153E30B5004A30B6008A1189278A15E2
:101230004A30B5008A11E6258A158A1192268A1548
:101240007008031929298A1199268A150030F1009E
:061250002A291D290800F7
:10125600643083160313AC000030AD00AE01AF015D
:101266000330C1008A1133248A15831203137008D0
:101276008316AE007108AF008030F2008030710630
:101286007202031D482970085A3C03187A29053052
:101296002E07F0002F080318013EF1008A11782569
:1012A6008A157008F4007108F5007208F6007308D4
:1012B600F7000030F0002030F1003630F2008A30BE
:1012C600F3008A11EA228A150030F4000030F50096
:1012D6000030F6007F30F7008A1178228A158A11CD
:1012E6001B258A1570088316AC007108AD002C0802
:0812F600F0002D08F1000800D2
:1012FE0083160313AC01AD018A11A4268A1570085A
:10130E00AC004030B5008A1181278A158A11A426B7
:10131E008A157008AD002C087006031D9B294030FD
:10132E00B5008A11A9278A15803083162D06F00084
:10133E0080302C0670020318A529B52980302C06A2
:10134E00F00080302D0670020318B2298030B500EF
:0E135E008A11A9278A158A11B1278A1508005D
:10136C0083160313B401F401F501F601F7012C08FF
:10137C00F0002D08F1002E08F2002F08F3008A115E
:10138C00A9248A15013003180030F00070080319E5
:10139C00DA2900308316AC060030AD068030AE067C
:1013AC000030AF060130B40083162C08F0002D0875
:1013BC00F1002E08F2002F08F3008330F400F9300E
:1013CC00F5002230F6007C30F7008A1185228A1550
:1013DC0070088316AC007108AD007208AE0073087B
:1013EC00AF007008B5007108B6007208B70073083A
:1013FC00B8000020831203137008F4007108F50084
:10140C007208F6007308F70083162C08F0002D08FC
:10141C00F1002E08F2002F08F3008A1178228A15A9
:10142C000030F4000030F5000030F6008130F70099
:10143C008A1185228A1570088316AC007108AD00DC
:10144C007208AE007308AF007008F4007108F50064
:10145C007208F6007308F7000030F0000030F1005D
:10146C000030F2008030F3008A11A9248A15013073
:10147C0003180030F00070080319662A0030F400DD
:10148C000030F5000030F6008030F70083162C0891
:10149C00F0002D08F1002E08F2002F08F3008A113D
:1014AC0078228A1570088316AC007108AD0072089A
:1014BC00AE007308AF0034080130031D0030B400D7
:1014CC0083162C08F4002D08F5002E08F6002F08C2
:1014DC00F7000030F0000030F1000030F2007F30F7
:1014EC00F3008A11A9248A15013003180030F0008A
:1014FC00700803199E2A83162C08F4002D08F50099
:10150C002E08F6002F08F7000030F0000030F10034
:10151C000030F2008030F3008A1178228A157008AE
:10152C008316AC007108AD007208AE007308AF00F2
:10153C0083162C08F0002D08F1002E08F2002F085D
:10154C00F3002C08F4002D08F5002E08F6002F08E7
:10155C00F7008A1185228A1570088316B00071086D
:10156C00B1007208B2007308B3007008B5007108BE
:10157C00B6007208B7007308B800E730B9000F3036
:10158C00BA000430BB000030BC008A11EE268A156C
:10159C002C08F4002D08F5002E08F6002F08F70093
:1015AC008A1185228A1570088316AC007108AD006B
:1015BC007208AE007308AF003008B5003108B600F1
:1015CC003208B7003308B8003F30B9001730BA0002
:1015DC000330BB000030BC008A11EE268A1570085F
:1015EC00F4007108F5007208F6007308F7002C0877
:1015FC00F0002D08F1002E08F2002F08F3008A11DC
:10160C00EA228A1570088316AC007108AD007208C6
:10161C00AE007308AF0034080319212B00302C06E0
:10162C00F00000302D06F10080302E06F200003064
:10163C002F06F300292B2C08F0002D08F1002E08A2
:08164C00F2002F08F300080072
:10165400831603132C08B5002D08B6004A30B700D2
:101664008A11FD258A152E08B5002F08B6003730DB
:10167400B7008A1128268A152730B5004A30B600EB
:101684008A1189278A153730B5004A30B6008A1185
:1016940089278A153008B5003108B6003730B700FD
:1016A4008A1128268A153730B5004A30B6008A11C7
:1016B40089278A153208B5003308B6003730B700D9
:1016C4008A1128268A153730B5004A30B6008A11A7
:1016D40089278A153130B5004A30B6008A11892726
:1016E4008A154A30B5008A11E6258A158A11922690
:1016F4008A1570080319822B8A1199268A15832B5F
:04170400782B080036
:10170800013083160313A400A501A601A701A801AF
:10171800A901AA01AB01831221088316AC00831228
:1017280022088316AD002008AE002108AF008A11F8
:10173800BD278A157008A900831225088316AC00F6
:10174800831226088316AD002208AE002308AF00D6
:101758008A11BD278A157008AA002908FF3A031DB7
:10176800B82B2A08033EA4002908003A031DD22BEF
:10177800C62B0130A400D22B0930A400D22B05308F
:10178800A400D22B2A08FF3A0319BD2B2A08003AD5
:101798000319C02B2A08013A0319C32B2908013A57
:1017A800031DD92B2A08073CA4008A11A4268A15F0
:1017B8007008A7007108A8002B217008A5007108FF
:1017C800A6008730AC001730AD007008AE00710875
:1017D800AF002708B0002808B100D820872E803035
:1017E800F0008030831628067002031DFD2B2708A1
:1017F800023C0318222C8A1145228A15FF308316D1
:10180800C1008A1164228A158A1141228A158A1117
:10181800D8258A150430FB009B30FC000F30FD00F2
:10182800FD0B142CFC0B142CFB0B142C8A11B12768
:101838008A157F21013083160313AB00D02E803028
:10184800F000803028067002031D2C2C2708023C6B
:101858000318812C8030F000803026067002031DAA
:10186800372C2508023C0318812CFF30B5008A115B
:10187800A9278A150330FB007030FC005C30FD009E
:10188800FD0B442CFC0B442CFB0B442C00008A1150
:1018980045228A15FF308316C1008A1164228A15F1
:1018A8008A1141228A158A11D8258A150430FB002D
:1018B8009B30FC000F30FD00FD0B602CFC0B602CF6
:1018C800FB0B602C8A11B1278A15FF308316B500EF
:1018D8008A1181278A150330FB007030FC005C30C8
:1018E800FD00FD0B752CFC0B752CFB0B752C0000FB
:1018F8007F21013083160313AB00D02E8030F00017
:10190800803026067002031D8B2C2508023C031824
:10191800F62C8A1145228A15FF308316C1008A11D8
:1019280064228A158A113D228A158A11E6228A15AF
:101938000430FB009B30FC000F30FD00FD0BA22C97
:10194800FC0BA22CFB0BA22C8A11B1278A15FF30A5
:101958008316B5008A11A9278A150330FB00703059
:10196800FC005C30FD00FD0BB72CFC0BB72CFB0B0F
:10197800B72C00008A1145228A15FF308316C10052
:101988008A1164228A158A1141228A158A11D8255A
:101998008A150630FB006830FC001730FD00FD0B8F
:1019A800D32CFC0BD32CFB0BD32C000000008A118A
:1019B800B1278A15FF308316B5008A1181278A1549
:1019C8000330FB007030FC005C30FD00FD0BEA2C9E
:1019D800FC0BEA2CFB0BEA2C00007F21013083165C
:1019E8000313AB00D02E8030F00080302606700242
:1019F800031D002D2508023C03184A2DFF30B500B1
:101A08008A1181278A150330FB007030FC005C3096
:101A1800FD00FD0B0D2DFC0B0D2DFB0B0D2D0000FE
:101A28008A1145228A15FF308316C1008A11642263
:101A38008A158A113D228A158A11E6228A150430F0
:101A4800FB009B30FC000F30FD00FD0B292DFC0B2B
:101A5800292DFB0B292D8A11B1278A15FF308316F2
:101A6800B5008A11A9278A150330FB007030FC00E5
:101A78005C30FD00FD0B3E2DFC0B3E2DFB0B3E2D7F
:101A880000007F21013083160313AB00D02E8A118A
:101A980045228A15FF308316C1008A1164228A15EF
:101AA8008A113D228A158A11E6228A150430FB0024
:101AB8009B30FC000F30FD00FD0B602DFC0B602DF2
:101AC800FB0B602D8A11B1278A158A1145228A15C8
:101AD8007F21013083160313AB00D02EFF30B500F1
:101AE8008A11A9278A150330FB007030FC005C308E
:101AF800FD00FD0B7D2DFC0B7D2DFB0B7D2D0000CE
:101B08008A1145228A15FF308316C1008A11642282
:101B18008A158A113D228A158A11E6228A1504300F
:101B2800FB009B30FC000F30FD00FD0B992DFC0BDA
:101B3800992DFB0B992D8A11B1278A15FF30831631
:101B4800B5008A1181278A150330FB007030FC002C
:101B58005C30FD00FD0BAE2DFC0BAE2DFB0BAE2D4E
:101B680000007F21013083160313AB00D02E8A11A9
:101B780045228A15FF308316C1008A1164228A150E
:101B88008A113D228A158A11E6228A150430FB0043
:101B98009B30FC000F30FD00FD0BD02DFC0BD02D31
:101BA800FB0BD02D8A11B1278A15FF308316B5009B
:101BB8008A1181278A150330FB007030FC005C30E5
:101BC800FD00FD0BE52DFC0BE52DFB0BE52D0000C5
:101BD8008A1145228A15FF308316C1008A116422B2
:101BE8008A158A1141228A158A11D8258A15063044
:101BF800FB006830FC001730FD00FD0B012EFC0BCC
:101C0800012EFB0B012E000000008A11B1278A1556
:101C1800FF308316B5008A11A9278A150330FB0007
:101C28007030FC005C30FD00FD0B182EFC0B182EEC
:101C3800FB0B182E00007F21013083160313AB0025
:101C4800D02E8030F000803028067002031D2E2E22
:101C58002708023C0318782EFF30B5008A11812727
:101C68008A150330FB007030FC005C30FD00FD0B72
:101C78003B2EFC0B3B2EFB0B3B2E00008A11452212
:101C88008A15FF308316C1008A1164228A158A11C9
:101C980041228A158A11D8258A150430FB009B3009
:101CA800FC000F30FD00FD0B572EFC0B572EFB0BD5
:101CB800572E8A11B1278A15FF308316B5008A116D
:101CC800A9278A150330FB007030FC005C30FD004A
:101CD800FD0B6C2EFC0B6C2EFB0B6C2E00007F2179
:101CE800013083160313AB00D02E8E30AC001730B2
:101CF800AD000130AE000030AF000130B000003060
:101D0800B100D820D02E83162408013A0319F32BEA
:101D18002408013A0319F32B2408023A0319232C47
:101D28002408023A0319232C2408033A0319822CA5
:101D38002408033A0319822C2408043A0319F72CBF
:101D48002408043A0319F72C2408053A03194B2DE3
:101D58002408053A03194B2D2408063A0319722D55
:101D68002408063A0319722D2408073A0319BB2DD3
:101D78002408073A0319BB2D2408083A0319252E0D
:101D88002408083A0319252E2408093A0319792E3C
:101D98002408093A0319792E8A11DB278A15700855
:101DA8000319EA2E2B080319EA2E7930AC001730F4
:101DB800AD002008AE002108AF002208B0002308BB
:101DC800B1000130B2000030B3002A2383162B087B
:041DD800F00008000F
:101DDC00831203137008F100F0010830FC00710845
:101DEC00F40C0318FD2EFC0BF62EF101003403103D
:101DFC00022FF40C0318F107F10CF00CFC0BFF2E66
:021E0C000800CC
:101E0E00831203137408003A031D162F7508003A47
:101E1E00031D162FFF30F0007F30F1006F2F83125D
:101E2E000313FD01F901F801710870040319003460
:101E3E0071087506FA00FA1BFD09FB01F51F2C2F20
:101E4E00F409F509F40A0319F50AF11F332FF00905
:101E5E00F109F00A0319F10A71087504FA00FA1B68
:101E6E00482FAC207B185B2FFD1F0034F009F109C1
:101E7E00F00A0319F10AF809F909F80A0319F90A1F
:101E8E000034F51F572FF11B532F7108F9007008FE
:101E9E00F800F101F0013B2FF101F001F00A0034DE
:101EAE00F109F009FB0A382FF80A0319F90A740828
:101EBE007802031D3B2F75087902031D3B2FF90194
:101ECE00F801F00A0319F10AF11F3B2F0000FF344D
:021EDE000800FA
:101EE000831603132008F4002108F5002208F600E9
:101EF0002308F700DB30F0000F30F1004930F2002A
:101F00008030F3008A11A9248A15013003180030AB
:101F1000F00070080319AB2FE430F400CB30F5006B
:101F20001630F6008130F70083162008F0002108F3
:101F3000F1002208F2002308F3008A1178228A15A2
:101F400070088316AC007108AD007208AE0073080B
:101F5000AF00B621C92F83162008F0002108F10038
:101F60002208F2002308F300DB30F4000F30F50004
:101F70004930F6007F30F7008A11DA208A157008A0
:101F80008316AC007108AD007208AE007308AF0094
:041F9000B62108006E
:101F940083160313981690308312980083168717BC
:101FA400071383128C1ED92F1A08F000D32F0800B0
:101FB4008A117E228A150A128000840AC80A03192B
:0A1FC400C90AF003031DDA2F08001C
:1020000083120313FD01F8017008031900347406EC
:10201000FA00FA1BFD09FB01F41F1028F409F40A69
:10202000F01F1428F009F00A70087404FA00FA1B73
:1020300038287408F802F00D700DF80D7408F807D0
:10204000F00D0630FC00700DF80D74087018F802E1
:10205000701CF807F00DFC0B2328701CF8077B1888
:102060004628FD1F0034F009F00AF809F80A003488
:10207000F41F4328F01B40287008F800F0013128B5
:10208000F001F00A0034F009FB0A1928F80A740874
:102090007802031D3128F801F00AF01F3128FF34BF
:0220A000080036
:1020A20083120313E901EA0180308316AC00173072
:1020B200AD00831221088316AE0083122208831614
:1020C200AF00831225088316B000831226088316F8
:1020D200B1008A150A12D8208A110A167008E9007E
:1020E2007108EA0095308316AC001730AD008312F8
:1020F20021088316AE00831222088316AF008312D2
:1021020025088316B000831226088316B100F00A50
:102112000319F10A70088312E9007108EA007008D5
:102122008316B2007108B3008A150A122A238A1193
:102132000A16AA308316AC001730AD0083122108AC
:102142008316AE00831222088316AF00831225087D
:102152008316B000831226088316B1008A150A126C
:10216200D8208A110A167008BD00B1308316AC005F
:102172001730AD00831221088316AE0083122208A5
:102182008316AF00831225088316B0008312260837
:102192008316B1008A150A12D8208A110A1670080D
:1021A200AC002B08013A031DD6282B08053A031D63
:1021B200E5282C08F000FF30F4008A150A12EE26FA
:1021C2008A110A167008AC002B08073A031DF4287E
:1021D2003D08E9000030E91BFF30EA002C08BD0091
:1021E2006908003CAC002B08033A031D03293D0893
:1021F200E9000030E91BFF30EA002C08BD00690845
:10220200003CAC003D0821078316A000831222087F
:102212000318013E8316A10000308312BD1BFF305C
:102222008316A10783122C0825078316A2008312A6
:1022320026080318013E8316A30000308312AC1B4C
:10224200FF308316A3078A150A1284238A110A16FD
:10225200700803193E2983123D08A1070318A20A38
:102262000030BD1BFF30A2072C08A5070318A60AE1
:102272000030AC1BFF30A607A7299C308316AC00A8
:102282001730AD0083123D0821078316AE0083127A
:1022920022080318013E8316AF0000308312BD1BD3
:1022A200FF308316AF0783122C0825078316B00070
:1022B200831226080318013E8316B10000308312F0
:1022C200AC1BFF308316B1078A150A12D8208A1177
:1022D2000A167008E9007108EA00A3308316AC0000
:1022E2001730AD0083123D0821078316AE0083121A
:1022F20022080318013E8316AF0000308312BD1B73
:10230200FF308316AF0783122C0825078316B0000F
:10231200831226080318013E8316B100003083128F
:10232200AC1BFF308316B107F00A0319F10A7008DB
:102332008312E9007108EA0070088316B20071087E
:0E234200B3008A150A122A238A110A1608000F
:1023500083120313EB016A086902F1007108EB00B4
:102360008030043AF0008030710670020318BB29F7
:102370006B08083CEB0080306B06F0008030003AC0
:102380007002031CD32BFF308316B5000A12A92755
:102390000A168030003AF00080306B067002031895
:1023A000D22B0830FB004F30FC001930FD00FD0B34
:1023B000D729FC0BD729FB0BD729000000000230DE
:1023C000F4006B08F00000207808F0007008013A73
:1023D000031DEB29D02BC02B78308316A000F330DF
:1023E000A100EC30A2007D30A3008A150A127027EC
:1023F0008A110A16A030F4001A30F5000F30F600EA
:102400008130F7000A1285220A167008EC00710864
:10241000ED007208EE007308EF002108F0002208BA
:10242000F1000A1278250A166C08F4006D08F50010
:102430006E08F6006F08F7000A12DA200A160A1270
:102440001B250A167008A1007108A20078308316B7
:10245000AC00F330AD00EC30AE007D30AF008A153B
:102460000A12B6218A110A16A030F4001A30F500BB
:102470000F30F6008130F7000A1285220A16700824
:10248000EC007108ED007208EE007308EF002508FB
:10249000F0002608F1000A1278250A166C08F400EC
:1024A0006D08F5006E08F6006F08F7000A12DA20D2
:1024B0000A160A121B250A167008A5007108A60044
:1024C000D02B60308316A0007130A1002B30A20009
:1024D0008030A3008A150A1270278A110A16A030CC
:1024E000F4001A30F5000F30F6008130F7000A12C0
:1024F00085220A167008EC007108ED007208EE00E3
:102500007308EF002108F0002208F1000A12782574
:102510000A166C08F4006D08F5006E08F6006F08E6
:10252000F7000A12DA200A160A121B250A1670088A
:10253000A1007108A20060308316AC007130AD00BC
:102540002B30AE008030AF008A150A12B6218A11F6
:102550000A16A030F4001A30F5000F30F600813072
:10256000F7000A1285220A167008EC007108ED00C7
:102570007208EE007308EF002508F0002608F1004D
:102580000A1278250A166C08F4006D08F5006E082A
:10259000F6006F08F7000A12DA200A160A121B2545
:1025A0000A167008A5007108A600D02B57308316B4
:1025B000A0002630A1008230A2008030A3008A153E
:1025C0000A1270278A110A16A030F4001A30F5009A
:1025D0000F30F6008130F7000A1285220A167008C3
:1025E000EC007108ED007208EE007308EF0021089E
:1025F000F0002208F1000A1278250A166C08F4008F
:102600006D08F5006E08F6006F08F7000A12DA2070
:102610000A160A121B250A167008A1007108A200EA
:1026200057308316AC002630AD008230AE008030CB
:10263000AF008A150A12B6218A110A16A030F400DA
:102640001A30F5000F30F6008130F7000A128522AB
:102650000A167008EC007108ED007208EE007308AD
:10266000EF002508F0002608F1000A1278250A1666
:102670006C08F4006D08F5006E08F6006F08F700AE
:102680000A12DA200A160A121B250A167008A5007B
:102690007108A600D02BF2308316A000D230A10022
:1026A0000D30A2007F30A3008A150A1270278A110C
:1026B0000A16A030F4001A30F5000F30F600813011
:1026C000F7000A1285220A167008EC007108ED0066
:1026D0007208EE007308EF002108F0002208F100F4
:1026E0000A1278250A166C08F4006D08F5006E08C9
:1026F000F6006F08F7000A12DA200A160A121B25E4
:102700000A167008A1007108A200F2308316AC000E
:10271000D230AD000D30AE007F30AF008A150A1206
:10272000B6218A110A16A030F4001A30F5000F30D5
:10273000F6008130F7000A1285220A167008EC00B4
:102740007108ED007208EE007308EF002508F00034
:102750002608F1000A1278250A166C08F4006D08A4
:10276000F5006E08F6006F08F7000A12DA200A1664
:102770000A121B250A167008A5007108A600D02BA6
:102780002B08013A0319EC292B08053A0319612A91
:102790002B08033A0319D62A2B08073A03194B2BA7
:1027A000EB03C929F62DFF308316B5000A128127E5
:1027B0000A1680306B06F0008030003A7002031871
:1027C000F62D0830FB004F30FC001930FD00FD0BEA
:1027D000E72BFC0BE72BFB0BE72B000000006B0843
:1027E000003CF000F101031CF1030130EB1F00304D
:1027F000F1070230F4000030F5008A150A120727AD
:102800008A110A167808F0007908F1000030710684
:10281000031D0C2C01307006031D0F2CF42DE42D2C
:1028200061308316A0007130A1002B30A2008030EF
:10283000A3008A150A1270278A110A16A030F40024
:102840001A30F5000F30F6008130F7000A128522A9
:102850000A167008EC007108ED007208EE007308AB
:10286000EF002108F0002208F1000A1278250A166C
:102870006C08F4006D08F5006E08F6006F08F700AC
:102880000A12DA200A160A121B250A167008A1007D
:102890007108A20061308316AC007130AD002B309E
:1028A000AE008030AF008A150A12B6218A110A16CE
:1028B000A030F4001A30F5000F30F6008130F70038
:1028C0000A1285220A167008EC007108ED007208E1
:1028D000EE007308EF002508F0002608F1000A1248
:1028E00078250A166C08F4006D08F5006E08F600ED
:1028F0006F08F7000A12DA200A160A121B250A16B8
:102900007008A5007108A600F42D98308316A00069
:102910004030A1003A30A2008130A3008A150A128B
:1029200070278A110A16A030F4001A30F5000F3013
:10293000F6008130F7000A1285220A167008EC00B2
:102940007108ED007208EE007308EF002108F00036
:102950002208F1000A1278250A166C08F4006D08A6
:10296000F5006E08F6006F08F7000A12DA200A1662
:102970000A121B250A167008A1007108A2009830DF
:102980008316AC004030AD003A30AE008130AF006D
:102990008A150A12B6218A110A16A030F4001A30DC
:1029A000F5000F30F6008130F7000A1285220A1672
:1029B0007008EC007108ED007208EE007308EF007B
:1029C0002508F0002608F1000A1278250A166C087E
:1029D000F4006D08F5006E08F6006F08F7000A12A3
:1029E000DA200A160A121B250A167008A5007108BB
:1029F000A600F42DF2308316A000D230A1000D30D5
:102A0000A2007F30A3008A150A1270278A110A16C5
:102A1000A030F4001A30F5000F30F6008130F700D6
:102A20000A1285220A167008EC007108ED0072087F
:102A3000EE007308EF002108F0002208F1000A12EE
:102A400078250A166C08F4006D08F5006E08F6008B
:102A50006F08F7000A12DA200A160A121B250A1656
:102A60007008A1007108A200F2308316AC00D230C9
:102A7000AD000D30AE007F30AF008A150A12B621CE
:102A80008A110A16A030F4001A30F5000F30F60053
:102A90008130F7000A1285220A167008EC007108CE
:102AA000ED007208EE007308EF002508F00026081C
:102AB000F1000A1278250A166C08F4006D08F5007A
:102AC0006E08F6006F08F7000A12DA200A160A12DA
:102AD0001B250A167008A5007108A600F42DA43065
:102AE0008316A000FC30A1000730A2008130A300B3
:102AF0008A150A1270278A110A16A030F4001A30BB
:102B0000F5000F30F6008130F7000A1285220A1610
:102B10007008EC007108ED007208EE007308EF0019
:102B20002108F0002208F1000A1278250A166C0824
:102B3000F4006D08F5006E08F6006F08F7000A1241
:102B4000DA200A160A121B250A167008A10071085D
:102B5000A200A4308316AC00FC30AD000730AE00FC
:102B60008130AF008A150A12B6218A110A16A030E8
:102B7000F4001A30F5000F30F6008130F7000A1229
:102B800085220A167008EC007108ED007208EE004C
:102B90007308EF002508F0002608F1000A127825D6
:102BA0000A166C08F4006D08F5006E08F6006F0850
:102BB000F7000A12DA200A160A121B250A167008F4
:102BC000A5007108A600F42D2B08013A0319102C5A
:102BD0002B08053A0319852C2B08033A0319FA2C04
:102BE0002B08073A03196F2DEB0AD92B0A12B127CC
:082BF0000A166A08AB00080098
:102BF800B82783120313E701E8018130831699008F
:102C080018158A150A12CA278A110A165D30831602
:102C1800AC001730AD000130AE000030AF0001301D
:102C2800B0000030B1008A150A12D8208A110A169D
:102C380000307106031D222E0D3070060319332E45
:102C48000330FB008A30FC005530FD00FD0B2A2EB6
:102C5800FC0B2A2EFB0B2A2E000000000A2E053042
:102C6800AB008A150A122B218A110A1670088312E2
:102C7800A1007108A200A20CA10CA213221BA2178A
:102C88000A12A4260A167008F2007108F300F30C61
:102C9800F20CF313731BF31772088312A500730861
:102CA800A60056308316AC001730AD0083122108F9
:102CB8008316AE00831222088316AF007208B00094
:102CC8007308B1008A150A12D8208A110A162B082F
:102CD800E9000130EA00A8218A150A122B218A117D
:102CE8000A167008F2007108F300F30CF20CF313E3
:102CF800731BF317720883122107AF002208031809
:102D0800013E7307B0000A12A4260A167008F200E2
:102D18007108F300F30CF20CF313731BF31772082A
:102D280083122507AD0026080318013E7307AE007D
:102D38000A12A4260A1670088312E7007108E80030
:102D48008A150A122B218A110A164F30AC00173047
:102D5800AD007008AE007108AF00831267088316D3
:102D6800B000831268088316B1008A150A12D820A9
:102D78008A110A1672308316AC001730AD00831220
:102D88002F088316AE00831230088316AF00831213
:102D98002D088316B00083122E088316B100013067
:102DA800B2000030B3008A150A122A238A110A16C3
:102DB8006B308316AC001730AD00831221088316E0
:102DC800AE00831222088316AF00831225088316EB
:102DD800B000831226088316B1008A150A12D8207B
:102DE8008A110A1664308316AC001730AD00013022
:102DF800AE000030AF000130B0000030B1008A15DD
:102E08000A12D8208A110A1600307106031D0E2FE7
:0E2E18000D3070060319122F5120F62E122FC6
:102F700021308400273083120313F0001830C8007A
:102F80001730C9008A150A12DA278A110A160800B2
:101FCE00EC34F3344A3490343534953495348F34BC
:101FDE001734C1345C348B34FD34DB34ED34863449
:081FEE007234B3343334803443
:042E30000034003436
:022E3400003468
:022E36007F34E7
:042E3800003400342E
:082E3C0020347334203400340B
:022E4400013457
:022E4600003456
:042E4800003400341E
:042E4C00003400341A
:042E50000A3400340C
:082E54002034673420340034FF
:0C2E5C0000340034003400340034003432
:022E6800003434
:102E6A002034203420342034203430340A340034DE
:042E7A0020340034CC
:102E7E002B343434013490347F349D3430348B34DD
:102E8E00E734FF34593485340034003400347F3451
:0E2E9E0069347334533461346634653400345F
:0E2EAC00483469346E347434203420340034D9
:0E2EBA00733474346134723474342034003450
:0E2EC8006A346234733464346E34653400341A
:0E2ED600483469346E347434203420340034AF
:0E2EE4006D34613478342034203420340034CE
:0E2EF2004D346534743461346C346C34003407
:0E2F0000483469346E34743420342034003484
:0E2F0E006934733453346134663465340034EE
:0E2F1C007A34653472346F34643420340034F7
:0E2F2A00483469346E3474342034203400345A
:0E2F3800483469346E3474342034203400344C
:0E2F4600483469346E3474342034203400343E
:0E2F5400433461346C34633420342034003450
:0E2F6200433461346C34633432342034003430
:04400E00F22F000687
:00000001FF
