:040000008A15002835
:0E000600F201F101F001F801F30100300800F1
:100014007B15FB1F14280130F300F201F101F001FC
:08002400FA0DF20CFF30080098
:08002C00FA1FF2130030080076
:1000340083120313FB01FA01F9018030F800F10C7B
:10004400F00C031C2E287408F90775080318750FA3
:10005400FA070318FB0A0310F01F36287408FA077E
:1000640075080318750FFB07FB0CFA0CF90CF80C58
:10007400031C21287B08F3007A08F2007908F100B8
:060084007808F0000800FE
:10008A00FB14FB1F4F28FF30F300F200F100F000D1
:08009A00FA0DF20CFF30080022
:1000A200831603131208013EF000F1010318F10A4E
:1000B200831203175108F400F5011A200630F200EA
:1000C2007008F4007108F500720803196D28F50C28
:1000D200F40CF513FF3E66280430F1007408F000BA
:1000E200710803197828F00D7010FF3E7228303025
:1000F2007005F3007408F0007508F100F10CF00CC3
:10010200F113F10CF00CF11370089B000F309D05F8
:0601120073089D040800C3
:10011800831603130711831212150C309704080075
:10012800A0017208031DA9287108F2007008F100E7
:10013800F001A0157208031DA9287108F200F10149
:10014800A011201672080319B7282008F302031D0E
:10015800031CBB280310F21BBF28F00DF10DF20D94
:10016800F30BAF28BB280130FC000320C228023063
:0E017800FC000A20C2280430FC0016200800FB
:100186007C18F928FC18CA287C191829C328A0014C
:100196007208031DEA287108F2007008F100780859
:1001A600F000F801A0157208031DEA287108F20094
:1001B6007008F100F001A01120167208031DEA284C
:1001C6007108F200F101A015720803190C29200824
:1001D600F302031D031C10290310F21BF928F80D66
:1001E600F00DF10DF20DF30BF02810297B1B701C9E
:1001F6001429F81F1429F00A0319F10A0319F20A3F
:10020600031D1429F20CF10CF00CF30A031918293A
:1002160014290130FC0003201B290230FC000A20AF
:100226001B290430FC0016201B290830FC00452041
:0402360000000800BC
:0C023A00831203139B011D129D1208008B
:10024600831603138710831212150C309D040800C1
:10025600831603131208013EF000F1010318F10A98
:10026600831203175108F400F5011A200630F20034
:100276007008F4007108F500720803194729F50C97
:10028600F40CF513FF3E40290430F1007408F00029
:10029600710803195229F00D7010FF3E4C293030B9
:1002A6007005F3007408F0007508F100F10CF00C0D
:1002B600F113F10CF00CF113700895000F3097054F
:0602C60073089704080014
:0C02CC008312031395011712971208000B
:0602D800FB15FF300800D9
:1002DE0083120317500803132106031982290317EB
:1002EE0050080313A10003175008D1002B21031748
:0802FE005008D1005120080056
:100306008312031372087606A000F801F901730838
:100316007702031CA6297708FD007308F7007D08FD
:10032600F3007608FD007208F6007D08F2007508F5
:10033600FD007108F5007D08F1007408FD007008E5
:10034600F4007D08F000770803191F2A7208FA00E6
:10035600F217F61777087302F7000319D929083040
:100366007702031CCF29F7007408F9007508F4001A
:100376007608F500F60108307702031CCF29F7004E
:100386007408F9007508F400F50108307702031CBB
:10039600CF297A08F2001F2A77080319D9290310F2
:1003A600F60CF50CF40CF90CF70BD229A01FE62974
:1003B600F909F409F509F609F90A0319F40A031902
:1003C600F50A0319F60A7908F80774080318740F72
:1003D600F00775080318750FF10776080318760FEE
:1003E600F207A01BFF29031C0F2AF20CF10CF00CDC
:1003F600F80CF30F0F2A1B2A0318132AF809F00921
:10040600F109F209F80A0319F00A0319F10A0319A6
:10041600F20A8030FA06172A0130FC00C320212A8E
:100426000230FC00C320212A0430FC009420212A3B
:100436000830FC004520212A0030FC00000008009E
:10044600831203136108003A031D412A0130E100BB
:1004560083160317091009118610061103130810D5
:10046600881083121214921063308316920066214C
:0E047600121492106330831692001D210800AC
:08048400232186140611080073
:08048C0023218610061508006B
:080494008C20081488100800F8
:10049C007B14FB1F592AF201FA1FFF30F200F10006
:0A04AC00F000FA0DF20CFF3008001A
:0804B6008C20081088140800D6
:1004BE00831203137408003A031D7A2A7508003A52
:1004CE00031D7A2A7608003A031D7A2A7708003A25
:1004DE00031D7A2AFF30F000FF30F1007F30F2006A
:1004EE00FF30F300152B8312031377080319092B22
:1004FE00730803190C2B720876068039FA00F2176E
:10050E00F617A0017208F8007108FC007008FD00D3
:10051E007408FD027508031C750FFC027608031C97
:10052E00760FF802F801FC01FD01031CA52A031049
:10053E00F20CF10CF00CF80C0130A0007708F3026D
:10054E00031CAF2A7E302007F30703180F2BB42AA3
:10055E007E302007F307031C122B1830FA07FD0D0F
:10056E00FC0DF80DF00DF10DF20DA00D7408F0025A
:10057E007508031C750FF1027608031C760FF20244
:10058E00760DA004201CCD2A7D14D82A7408F007FD
:10059E0075080318750FF10776080318760AF20727
:1005AE007D10FA031F307A05031DB62A7B1B7D1CB6
:1005BE00FF2A0310F00DF10DF20DA00D7408F002DC
:1005CE007508031C750FF1027608031C760FF202F4
:1005DE00760D20040139FD070318FC0A0319F80AE9
:1005EE00031DFF2AF80CFC0CFD0CF30A03190F2B4C
:1005FE00FA1FF8137808F2007C08F1007D08F0006D
:10060E000030142B01306C21142B02300320142BDC
:0E061E0004304520142B08300A20000008008C
:10062C000030831603136F02031C2E2B6F08033C40
:10063C00031C2E2B6F08F1000130F0007108031918
:10064C002B2BF00D7010FF3E252B700885044C2BC6
:10065C006F08043A031D342B85164C2B05306F02A2
:10066C00031C4C2B6F08073C031C4C2B05306F02F2
:10067C00F0007008F1000130F000710803194A2BEA
:10068C00F00D7010FF3E442B700889046F08F100C8
:10069C000130F00071080319572BF00D7010FF3E5C
:1006AC00512B70080317880403136F08F000F00D2A
:1006BC007010F00D70107008C13E83129F00063050
:1006CC00FD00FD0B672B00009F149F1C6E2B6B2BEA
:1006DC001E08F200F301F20DF30D7210F20DF30D82
:1006EC0072100630F10083161E08F0007108031911
:1006FC00832BF00CF013FF3E7D2B0030F1007208C1
:0C070C00F00773080318013EF107080015
:10071800831203137008F8007108F000F101F20168
:10072800F301FB01FC019630F300FA01F01FA22B44
:10073800F809F009F80A0319F00AFA177008F10025
:0C0748007808F000F801F201942008008D
:1007540083120313FB0173080319E72B7208FA00D1
:10076400F2178E30F302F31FEA2BF309F30A083071
:100774007302031CCD2BF300F10D7208F100F2019A
:1007840008307302031CCD2BF300F10DF101730843
:10079400031D0310D52B73080319D52B0310F20C7A
:1007A400F10CF30BD02B7B1B711CDF2B031CDF2BF9
:1007B400F10A0319F20AF21BF62BFA1FF92BF209BC
:1007C400F109F10A0319F20AF92BF201F101F92BEB
:1007D4007B14FB1FFC2BF201FA1FFC2BFF30F200F1
:1007E400F100FA0DF20CFC2B0130FC00FE2B003062
:1007F400FC00FE2BFF30FC00FC080319022C4E22E7
:0A0804007108F0007208F10008000E
:10080E00232283166F0883120317D0006F214A220A
:04081E004622080066
:1008220083160313871483121211F0309D050800FA
:10083200831203137008F100F0010830FC00710804
:10084200F40C0318282CFC0B212CF10100340310AA
:100852002D2CF40C0318F107F10CF00CFC0B2A2CD4
:0208620008008C
:1008640083160313071583121211F030970508003D
:0C087400831203138030F6068321080075
:10088000232283166F0883120317D0006F215B2287
:0408900042220800F8
:10089400003083160313E9000030EA004830EB000F
:1008A4008530EC00ED01EE010230EF0016238312D7
:1008B400031370088316ED007108EE008030F20017
:1008C400803071067202031D692C70085A3C0318AB
:1008D400962C05306D07F0006E080318013EF100F8
:1008E4008C237008F4007108F5007208F600730890
:1008F400F7000030F0002030F1003630F2008A308A
:10090400F3005F220030F4000030F5000030F60000
:100914007F30F7003A2470088316E9007108EA0072
:100924007208EB007308EC006908F0006A08F10033
:0C0934006B08F2006C08F300AA23080016
:10094000013083160313EF0016238312031370087C
:100950008316E9008030003AF2008030700672029F
:100960000318BD2C80306906F0008030323A7002E6
:0E0970000318BD2C0130F000BE2CF001080071
:10097E0083120317D0016F2132240810881011241E
:08098E0086100611E1010800CA
:100996008316031369086A06031DD32CF001E02CA5
:1009A60080306A06F0008030690670020318DE2C7B
:0C09B6000130F000E02CFF30F0000800E1
:1009C200831603136A086902F1007108EB00803094
:1009D200043AF0008030710670020318F32C6B08A1
:1009E200083CEB0080306B06F0008030003A700269
:1009F200031C052D6B08F0002D30F400192470083B
:100A02008316EF004024102D83166B08003CF00083
:100A12002D30F400192470088316EF000724080013
:100A22008312031363088316E9006208EA00CB24E9
:100A32007008E500831262088316E9006308EA0081
:100A4200CB246508FF3A031D292D6608033EE40006
:100A52006508003A031D452D392D0130E400452D6E
:100A6200831222088316E400452D0530E400452D4B
:100A72006608FF3A03192E2D6608003A0319312D34
:100A82006608013A0319362D6508013A031D4C2DFB
:100A92006608073CE400831222088316E900640812
:100AA200EA00E1244A247008643A031D862D2322B9
:100AB200FF300317D0006F215B224622013022054E
:100AC200F1007108003A031D742D0F30FB005930FC
:100AD200FC00AE30FD00FD0B6C2DFC0B6C2DFB0BF6
:100AE2006C2D0000822D0B30FB002630FC005D30A7
:100AF200FD00FD0B7A2DFC0B7A2DFB0B7A2D0000ED
:100B02000000E00A0130F000442E4A2470088316E7
:100B1200E8002322FF300317D0006F215B22462218
:100B22008316E70105306802F100F201031CF203AB
:100B32000030E81BFF30F2078030E71B7F30F00007
:100B4200803072067002031DA82D71086702031817
:100B5200BA2D0630FB001330FC00AD30FD00FD0B5A
:100B6200B02DFC0BB02DFB0BB02D00000000E70AEE
:100B7200932DBF2467086307F3000030E31BFF30A7
:100B8200F4000318F40A0030E71BFF30F4070330C7
:100B9200F2007308F0007408F10072080319D62DF0
:100BA200F00DF10D7010FF3ECF2D83127008103E34
:100BB200F20066086207F0000030E21BFF30F1002D
:100BC2000318F10A0030E61BFF30F10770087207C4
:100BD200F100710884000008F000F00A7108840036
:100BE20070088000E00AA02470080319132E8312F3
:100BF2002308F000F00D70107008243E840067088E
:100C02006307F000700880002308F000F00D7010F8
:100C12002430F007700A840066086207F00070084A
:100C22008000A30A2322FF300317D0006F214A223B
:100C320042228316E70105306802F100F201031C2B
:100C4200F2030030E81BFF30F2078030E71B7F30F1
:100C5200F000803072067002031D312E71086702A7
:100C62000318432E0630FB001330FC00AD30FD00AC
:100C7200FD0B392EFC0B392EFB0B392E0000000028
:080C8200E70A1C2EF001080036
:0E0C8A008312031365088A00640882000800C4
:100C98008030831603136206F0008030003A700239
:100CA800031C592E6208F0005C2E6208003CF0001C
:020CB800080032
:100CBA0083120313EA0180306A06F0008030083A92
:100CCA0070020318DD2EEB0180306B06F0008030D5
:100CDA00083A70020318DB2E0330F1006A08F000AC
:100CEA00710803197C2EF00D7010FF3E762E10301D
:100CFA00F0076B08700784000008003A0319862E73
:100D0A00D92EEC0180306C06F0008030083A70026F
:100D1A000318D92EED0180306D06F0008030083AB4
:100D2A0070020318D72E6C086A028316E2004C265A
:100D3A0070088312EF006D086B028316E2004C26DE
:100D4A00700883126F07F2007208EE000330F10098
:100D5A006C08F00071080319B62EF00D7010FF3EF2
:100D6A00B02EA030F0076D0870078400803072063C
:100D7A00F0008030000670020318D52E0330F1000F
:100D8A006C08F00071080319CE2EF00D7010FF3EAA
:100D9A00C82EA030F0076D08700784006E08800026
:100DAA00ED0A902EEC0A872EEB0A692EEA0A602ECB
:020DBA0008002F
:100DBC008312031360083F3A031DE52EE52F033021
:100DCC00F1006308F00071080319F02EF00D70109B
:100DDC00FF3EEA2E1030F00762087007840000080E
:100DEC00003A031D112F0330F1006308F000710865
:100DFC000319042FF00D7010FF3EFE2E1030F0077B
:100E0C0062087007F10071088400000AF000710894
:100E1C008400700880000330F0006308F400700850
:100E2C0003191C2FF40D7410FF3E162F7408103E7E
:100E3C00F0006208013EF200F3010318F30A0030DF
:100E4C00E21BFF30F3077208700784000008F10002
:100E5C007408A03EF0007208700784000008710747
:100E6C00EE000030F11BFF30EF000318EF0A0030EA
:100E7C00801BFF30EF07FF30EA00FF30EB008030C3
:100E8C00F00080306B067002031D4E2F6A08013C87
:100E9C00031CD22FFF30EC00FF30ED008030F0004F
:100EAC0080306D067002031D5D2F6C08013C031C25
:100EBC00CE2F00306B06031D652F00306A06031D14
:100ECC00702F00306D06031D6D2F00306C06031D56
:100EDC00702FCA2F6A086307F1000030E31BFF3044
:100EEC000318013E6B07F2000330F0007108F400A8
:100EFC007208F50070080319882FF40DF50D7410A5
:100F0C00FF3E812F7408103EF0006C086207F2005F
:100F1C000030E21BFF300318013E6D07F30072082E
:100F2C00700784000008F1007408A03EF0007208FD
:100F3C00700784000008F1070030F11BFF30F2004D
:100F4C000318F20A0030801BFF30F2077108831679
:100F5C00E0007208E10080307206F00080308312ED
:100F6C006F067002031DBC2F6E0871020318CA2F86
:100F7C00831660088312EE00831661088312EF005B
:100F8C006A08E7006C08E600EC0A0319ED0A542F16
:100F9C00EA0A0319EB0A452F670863078316E20078
:100FAC008312660862078316E3001125831203136C
:100FBC0070080319E52F6708E3076608E2070800C5
:100FCC0045268A110A128000840AE40A0319E50AEC
:080FDC00F003031DE62F0800DD
:10100000002183120313E80180306806F00080306D
:10101000083A700203182B28E90180306906F000B5
:101020008030083A7002031829280330F10068085C
:10103000F000710803192028F00D7010FF3E1A28E7
:10104000A030F00769087007840010308000E90ABA
:101050000D28E80A042880306006F00080303F3A0E
:10106000700203183A288A115D268A158A11DE2635
:061070008A152B283A2826
:10120000213084003F3083120313F000C030E4002B
:101210000830E5008A11E6278A15A03084004030A6
:101220000313F0004030E4000830E5008A11E6279F
:101230008A156030840002300313F000F430E400BB
:101240000730E5008A11E6278A15103083178400DD
:1012500040300313F0008030E4000830E5008A11CC
:10126000E6278A1583136230840002300313F000EE
:10127000F230E4000730E5008A11E6278A150800FD
:020FE4000034D7
:020FE6000034D5
:020FE8000034D3
:020FEA000034D1
:1010800000340034003400340034003400340034C0
:1010900000340034003400340034003400340034B0
:1010A00000340034003400340034003400340034A0
:1010B0000034003400340034003400340034003490
:1010C0000034003400340034003400340034003480
:1010D0000034003400340034003400340034003470
:1010E0000034003400340034003400340034003460
:1010F0000034003400340034003400340034003450
:10110000003400340034003400340034003400343F
:10111000003400340034003400340034003400342F
:10112000003400340034003400340034003400341F
:10113000003400340034003400340034003400340F
:1011400000340034003400340034003400340034FF
:1011500000340034003400340034003400340034EF
:1011600000340034003400340034003400340034DF
:1011700000340034003400340034003400340034CF
:021180007F34BA
:02118200013436
:02118400003435
:1011860000340034003400340034003400340034B9
:1011960000340034003400340034003400340034A9
:1011A6000034003400340034003400340034003499
:1011B6000034003400340034003400340034003489
:1011C6000034003400340034003400340034003479
:1011D6000034003400340034003400340034003469
:1011E6000034003400340034003400340034003459
:0811F600003400340034003421
:04400E00F22F000687
:00000001FF
