:040000000A16CE2DE1
:100006007B15FB1F0D280130F300F201F101F00111
:08001600FA0DF20CFF300800A6
:08001E00FA1FF2130030080084
:0E002600F201F101F001F801F30100300800D1
:10003400FB14FB1F2428FF30F300F200F100F00052
:08004400FA0DF20CFF30080078
:10004C00A0017208031D3B287108F2007008F10032
:10005C00F001A0157208031D3B287108F200F10194
:10006C00A01120167208031949282008F302031D59
:10007C00031C4D280310F21B5128F00DF10DF20D4D
:10008C00F30B41284D280130FC001320542802307A
:0E009C00FC00032054280430FC000F20080054
:1000AA0083120313FB01FA01F9018030F800F10C05
:1000BA00F00C031C69287408F90775080318750FF2
:1000CA00FA070318FB0A0310F01F71287408FA07CD
:1000DA0075080318750FFB07FB0CFA0CF90CF80CE2
:1000EA00031C5C287B08F3007A08F2007908F10007
:0600FA007808F000080088
:100100007C18B628FC1887287C19D5288028A001DF
:100110007208031DA7287108F2007008F100780822
:10012000F000F801A0157208031DA7287108F2005D
:100130007008F100F001A01120167208031DA72815
:100140007108F200F101A01572080319C9282008EE
:10015000F302031D031CCD280310F21BB628F80D73
:10016000F00DF10DF20DF30BAD28CD287B1B701CAB
:10017000D128F81FD128F00A0319F10A0319F20A4D
:10018000031DD128F20CF10CF00CF30A0319D52849
:10019000D1280130FC001320D8280230FC000320B5
:1001A000D8280430FC000F20D8280830FC001A2082
:0401B0000000080043
:1001B4008312031372087606A000F801F90173088C
:1001C4007702031CFD287708FD007308F7007D08FB
:1001D400F3007608FD007208F6007D08F200750849
:1001E400FD007108F5007D08F1007408FD00700839
:1001F400F4007D08F0007708031976297208FA00E4
:10020400F217F61777087302F7000319302908303C
:100214007702031C2629F7007408F9007508F40016
:100224007608F500F60108307702031C2629F7004A
:100234007408F9007508F400F50108307702031C0E
:1002440026297A08F2007629770803193029031041
:10025400F60CF50CF40CF90CF70B2929A01F3D2919
:10026400F909F409F509F609F90A0319F40A031955
:10027400F50A0319F60A7908F80774080318740FC5
:10028400F00775080318750FF10776080318760F41
:10029400F207A01B5629031C6629F20CF10CF00C82
:1002A400F80CF30F6629722903186A29F809F00972
:1002B400F109F209F80A0319F00A0319F10A0319FA
:1002C400F20A8030FA066E290130FC008020782979
:1002D4000230FC00802078290430FC002620782994
:1002E4000830FC001A2078290030FC0000000800C7
:1002F400831603131208013EF000F1010318F10AFA
:100304004608F400F50155200630F2007008F400A8
:100314007108F500720803199429F50CF40CF5130F
:10032400FF3E8D290430F1007408F00071080319B0
:100334009F29F00D7010FF3E992930307005F300AD
:100344007408F0007508F100F10CF00CF113F10CD5
:10035400F00CF11370089B000F309D0573089D0489
:0203640008008F
:100366007B14FB1FBE29F201FA1FFF30F200F100D9
:0A037600F000FA0DF20CFF30080051
:10038000831603138710831212150C309D04080086
:10039000831603130711831212150C3097040800FB
:1003A00083120313F801F9011030FC00710DF80DF0
:1003B000F90D7408F8027508031C750FF90203188B
:1003C000E8297408F80775080318750FF907031072
:0A03D000F00DF10DFC0BD62908001A
:0603DA00FB15FF300800D6
:0C03E000831203139B011D129D120800E4
:1003EC00831603131208013EF000F1010318F10A01
:1003FC004608F400F50155200630F2007008F400B0
:10040C007108F50072080319102AF50CF40CF51399
:10041C00FF3E092A0430F1007408F000710803193A
:10042C001B2AF00D7010FF3E152A30307005F300BA
:10043C007408F0007508F100F10CF00CF113F10CDC
:10044C00F00CF113700895000F30970573089704A2
:02045C00080096
:0C045E0083120313950117129712080077
:10046A0083160313871483121211F0309D050800B6
:08047A00C821081488100800D5
:08048200C821081088140800CD
:10048A00831203132308003A031D632A0130A300D1
:10049A008316031709100911861006110313081091
:1004AA008810831212149210F930831692002F22A8
:0E04BA0012149210F93083169200F0210800FF
:1004C800831603134108831224060319772A831617
:1004D80041088312A40083164108C600F62183163A
:0804E8004108C6007A2108005A
:0C04F000831203138030F606DA200800A7
:0E04FC008312031347088A0046088200080096
:10050A0083120313FB017308031D77080319DC2AFE
:10051A0072087606FA007708F3077E30031C992AD8
:10052A00F3020318DF2A9C2AF302031CE22A720848
:10053A00F8007108FC007008FD00F817F6170310A0
:10054A00F201F101F0011830A0007D1CB62A7408EE
:10055A00F00775080318750FF10776080318760F68
:10056A00F207F20CF10CF00CF80CFC0CFD0C031069
:10057A00A00BAA2AF21BC62AF80DF00DF10DF20DF6
:10058A00F3037B1B701CD82AF81FD82AF00A031918
:10059A00F10A0319F20A031DD82AF20CF10CF00C25
:1005AA00F30A0319DF2AFA1FF2130030E42A013092
:1005BA001320E42A02301A20E42A0430032000001F
:0205CA00080027
:0805CC00C0218614061108008D
:1005D400831203137408003A031D052B7508003AAF
:1005E400031D052B7608003A031D052B7708003AF6
:1005F400031D052BFF30F000FF30F1007F30F200C7
:10060400FF30F300A02B8312031377080319942BF4
:1006140073080319972B720876068039FA00F217CB
:10062400F617A0017208F8007108FC007008FD00BC
:100634007408FD027508031C750FFC027608031C80
:10064400760FF802F801FC01FD01031C302B0310A6
:10065400F20CF10CF00CF80C0130A0007708F30256
:10066400031C3A2B7E302007F30703189A2B3F2BE9
:100674007E302007F307031C9D2B1830FA07FD0D6D
:10068400FC0DF80DF00DF10DF20DA00D7408F00243
:100694007508031C750FF1027608031C760FF2022D
:1006A400760DA004201C582B7D14632B7408F007CE
:1006B40075080318750FF10776080318760AF20710
:1006C4007D10FA031F307A05031D412B7B1B7D1C13
:1006D4008A2B0310F00DF10DF20DA00D7408F00239
:1006E4007508031C750FF1027608031C760FF202DD
:1006F400760D20040139FD070318FC0A0319F80AD2
:10070400031D8A2BF80CFC0CFD0CF30A03199A2B1D
:10071400FA1FF8137808F2007C08F1007D08F00055
:1007240000309F2B0130ED219F2B023013209F2B93
:0E07340004301A209F2B08300320000008001C
:1007420083160313071583121211F0309705080060
:1007520083120313FB01FC01F80173080319212C16
:100762007208FA00F2179E30F302F31F112CF309FC
:10077200F30A08307302031CE62BF300F80D70082D
:10078200F8007108F0007208F100F20108307302FB
:10079200031CE62BF300F80D7008F8007108F00056
:1007A200F10108307302031CE62BF300F80D700808
:1007B200F800F00108307302031CE62BF300F80D79
:1007C200F8017308031D0310F02B73080319F02BB3
:1007D2000310F20CF10CF00CF80CF30BE92B7B1B61
:1007E200781CFE2B031CFE2BF80A0319F00A0319CE
:1007F200F10A0319F20AF21B1E2CFA1F212CF2092C
:10080200F109F009F809F80A0319F00A0319F10AC3
:100812000319F20A212CF201F101F001F801212C55
:100822007B14FB1F242CF201FA1F242CF200F1008E
:10083200F000F800FA0DF20C242C0130FC00262CFA
:100842000030FC00262CFF30FC00FC0803192A2C87
:10085200B3217208F3007108F2007008F100780801
:04086200F00008009A
:100866000030831603134102031C4B2C4108033C42
:10087600031C4B2C4108F1000130F00071080319EC
:10088600482CF00D7010FF3E422C70088504692C30
:100896004108043A031D512C8516692C0530410286
:1008A600031C692C4108073C031C692C05304102D6
:1008B600F0007008F1000130F00071080319672C90
:1008C600F00D7010FF3E612C700889044108F1009C
:1008D6000130F00071080319742CF00D7010FF3E02
:1008E6006E2C70080317880403134108F000F00DFE
:1008F6007010F00D70107008C13E83129F0010300A
:10090600FD00FD0B842C00009F149F1C8B2C882C53
:100916001E08F200F301F20DF30D7210F20DF30D45
:1009260072100630F10083161E08F00071080319D4
:10093600A02CF00CF013FF3E9A2C0030F100720848
:0C094600F00773080318013EF1070800D9
:1009520083120313FA017308031D7A147708031D27
:10096200FA147A080319F52C033A0319C02C7A18E1
:10097200BD2CF61FF32CF12CF21FF12CF32C720874
:100982008039FA00F21376088039F6137A060319D1
:10099200CE2C7A080319F12CF32C77087302031971
:1009A200D52C031CE92CED2C760872020319DC2CE1
:1009B200031CE92CED2C750871020319E32C031CAE
:1009C200E92CED2C740870020319F52C0318ED2C98
:1009D200FA080319F32CF12CFA080319F12CF32C61
:1009E200031408000310080003140315080008008C
:1009F200831203137008F8007108F0007208F10006
:100A02007308F200F301FB01FC019E30F300FA01CE
:100A1200F21F172DF809F009F109F209F80A031972
:100A2200F00A0319F10A0319F20AFA170230FC005C
:040A32008020080018
:100A360083120313FB0173080319582D7208FA0079
:100A4600F2178E30F302F31F5B2DF309F30A083019
:100A56007302031C3E2DF300F10D7208F100F20142
:100A660008307302031C3E2DF300F10DF1017308EB
:100A7600031D0310462D73080319462D0310F20CAF
:100A8600F10CF30B412D7B1B711C502D031C502DBB
:100A9600F10A0319F20AF21B672DFA1F6A2DF209F1
:100AA600F109F10A0319F20A6A2DF201F1016A2D20
:100AB6007B14FB1F6D2DF201FA1F6D2DFF30F20026
:100AC600F100FA0DF20C6D2D0130FC006F2D003097
:100AD600FC006F2DFF30FC00FC080319732DB321B9
:0A0AE6007108F0007208F10008002A
:100AF000831203137008F8007108F000F101F2018D
:100B0000F301FB01FC019630F300FA01F01F8E2D7A
:100B1000F809F009F80A0319F00AFA177008F10049
:0C0B20007808F000F801F201262008001F
:100B2C0083160313C401053044020318A42D440892
:100B3C004307840020308000C40A992D44084307E1
:100B4C0084008001C40344084307C5000A30F40044
:100B5C00F5014108F0004208F100D0217808F000BE
:100B6C007908F1003030F0078316450884007008CE
:100B7C0080000A30F400F5014108F0004208F10051
:100B8C00D02170088316C1007108C20000307106B4
:100B9C00031DD22D00307006031DD52DD72DC40397
:040BAC00A92D080067
:080BB000C021861006150800A3
:100BB800831603139818E22D0000DC2D41088312D8
:040BC8009900080088
:100BCC0083160313B701350884000008B6003608F5
:100BDC00003A0319FC2D3608C100DC258316B70A30
:0E0BEC003708350784000008B600ED2D08001C
:100BFA008316031335088312C60083163608831238
:100C0A00C7007E228A110A12F00070080319232EE7
:100C1A00831635088312C600831636088312C70066
:100C2A007E228A110A12F00083163708840070089F
:100C3A008000B70AB50A0319B60AFD2D83163708CC
:060C4A0084008001080097
:100C500083160313BA01BB013508BC003608BD007A
:100C600080303606F00080307002031D392E0030CF
:100C700035020318472E0130BA000030BB0035089A
:100C8000003CBC003608031C013EBD01BD023C080F
:100C9000C1003D08C2003708C30096250630B800E1
:100CA0000030B9003908003C031D582E3808003CBC
:100CB0000318732E38083707F20001303802F000AD
:100CC0000030031C013E3902F10070083707840030
:100CD0000008F00072088400700880000130B8023B
:100CE000031CB903522E37088400203080003A08D4
:100CF0003B040319912EB801B90138083707840065
:100D00000008203A031D882EB80A0319B90A7D2E5F
:100D10000130B802031CB9033808370784002D30AE
:040D20008000080047
:0E0D24000030831203138C1A0130F000080017
:100D3200831203131A08F100981CA12E1812181618
:060D42007108F00008003A
:100D4800643083160313B5000030B600B701B8014C
:100D58000230C10033248312031370088316B700CE
:100D68007108B8008030F200803071067202031DED
:100D7800BF2E70085A3C0318E92E05303707F000DB
:100D880038080318013EF10078257008F40071084E
:100D9800F5007208F6007308F7000030F000203004
:100DA800F1003630F2008A30F300EA220030F40015
:100DB8000030F5000030F6007F30F70078221B2560
:100DC80070088316B5007108B6003508F0003608BB
:040DD800F10008001E
:100DDC00831603133B08F0003C08F100F00DF10DF5
:100DEC007010F00DF10D70103908F0073A08031867
:100DFC00013EF10770088312C6007108C7007E22FD
:100E0C008A110A128316BD008312C60A0319C70A77
:100E1C007E228A110A128316BE008312C60A031997
:100E2C00C70A7E228A110A128316BF008312C60AD1
:100E3C000319C70A7E228A110A128316C0003B08C6
:100E4C003C040319782F3508F0003608F1003708F8
:100E5C00F2003808F3003D08F4003E08F5003F08A6
:100E6C00F6004008F700852201308316BB02031CF4
:100E7C00BC033B08F4003C08F500F40DF50D7410B0
:100E8C00F40DF50D74103908F4073A080318013EF7
:100E9C00F50774088312C6007508C7007E228A11F4
:100EAC000A12F400C60A0319C70A7E228A110A1212
:100EBC00F500C60A0319C70A7E228A110A12F60027
:100ECC00C60A0319C70A7E228A110A12F700DA2011
:100EDC0070088316BD007108BE007208BF0073084D
:100EEC00C000252F3D08F0003E08F1003F08F2003D
:060EFC004008F3000800AD
:100F0200452283163508C10064223D22D8250800F7
:100F1200831603133608F000B60A7008840000082E
:100F22000319942F892FB60335088400000803198A
:100F3200A52F350884000008F000360884007008E8
:100F42008000B60AB50A952F360884008001080091
:100F5200452283163508C10064224122E622080098
:100F620083160313C1016422A123081088103522BD
:080F720086100611A30108001E
:100F7A00831603132D082F06031DC52F2E082C06D2
:100F8A00031DC92FF001DA2F80302F06F0008030C0
:100F9A002D067002031DD32F2C082E020318D82FFA
:0C0FAA000130F000DA2FFF30F0000800EA
:100FB600013083160313C100332483120313700810
:100FC6008316AC008030003AF20080307006720260
:100FD6000318F82F80302C06F0008030323A700269
:0E0FE6000318F82F0130F000F92FF001080079
:10100000831603133808F000F101F201F301FF30F9
:10101000F0050030F1057008BD007108BE007F309A
:101020007002F2000030031C013E7102F3007208EE
:10103000BD007308BE0080307306F000803070027F
:10104000031D24280030720203184A28F401F50118
:10105000F601F7013508F0003608F1003708F20014
:101060003808F3008A11A9248A15013003180030CA
:10107000F0007008031945280030F0000030F1003E
:101080008030F2007F30F300AB28F001F101F20173
:10109000F301AB2883163E08003C031D51283D0890
:1010A000183C03185C283508F0003608F1003708B2
:1010B000F2003808F300AB283508F0003608F100DC
:1010C0003708F2003808F3008A11A9238A158A111B
:1010D000F9248A1570088316B9007108BA007208DD
:1010E000BB007308BC007008F4007108F5007208BA
:1010F000F6007308F7003508F0003608F1003708ED
:10110000F2003808F3008A11A9248A150130031867
:101110000030F00070080319A2280030F4000030FD
:10112000F5000030F6007F30F70083163908F00034
:101130003A08F1003B08F2003C08F3008A117822DB
:101140008A15AB2883163908F0003A08F1003B08ED
:08115000F2003C08F300080066
:10115800710DF80DF90D7408F8027508031C750F68
:10116800F902F00DF10D0F30FC00710DF80DF90DBD
:101178007408701CC528F8027508031C750FF9025D
:10118800CA28F80775080318750FF907F00DF10D4F
:10119800FC0BB9287018D6287408F80775080318C6
:0811A800750FF90700000800B3
:1011B000831603132C08B5002D08B6004830B7007D
:1011C0008A11FD258A152E08B5002F08B600373084
:1011D000B7008A1128268A153330B5004830B6008A
:1011E0008A1189278A153730B5004830B6008A1130
:1011F00089278A153008B5003108B6003730B700A6
:101200008A1128268A153730B5004830B6008A1171
:1012100089278A154430B5004830B6008A118927DD
:101220008A153D30B5004830B6008A1189278A15E5
:101230004830B5008A11E6258A158A1192268A154A
:101240007008031929298A1199268A150030F1009E
:061250002A291D290800F7
:10125600643083160313AC000030AD00AE01AF015D
:101266000330C1008A1133248A15831203137008D0
:101276008316AE007108AF008030F2008030710630
:101286007202031D482970085A3C03187A29053052
:101296002E07F0002F080318013EF1008A11782569
:1012A6008A157008F4007108F5007208F6007308D4
:1012B600F7000030F0002030F1003630F2008A30BE
:1012C600F3008A11EA228A150030F4000030F50096
:1012D6000030F6007F30F7008A1178228A158A11CD
:1012E6001B258A1570088316AC007108AD002C0802
:0812F600F0002D08F1000800D2
:1012FE008A11A4268A157008AC004030B5008A11F8
:10130E0081278A158A11A4268A157008AD002C082B
:10131E007006031D97294030B5008A11A9278A153A
:10132E00803083162D06F00080302C0670020318D4
:10133E00A129B12980302C06F00080302D067002D4
:10134E000318AE298030B5008A11A9278A158A1193
:06135E00B1278A1508000A
:1013640083160313B401F401F501F601F7012C0807
:10137400F0002D08F1002E08F2002F08F3008A1166
:10138400A9248A15013003180030F00070080319ED
:10139400D62900308316AC060030AD068030AE0688
:1013A4000030AF060130B40083162C08F0002D087D
:1013B400F1002E08F2002F08F3008330F400F93016
:1013C400F5002230F6007C30F7008A1185228A1558
:1013D40070088316AC007108AD007208AE00730883
:1013E400AF007008B5007108B6007208B700730842
:1013F400B8000020831203137008F4007108F5008C
:101404007208F6007308F70083162C08F0002D0804
:10141400F1002E08F2002F08F3008A1178228A15B1
:101424000030F4000030F5000030F6008130F700A1
:101434008A1185228A1570088316AC007108AD00E4
:101444007208AE007308AF007008F4007108F5006C
:101454007208F6007308F7000030F0000030F10065
:101464000030F2008030F3008A11A9248A1501307B
:1014740003180030F00070080319622A0030F400E9
:101484000030F5000030F6008030F70083162C0899
:10149400F0002D08F1002E08F2002F08F3008A1145
:1014A40078228A1570088316AC007108AD007208A2
:1014B400AE007308AF0034080130031D0030B400DF
:1014C40083162C08F4002D08F5002E08F6002F08CA
:1014D400F7000030F0000030F1000030F2007F30FF
:1014E400F3008A11A9248A15013003180030F00092
:1014F400700803199A2A83162C08F4002D08F500A5
:101504002E08F6002F08F7000030F0000030F1003C
:101514000030F2008030F3008A1178228A157008B6
:101524008316AC007108AD007208AE007308AF00FA
:1015340083162C08F0002D08F1002E08F2002F0865
:10154400F3002C08F4002D08F5002E08F6002F08EF
:10155400F7008A1185228A1570088316B000710875
:10156400B1007208B2007308B3007008B5007108C6
:10157400B6007208B7007308B8001030B90017300D
:10158400BA000430BB000030BC008A11EE268A1574
:101594002C08F4002D08F5002E08F6002F08F7009B
:1015A4008A1185228A1570088316AC007108AD0073
:1015B4007208AE007308AF003008B5003108B600F9
:1015C4003208B7003308B8002430B9001730BA0025
:1015D4000330BB000030BC008A11EE268A15700867
:1015E400F4007108F5007208F6007308F7002C087F
:1015F400F0002D08F1002E08F2002F08F3008A11E4
:10160400EA228A1570088316AC007108AD007208CE
:10161400AE007308AF00340803191D2B00302C06EC
:10162400F00000302D06F10080302E06F20000306C
:101634002F06F300252B2C08F0002D08F1002E08AE
:08164400F2002F08F30008007A
:10164C00831603132C08B5002D08B6004830B700DC
:10165C008A11FD258A152E08B5002F08B6003730E3
:10166C00B7008A1128268A152730B5004830B600F5
:10167C008A1189278A153730B5004830B6008A118F
:10168C0089278A153008B5003108B6003730B70005
:10169C008A1128268A153730B5004830B6008A11D1
:1016AC0089278A153208B5003308B6003730B700E1
:1016BC008A1128268A153730B5004830B6008A11B1
:1016CC0089278A153130B5004830B6008A11892730
:1016DC008A154830B5008A11E6258A158A1192269A
:1016EC008A15700803197E2B8A1199268A157F2B6F
:0416FC00742B080043
:10170000013083120313EE000130EF000130831625
:10171000A800A901AA01AB01831221088316AC001D
:10172000831222088316AD002408AE002508AF00FE
:101730008A11BD278A1570088312EF0025088316C9
:10174000AC00831226088316AD002608AE002708D9
:10175000AF008A11BD278A157008A80083126F0890
:10176000FF3A031DB82B83162808033E8312EE00B0
:101770006F08003A031DD62BC92B83120130EE00EF
:10178000D62B83120930EE00D62B83120530EE00E3
:10179000D62B83162808FF3A0319BD2B2808003AD8
:1017A0000319C12B2808013A0319C52B83126F08AE
:1017B000013A031DE02B83162808073C8312EE0034
:1017C0008A11A4268A157008A9007108AA002B2185
:1017D0005E30AC001730AD007008AE007108AF008D
:1017E0002908B0002A08B100D820972E8A11A42613
:1017F0008A158030F200803071067202031D022CBF
:101800007008023C0318272C8A1145228A15FF30E4
:101810008316C1008A1164228A158A1141228A1511
:101820008A11D8258A150430FB009B30FC000F304C
:10183000FD00FD0B192CFC0B192CFB0B192C8A112C
:10184000B1278A157F21013083160313AB00DF2EE9
:101850008A11A4268A158030F20080307106720247
:10186000031D342C7008023C03188A2C2B21803075
:10187000F200803071067202031D402C7008023C99
:1018800003188A2CFF30B5008A11A9278A15033066
:10189000FB007030FC005C30FD00FD0B4D2CFC0BA0
:1018A0004D2CFB0B4D2C00008A1145228A15FF3070
:1018B0008316C1008A1164228A158A1141228A1571
:1018C0008A11D8258A150430FB009B30FC000F30AC
:1018D000FD00FD0B692CFC0B692CFB0B692C8A119C
:1018E000B1278A15FF308316B5008A1181278A1522
:1018F0000330FB007030FC005C30FD00FD0B7E2CE3
:10190000FC0B7E2CFB0B7E2C00007F21013083160C
:101910000313AB00DF2E2B218030F20080307106E4
:101920007202031D952C7008023C0318002D8A11C9
:1019300045228A15FF308316C1008A1164228A1558
:101940008A113D228A158A11E6228A150430FB008D
:101950009B30FC000F30FD00FD0BAC2CFC0BAC2CC5
:10196000FB0BAC2C8A11B1278A15FF308316B5000A
:101970008A11A9278A150330FB007030FC005C3007
:10198000FD00FD0BC12CFC0BC12CFB0BC12C00007E
:101990008A1145228A15FF308316C1008A116422FC
:1019A0008A158A1141228A158A11D8258A1506308E
:1019B000FB006830FC001730FD00FD0BDD2CFC0B3C
:1019C000DD2CFB0BDD2C000000008A11B1278A15ED
:1019D000FF308316B5008A1181278A150330FB007A
:1019E0007030FC005C30FD00FD0BF42CFC0BF42C83
:1019F000FB0BF42C00007F21013083160313AB0096
:101A0000DF2E2B218030F200803071067202031D20
:101A10000B2D7008023C0318552DFF30B5008A11BC
:101A200081278A150330FB007030FC005C30FD001C
:101A3000FD0B182DFC0B182DFB0B182D00008A1127
:101A400045228A15FF308316C1008A1164228A1547
:101A50008A113D228A158A11E6228A150430FB007C
:101A60009B30FC000F30FD00FD0B342DFC0B342DA2
:101A7000FB0B342D8A11B1278A15FF308316B50070
:101A80008A11A9278A150330FB007030FC005C30F6
:101A9000FD00FD0B492DFC0B492DFB0B492D0000D2
:101AA0007F21013083160313AB00DF2E8A114522FC
:101AB0008A15FF308316C1008A1164228A158A11A3
:101AC0003D228A158A11E6228A150430FB009B30DC
:101AD000FC000F30FD00FD0B6B2DFC0B6B2DFB0B89
:101AE0006B2D8A11B1278A158A1145228A157F210B
:101AF000013083160313AB00DF2E8316FF30B500D1
:101B00008A11A9278A150330FB007030FC005C3075
:101B1000FD00FD0B892DFC0B892DFB0B892D000091
:101B20008A1145228A15FF308316C1008A1164226A
:101B30008A158A113D228A158A11E6228A150430F7
:101B4000FB009B30FC000F30FD00FD0BA52DFC0BB6
:101B5000A52DFB0BA52D8A11B1278A15FF30831601
:101B6000B5008A1181278A150330FB007030FC0014
:101B70005C30FD00FD0BBA2DFC0BBA2DFB0BBA2D12
:101B800000007F21013083160313AB00DF2E8A1182
:101B900045228A15FF308316C1008A1164228A15F6
:101BA0008A113D228A158A11E6228A150430FB002B
:101BB0009B30FC000F30FD00FD0BDC2DFC0BDC2D01
:101BC000FB0BDC2D8A11B1278A15FF308316B50077
:101BD0008A1181278A150330FB007030FC005C30CD
:101BE000FD00FD0BF12DFC0BF12DFB0BF12D000089
:101BF0008A1145228A15FF308316C1008A1164229A
:101C00008A158A1141228A158A11D8258A1506302B
:101C1000FB006830FC001730FD00FD0B0D2EFC0BA7
:101C20000D2EFB0B0D2E000000008A11B1278A1526
:101C3000FF308316B5008A11A9278A150330FB00EF
:101C40007030FC005C30FD00FD0B242EFC0B242EBC
:101C5000FB0B242E00007F21013083160313AB0001
:101C6000DF2E8A11A4268A158030F200803071069A
:101C70007202031D3D2E7008023C0318872EFF30B0
:101C8000B5008A1181278A150330FB007030FC00F3
:101C90005C30FD00FD0B4A2EFC0B4A2EFB0B4A2E3E
:101CA00000008A1145228A15FF308316C1008A116F
:101CB00064228A158A1141228A158A11D8258A152B
:101CC0000430FB009B30FC000F30FD00FD0B662E46
:101CD000FC0B662EFB0B662E8A11B1278A15FF308E
:101CE0008316B5008A11A9278A150330FB007030CE
:101CF000FC005C30FD00FD0B7B2EFC0B7B2EFB0BF8
:101D00007B2E00007F21013083160313AB00DF2EF2
:101D100083166530AC001730AD000130AE000030E6
:101D2000AF000130B0000030B100D820DF2E6E08C7
:101D3000013A0319F62B6E08013A0319F62B6E08C7
:101D4000023A0319282C6E08023A0319282C6E084F
:101D5000033A03198B2C6E08033A03198B2C6E0877
:101D6000043A0319012D6E08043A0319012D6E0877
:101D7000053A0319562D6E08053A0319562D6E08BB
:101D8000063A03197D2D6E08063A03197D2D6E085B
:101D9000073A0319C72D6E08073A0319C72D6E08B5
:101DA000083A0319312E6E08083A0319312E6E08CD
:101DB000093A0319882E6E08093A0319882E8A11E8
:101DC000DB278A1570080319F92E2B080319F92E41
:101DD0005030AC001730AD002408AE002508AF002D
:101DE0002608B0002708B1000130B2000030B3006F
:0A1DF000262383162B08F0000800DC
:101DFA00831203137008F100F0010830FC00710827
:101E0A00F40C03180C2FFC0B052FF10100340310FE
:101E1A00112FF40C0318F107F10CF00CFC0B0E2F28
:021E2A000800AE
:101E2C00831203137408003A031D252F7508003A1A
:101E3C00031D252FFF30F0007F30F1007E2F831221
:101E4C000313FD01F901F801710870040319003442
:101E5C0071087506FA00FA1BFD09FB01F51F3B2FF3
:101E6C00F409F509F40A0319F50AF11F422FF009D8
:101E7C00F109F00A0319F10A71087504FA00FA1B4A
:101E8C00572FAC207B186A2FFD1F0034F009F10985
:101E9C00F00A0319F10AF809F909F80A0319F90A01
:101EAC000034F51F662FF11B622F7108F9007008C2
:101EBC00F800F101F0014A2FF101F001F00A0034B1
:101ECC00F109F009FB0A472FF80A0319F90A7408FB
:101EDC007802031D4A2F75087902031D4A2FF90158
:101EEC00F801F00A0319F10AF11F4A2F0000FF3420
:021EFC000800DC
:101EFE00831603132408F4002508F5002608F600BF
:101F0E002708F700DB30F0000F30F1004930F20007
:101F1E008030F3008A11A9248A150130031800308D
:101F2E00F00070080319BA2FE430F400CB30F5003E
:101F3E001630F6008130F70083162408F0002508CD
:101F4E00F1002608F2002708F3008A1178228A157C
:101F5E0070088316AC007108AD007208AE007308ED
:101F6E00AF00B221D82F83162408F0002508F10007
:101F7E002608F2002708F300DB30F4000F30F500DE
:101F8E004930F6007F30F7008A11DA208A15700882
:101F9E008316AC007108AD007208AE007308AF0076
:041FAE00B221080054
:101FB200831603139816903083129800831687179E
:101FC200071383128C1EE82F1A08F000E22F080074
:101FD2008A117E228A150A128000840AC60A03190F
:0A1FE200C70AF003031DE92F0800F1
:1020000083120313FD01F8017008031900347406EC
:10201000FA00FA1BFD09FB01F41F1028F409F40A69
:10202000F01F1428F009F00A70087404FA00FA1B73
:1020300038287408F802F00D700DF80D7408F807D0
:10204000F00D0630FC00700DF80D74087018F802E1
:10205000701CF807F00DFC0B2328701CF8077B1888
:102060004628FD1F0034F009F00AF809F80A003488
:10207000F41F4328F01B40287008F800F0013128B5
:10208000F001F00A0034F009FB0A1928F80A740874
:102090007802031D3128F801F00AF01F3128FF34BF
:0220A000080036
:1020A20083120313E701E80157308316AC0017309F
:1020B200AD00831221088316AE0083122208831614
:1020C200AF00831225088316B000831226088316F8
:1020D200B1008A150A12D8208A110A167008E70080
:1020E2007108E8007A308316AC001730AD00831215
:1020F20021088316AE00831222088316AF008312D2
:1021020025088316B000831226088316B100F00A50
:102112000319F10A70088312E7007108E8007008D9
:102122008316B2007108B3008A150A1226238A1197
:102132000A1681308316AC001730AD0083122108D5
:102142008316AE00831222088316AF00831225087D
:102152008316B000831226088316B1008A150A126C
:10216200D8208A110A167008BC006C308316AC00A5
:102172001730AD00831221088316AE0083122208A5
:102182008316AF00831225088316B0008312260837
:102192008316B1008A150A12D8208A110A1670080D
:1021A200AC002B08013A031DD6282B08053A031D63
:1021B200E5282C08F000FF30F4008A150A12FD26EB
:1021C2008A110A167008AC002B08073A031DF4287E
:1021D2003C08E7000030E71BFF30E8002C08BC0099
:1021E2006708003CAC002B08033A031D03293C0896
:1021F200E7000030E71BFF30E8002C08BC0067084E
:10220200003CAC003C0821078316A400831222087C
:102212000318013E8316A50000308312BC1BFF3059
:102222008316A50783122C0825078316A60083129E
:1022320026080318013E8316A70000308312AC1B48
:10224200FF308316A7078A150A1280238A110A16FD
:10225200700803193D2983123C08A1070318A20A3A
:102262000030BC1BFF30A2072C08A5070318A60AE2
:0A2272000030AC1BFF30A607080087
:10227C0083120313E901EA01EB01EC01ED0168089B
:10228C006702F1007108ED008030043AF0008030F4
:10229C0071067002031855296D08083CED0080305A
:1022AC006D06F0008030003A7002031C852BFF3065
:1022BC008316B5000A12A9270A168030003AF000DE
:1022CC0080306D0670020318842B0830FB004F30F1
:1022DC00FC001930FD00FD0B7129FC0B7129FB0B67
:1022EC007129000000000230F4006D08F00000209D
:1022FC007808F0007008013A031D8529822B722B97
:10230C0078308316A400F330A500EC30A6007D30A5
:10231C00A7008A150A127F278A110A16A030F4002A
:10232C001A30F5000F30F6008130F7000A128522C2
:10233C000A1670088316A0007108A1007208A2008A
:10234C007308A30083122108F0002208F1000A127E
:10235C0078250A1683162008F4002108F5002208B7
:10236C00F6002308F7000A12DA200A160A121B25B7
:10237C000A167008E9007108EA0078308316AC0080
:10238C00F330AD00EC30AE007D30AF008A150A1290
:10239C00B2218A110A16A030F4001A30F5000F3061
:1023AC00F6008130F7000A1285220A16700883168F
:1023BC00A0007108A1007208A2007308A300831288
:1023CC002508F0002608F1000A1278250A16831653
:1023DC002008F4002108F5002208F6002308F70075
:1023EC000A12DA200A160A121B250A167008EB00CC
:1023FC007108EC00822B60308316A4007130A500AC
:10240C002B30A6008030A7008A150A127F278A116C
:10241C000A16A030F4001A30F5000F30F6008130A7
:10242C00F7000A1285220A1670088316A00071089C
:10243C00A1007208A2007308A30083122108F00007
:10244C002208F1000A1278250A1683162008F400D7
:10245C002108F5002208F6002308F7000A12DA20FA
:10246C000A160A121B250A167008E9007108EA0000
:10247C0060308316AC007130AD002B30AE00803074
:10248C00AF008A150A12B2218A110A16A030F40084
:10249C001A30F5000F30F6008130F7000A12852251
:1024AC000A1670088316A0007108A1007208A20019
:1024BC007308A30083122508F0002608F1000A1205
:1024CC0078250A1683162008F4002108F500220846
:1024DC00F6002308F7000A12DA200A160A121B2546
:1024EC000A167008EB007108EC00822B573083162B
:1024FC00A4002630A5008230A6008030A7008A15E3
:10250C000A127F278A110A16A030F4001A30F5003F
:10251C000F30F6008130F7000A1285220A16700877
:10252C008316A0007108A1007208A2007308A30012
:10253C0083122108F0002208F1000A1278250A16ED
:10254C0083162008F4002108F5002208F600230861
:10255C00F7000A12DA200A160A121B250A1670084E
:10256C00E9007108EA0057308316AC002630AD0044
:10257C008230AE008030AF008A150A12B2218A1167
:10258C000A16A030F4001A30F5000F30F600813036
:10259C00F7000A1285220A1670088316A00071082B
:1025AC00A1007208A2007308A30083122508F00092
:1025BC002608F1000A1278250A1683162008F40062
:1025CC002108F5002208F6002308F7000A12DA2089
:1025DC000A160A121B250A167008EB007108EC008B
:1025EC00822BF2308316A400D230A5000D30A60049
:1025FC007F30A7008A150A127F278A110A16A0308D
:10260C00F4001A30F5000F30F6008130F7000A1292
:10261C0085220A1670088316A0007108A1007208A2
:10262C00A2007308A30083122108F0002208F10015
:10263C000A1278250A1683162008F4002108F500E2
:10264C002208F6002308F7000A12DA200A160A12EA
:10265C001B250A167008E9007108EA00F23083168F
:10266C00AC00D230AD000D30AE007F30AF008A151B
:10267C000A12B2218A110A16A030F4001A30F500A1
:10268C000F30F6008130F7000A1285220A16700806
:10269C008316A0007108A1007208A2007308A300A1
:1026AC0083122508F0002608F1000A1278250A1674
:1026BC0083162008F4002108F5002208F6002308F0
:1026CC00F7000A12DA200A160A121B250A167008DD
:1026DC00EB007108EC00822B2B08013A03198629B8
:1026EC002B08053A0319012A2B08033A03197C2AF3
:1026FC002B08073A0319F72AED036329C02DFF3085
:10270C008316B5000A1281270A1680306D06F00078
:10271C008030003A70020318C02D0830FB004F3097
:10272C00FC001930FD00FD0B992BFC0B992BFB0BBE
:10273C00992B000000006D08003CF000F101031C17
:10274C00F1030130ED1F0030F1070230F4000030CE
:10275C00F5008A150A1216278A110A167808F00055
:10276C007908F10000307106031DBE2B0130700694
:10277C00031DC12BBE2DAE2D61308316A40071300C
:10278C00A5002B30A6008030A7008A150A127F27DF
:10279C008A110A16A030F4001A30F5000F30F6003A
:1027AC008130F7000A1285220A1670088316A000E1
:1027BC007108A1007208A2007308A30083122108FB
:1027CC00F0002208F1000A1278250A168316200858
:1027DC00F4002108F5002208F6002308F7000A127D
:1027EC00DA200A160A121B250A167008E90071086D
:1027FC00EA0061308316AC007130AD002B30AE00B6
:10280C008030AF008A150A12B2218A110A16A03044
:10281C00F4001A30F5000F30F6008130F7000A1280
:10282C0085220A1670088316A0007108A100720890
:10283C00A2007308A30083122508F0002608F100FB
:10284C000A1278250A1683162008F4002108F500D0
:10285C002208F6002308F7000A12DA200A160A12D8
:10286C001B250A167008EB007108EC00BE2D983081
:10287C008316A4004030A5003A30A6008130A70092
:10288C008A150A127F278A110A16A030F4001A3012
:10289C00F5000F30F6008130F7000A1285220A1677
:1028AC0070088316A0007108A1007208A2007308BA
:1028BC00A30083122108F0002208F1000A127825E7
:1028CC000A1683162008F4002108F5002208F600E9
:1028DC002308F7000A12DA200A160A121B250A1618
:1028EC007008E9007108EA0098308316AC0040309B
:1028FC00AD003A30AE008130AF008A150A12B22119
:10290C008A110A16A030F4001A30F5000F30F600C8
:10291C008130F7000A1285220A1670088316A0006F
:10292C007108A1007208A2007308A3008312250885
:10293C00F0002608F1000A1278250A1683162008E2
:10294C00F4002108F5002208F6002308F7000A120B
:10295C00DA200A160A121B250A167008EB007108F9
:10296C00EC00BE2DF2308316A400D230A5000D3041
:10297C00A6007F30A7008A150A127F278A110A1633
:10298C00A030F4001A30F5000F30F6008130F7005B
:10299C000A1285220A1670088316A0007108A1007D
:1029AC007208A2007308A30083122108F000220809
:1029BC00F1000A1278250A1683162008F400210863
:1029CC00F5002208F6002308F7000A12DA200A168E
:1029DC000A121B250A167008E9007108EA00F23089
:1029EC008316AC00D230AD000D30AE007F30AF009E
:1029FC008A150A12B2218A110A16A030F4001A3074
:102A0C00F5000F30F6008130F7000A1285220A1605
:102A1C0070088316A0007108A1007208A200730848
:102A2C00A30083122508F0002608F1000A1278256D
:102A3C000A1683162008F4002108F5002208F60077
:102A4C002308F7000A12DA200A160A121B250A16A6
:102A5C007008EB007108EC00BE2DA4308316A400A6
:102A6C00FC30A5000730A6008130A7008A150A1299
:102A7C007F278A110A16A030F4001A30F5000F30A7
:102A8C00F6008130F7000A1285220A1670088316A8
:102A9C00A0007108A1007208A2007308A3008312A1
:102AAC002108F0002208F1000A1278250A16831674
:102ABC002008F4002108F5002208F6002308F7008E
:102ACC000A12DA200A160A121B250A167008E900E7
:102ADC007108EA00A4308316AC00FC30AD0007305E
:102AEC00AE008130AF008A150A12B2218A110A1683
:102AFC00A030F4001A30F5000F30F6008130F700EA
:102B0C000A1285220A1670088316A0007108A1000B
:102B1C007208A2007308A30083122508F00026088F
:102B2C00F1000A1278250A1683162008F4002108F1
:102B3C00F5002208F6002308F7000A12DA200A161C
:102B4C000A121B250A167008EB007108EC00BE2D4A
:102B5C002B08013A0319C22B2B08053A03193D2CFB
:102B6C002B08033A0319B82C2B08073A0319332DF9
:102B7C00ED0A8B2B0A12B1270A166808AB006908FC
:102B8C00A1006A08A2006B08A5006C08A60008004A
:102B9C00882783120313E501E6018130831699001F
:102BAC0018158A150A12D9278A110A16733083163A
:102BBC00AC001730AD000130AE000030AF0001307A
:102BCC00B0000030B1008A150A12D8208A110A16FA
:102BDC0000307106031DF42D0D3070060319052EFF
:102BEC000330FB008A30FC005530FD00FD0BFC2D42
:102BFC00FC0BFC2DFB0BFC2D00000000DC2D05302C
:102C0C00AB008A150A122B218A110A16700883123E
:102C1C00A1007108A200A20CA10CA213221BA217E6
:102C2C000A12A4260A167008F2007108F300F30CBD
:102C3C00F20CF313731BF31772088312A5007308BD
:102C4C00A60034308316AC001730AD008312210877
:102C5C008316AE00831222088316AF007208B000F0
:102C6C007308B1008A150A12D8208A110A162B088B
:102C7C00E7000130E8003E218A150A122B218A1147
:102C8C000A167008F2007108F300F30CF20CF3133F
:102C9C00731BF317720883122107AF002208031865
:102CAC00013E7307B0000A12A4260A167008F2003F
:102CBC007108F300F30CF20CF313731BF317720887
:102CCC0083122507AD0026080318013E7307AE00DA
:102CDC000A12A4260A1670088312E5007108E60091
:102CEC008A150A122B218A110A16F630AC000F3005
:102CFC00AD007008AE007108AF0083126508831632
:102D0C00B000831266088316B1008A150A12D82007
:102D1C008A110A163B308316AC001730AD008312B3
:102D2C002F088316AE00831230088316AF0083126F
:102D3C002D088316B00083122E088316B1000130C3
:102D4C00B2000030B3008A150A1226238A110A1623
:102D5C0049308316AC001730AD008312210883165E
:102D6C00AE00831222088316AF0083122508831647
:102D7C00B000831226088316B1008A150A12D820D7
:102D8C008A110A16031342308316AC001730AD00BB
:102D9C000130AE000030AF000130B0000030B100A7
:102DAC008A150A12D8208A110A1600307106031DE2
:102DBC00E12E0D3070060319E52E5120C82EE52E9C
:102F100021308400253083120313F000EB30C6000B
:102F20001630C7008A150A12E9278A110A16080006
:0E1FEC00693473345334613466346534003420
:042DD6000034003491
:022DDA000034C3
:022DDC007F3442
:042DDE000034003489
:082DE200203473342034003466
:022DEA000134B2
:022DEC000034B1
:042DEE000034003479
:042DF2000034003475
:042DF6002034003451
:082DFA0020346734203400345A
:0A2E020000340034003400340034C2
:022E0C00003490
:0E2E0E0020342034203420343034203400347A
:042E1C00203400342A
:102E2000EC34F3344A3490343534953495348F345B
:102E30001734C1345C348B34FD34DB34ED348634E8
:082E40007234B33433348034E2
:102E48002B343434013490347F349D3430348B3413
:102E5800E734FF34593485340034003400347F3487
:0E2E6800483469346E3474342034203400341D
:0E2E76006D346134783420342034203400343C
:0E2E84006A346234733464346E34653400345E
:0E2E9200483469346E347434203420340034F3
:0E2EA0004D346534743461346C346C34003459
:0E2EAE00483469346E347434203420340034D7
:0E2EBC00693473345334613466346534003441
:0E2ECA007A34653472346F346434203400344A
:0E2ED800433461346C346334323420340034BB
:0E2EE600733474346134723474342034003424
:0E2EF400483469346E34743420342034003491
:0E2F0200433461346C346334203420340034A2
:04400E00F22F000687
:00000001FF
