:02000000C6290F
:1000060083120313F801F9011030FC00710DF80D8D
:10001600F90D7408F8027508031C750FF902031828
:100026001B287408F80775080318750FF9070310DD
:0A003600F00DF10DFC0B0928080085
:1000400083160313981826280000202883124808D6
:04005000990008000B
:0E0054008312031326088A0025088200080084
:1000620083120313CB0105304B0203183F284B08C0
:100072004A07840020308000CB0A34284B084A0704
:1000820084008001CB034B084A07CC000A30F400FD
:10009200F5014808F0004908F10003207808F00053
:1000A2007908F1003030F0074C08840070088000B5
:1000B2000A30F400F5014808F0004908F100032075
:1000C2007008C8007108C90000307106031D6B2852
:1000D20000307006031D6E287028CB0344280800E8
:1000E200831203131A08F100981C792818121816A3
:0600F2007108F000080097
:1000F800831203133F08A5004008A6002A208A118E
:100108000A12F000700803199A283F08A500400851
:10011800A6002A208A110A12F000410884007008FB
:100128008000C10ABF0A0319C00A7C28410884005C
:04013800800108003A
:10013C0083120313C401C5013F08C6004008C70061
:10014C0080304006F00080307002031DAF28003074
:10015C003F020318BD280130C4000030C5003F0821
:10016C00003CC6004008031C013EC701C7024608FC
:10017C00C8004708C9004108CA0031200630C20037
:10018C000030C3004308003C031DCE284208003C4D
:10019C000318E92842084107F20001304202F0003E
:1001AC000030031C013E4302F1007008410784003B
:1001BC000008F00072088400700880000130C20250
:1001CC00031CC303C8284108840020308000440865
:1001DC00450403190729C201C301420841078400E1
:1001EC000008203A031DFE28C20A0319C30AF3288B
:1001FC000130C202031CC3034208410784002D30A6
:04020C008000080066
:0E0210000030831203138C1A0130F000080036
:10021E00831203134008F000C00A7008840000081F
:10022E0003191A290F29C0033F0884000008031977
:10023E002B293F0884000008F00040088400700855
:10024E008000C00ABF0A1B294008840080010800F4
:10025E0083120313C1013F0884000008C000400848
:10026E00003A031944294008C8002020C10A410859
:0C027E003F0784000008C000362908007B
:10028A00831203133708BF003808C0002730C100A3
:10029A007C203908BF003A08C0002030C1009E20E7
:1002AA002030BF002730C0000F213B08BF003C08A8
:1002BA00C0002030C1009E202030BF002730C0007F
:1002CA000F213D08BF003E08C0002030C1009E201B
:1002DA002030BF002730C0000F212730BF002F2158
:0202EA0008000A
:1002EC00831203133708BF003808C0002730C10041
:1002FC007C203908BF003A08C0002030C1009E2085
:10030C002030BF002730C0000F213B08BF003C0845
:10031C00C0002030C1009E202030BF002730C0001C
:10032C000F212730BF002F21082170080319A8299D
:10033C0071207008BD007008C80020203D08F00036
:08034C00F101A9299A2908001A
:100354008316031398169030831298008316871718
:10036400071383128C1EB9291A08F000B329080058
:100374002A208A110A128000840AA50A0319A60AEF
:08038400F003031DBA29080073
:10038C0083120313A001A101A201A301A4018130D6
:10039C00831699001815AA21F530B7000130B80062
:1003AC000530B9000030BA00FA30BB00BC01762130
:1003BC00F030B7000130B8008330B9000330BA0018
:1003CC006F30BB000230BC000330BD000030BE00FB
:0403DC004521EF299F
:0A03E000683465347634723400345A
:0A03EA00483469346E347434003472
:04400E00F22F000687
:00000001FF
