:040000008A154D2CE4
:10000600FB14FB1F0D28FF30F300F200F100F00097
:08001600FA0DF20CFF300800A6
:0E001E00F201F101F001F801F30100300800D9
:10002C007B15FB1F20280130F300F201F101F001D8
:08003C00FA0DF20CFF30080080
:08004400FA1FF213003008005E
:10004C007C185C28FC182D287C197B282628A001FC
:10005C007208031D4D287108F2007008F100780831
:10006C00F000F801A0157208031D4D287108F2006C
:10007C007008F100F001A01120167208031D4D2824
:10008C007108F200F101A015720803196F282008FD
:10009C00F302031D031C73280310F21B5C28F80DDC
:1000AC00F00DF10DF20DF30B532873287B1B701C14
:1000BC007728F81F7728F00A0319F10A0319F20AB6
:1000CC00031D7728F20CF10CF00CF30A03197B28B2
:1000DC0077280130FC000F207E280230FC0016200F
:1000EC007E280430FC0022207E280830FC000320EF
:0400FC0000000800F8
:1001000083120313FB01FA01F9018030F800F10CAE
:10011000F00C031C94287408F90775080318750F70
:10012000FA070318FB0A0310F01F9C287408FA074B
:1001300075080318750FFB07FB0CFA0CF90CF80C8B
:10014000031C87287B08F3007A08F2007908F10085
:060150007808F000080031
:10015600A0017208031DC0287108F2007008F100A2
:10016600F001A0157208031DC0287108F200F10104
:10017600A011201672080319CE282008F302031DC9
:10018600031CD2280310F21BD628F00DF10DF20D38
:10019600F30BC628D2280130FC000F20D9280230E4
:0E01A600FC001620D9280430FC00222008009E
:1001B4007B14FB1FE528F201FA1FFF30F200F10067
:0A01C400F000FA0DF20CFF30080005
:0601CE00FB15FF300800E4
:0C01D400831203139B011D129D120800F2
:1001E00083120313F801F9011030FC00710DF80DB2
:1001F000F90D7408F8027508031C750FF90203184D
:1002000008297408F80775080318750FF907031013
:0A021000F00DF10DFC0BF6280800BC
:0C021A00831203139501171297120800BD
:10022600831603131208013EF000F1010318F10AC8
:100236002008F400F50180200630F2007008F40072
:100246007108F500720803192D29F50CF40CF51345
:10025600FF3E26290430F1007408F00071080319E6
:100266003829F00D7010FF3E322930307005F3004A
:100276007408F0007508F100F10CF00CF113F10CA4
:10028600F00CF11370089B000F309D0573089D0458
:0202960008005E
:10029800831603131208013EF000F1010318F10A56
:1002A8002008F400F50180200630F2007008F40000
:1002B8007108F500720803196629F50CF40CF5139A
:1002C800FF3E5F290430F1007408F000710803193B
:1002D8007129F00D7010FF3E6B2930307005F30066
:1002E8007408F0007508F100F10CF00CF113F10C32
:1002F800F00CF113700895000F30970573089704F8
:020308000800EB
:10030A00831603138710831212150C309D040800FC
:10031A008312031372087606A000F801F901730824
:10032A007702031CB0297708FD007308F7007D08DF
:10033A00F3007608FD007208F6007D08F2007508E1
:10034A00FD007108F5007D08F1007408FD007008D1
:10035A00F4007D08F00077080319292A7208FA00C8
:10036A00F217F61777087302F7000319E329083022
:10037A007702031CD929F7007408F9007508F400FC
:10038A007608F500F60108307702031CD929F70030
:10039A007408F9007508F400F50108307702031CA7
:1003AA00D9297A08F200292A77080319E3290310C0
:1003BA00F60CF50CF40CF90CF70BDC29A01FF0294C
:1003CA00F909F409F509F609F90A0319F40A0319EE
:1003DA00F50A0319F60A7908F80774080318740F5E
:1003EA00F00775080318750FF10776080318760FDA
:1003FA00F207A01B092A031C192AF20CF10CF00CB3
:10040A00F80CF30F192A252A03181D2AF809F009EE
:10041A00F109F209F80A0319F00A0319F10A031992
:10042A00F20A8030FA06212A0130FC0026202B2A03
:10043A000230FC0026202B2A0430FC00AB202B2A99
:10044A000830FC0003202B2A0030FC0000000800C2
:10045A00831603130711831212150C309704080030
:10046A0083160313071583121211F030970508003B
:10047A0083120313FB01730803197A2A7208FA001C
:10048A00F2178E30F302F31F7D2AF309F30A0830BC
:10049A007302031C602AF300F10D7208F100F201E5
:1004AA0008307302031C602AF300F10DF10173088E
:1004BA00031D0310682A73080319682A0310F20C33
:1004CA00F10CF30B632A7B1B711C722A031C722A20
:1004DA00F10A0319F20AF21B892AFA1F8C2AF20975
:1004EA00F109F10A0319F20A8C2AF201F1018C2AA4
:1004FA007B14FB1F8F2AF201FA1F8F2AFF30F200AA
:10050A00F100FA0DF20C8F2A0130FC00912A00301A
:10051A00FC00912AFF30FC00FC080319952ADA2016
:0A052A007108F0007208F1000800EB
:100534000030831203136B02031CB32A6B08033CC1
:10054400031CB32A6B08F1000130F0007108031991
:10055400AF2AF00D7010FF3EA92A70088316850497
:10056400D52A83126B08043A031DBB2A8316851609
:10057400D52A053083126B02031CD52A6B08073C6D
:10058400031CD52A05306B02F0007008F10001301D
:10059400F00071080319D22AF00D7010FF3ECC2A26
:1005A40070088316890483126B08F1000130F0008F
:1005B40071080319E12AF00D7010FF3EDB2A700860
:1005C400831603178804831203136B08F000F00DDD
:1005D4007010F00D70107008C13E9F001030FD00C7
:1005E400FD0BF22A00009F149F1CF92AF62A1E080C
:1005F400F200F301F20DF30D7210F20DF30D72100F
:100604000630F10083161E08F000710803190E2B42
:10061400F00CF013FF3E082B0030F1007208F007D5
:0A06240073080318013EF1070800F7
:10062E00831203137008F8007108F000F101F20153
:10063E00F301FB01FC019630F300FA01F01F2D2BA4
:10064E00F809F009F80A0319F00AFA177008F10010
:0C065E007808F000F801F201AB20080061
:0E066A008312031334088A003308820008004C
:10067800831203132C08003A031D5A2B0130AC00D7
:1006880083160317091009118610061103130810A1
:100698008810831212149210F930831692000D21DB
:0E06A80012149210F93083169200EA20080016
:1006B600831603139818612B00005B2B83126B08BB
:0406C600990008008F
:1006CA0083120313EE0105306E020318732B6E08B2
:1006DA006D07840020308000EE0A682B6E086D07D3
:1006EA0084008001EE036E086D07EF000A30F40003
:1006FA00F5016B08F0006C08F100F0207808F000B2
:10070A007908F1003030F0076F0884007008800023
:10071A000A30F400F5016B08F0006C08F100F020D3
:10072A007008EB007108EC0000307106031D9F2B66
:10073A0000307006031DA22BA42BEE03782B0800B1
:10074A00831203137408003A031DC02B7508003A7C
:10075A00031DC02B7608003A031DC02B7708003A08
:10076A00031DC02BFF30F000FF30F1007F30F20094
:10077A00FF30F3005B2C83120313770803194F2C05
:10078A0073080319522C720876068039FA00F21798
:10079A00F617A0017208F8007108FC007008FD0045
:1007AA007408FD027508031C750FFC027608031C09
:1007BA00760FF802F801FC01FD01031CEB2B031074
:1007CA00F20CF10CF00CF80C0130A0007708F302DF
:1007DA00031CF52B7E302007F3070318552CFA2B40
:1007EA007E302007F307031C582C1830FA07FD0D3A
:1007FA00FC0DF80DF00DF10DF20DA00D7408F002CC
:10080A007508031C750FF1027608031C760FF202B5
:10081A00760DA004201C132C7D141E2C7408F007DE
:10082A0075080318750FF10776080318760AF20798
:10083A007D10FA031F307A05031DFC2B7B1B7D1CE0
:10084A00452C0310F00DF10DF20DA00D7408F00205
:10085A007508031C750FF1027608031C760FF20265
:10086A00760D20040139FD070318FC0A0319F80A5A
:10087A00031D452CF80CFC0CFD0CF30A0319552C2E
:10088A00FA1FF8137808F2007C08F1007D08F000DE
:10089A0000305A2C0130E7205A2C02300F205A2CF3
:0E08AA00043003205A2C0830162000000800ED
:1008B800831203136B08280603196C2C6B08A80015
:1008C8006B088316A0004C216B088316A000132127
:0208D800080016
:0808DA002D220814881008000B
:1008E20083160313871483121211F0309D0508003A
:0808F2002D22081088140800F3
:0808FA00852186140611080097
:0C090200831203138030F6068D210800DC
:08090E00852186100615080082
:1009160083120313EB015C2435220810881071241E
:0809260086100611AC01080067
:0E092E003C236208EB005C2479247D24080041
:10093C00831203136308F000E30A700884000008B4
:10094C000319A92C9E2CE3036208840000080319E8
:10095C00BA2C620884000008F00063088400700858
:10096C008000E30AE20AAA2C6308840080010800D4
:0E097C003C236208EB005C246D2487240800F5
:10098A0083120313E701E8016208E9006308EA0039
:10099A0080306306F00080307002031DD62C0030D0
:1009AA0062020318E42C0130E7000030E800620814
:1009BA00003CE9006308031C013EEA01EA026908F7
:1009CA00EB006A08EC006408ED0065230630E500D8
:1009DA000030E6006608003C031DF52C6508003C63
:1009EA000318102D65086407F20001306502F00053
:1009FA000030031C013E6602F1007008640784009F
:100A0A000008F00072088400700880000130E502D6
:100A1A00031CE603EF2C640884002030800067087A
:100A2A00680403192E2DE501E601650864078400B0
:100A3A000008203A031D252DE50A0319E60A1A2D96
:100A4A000130E502031CE6036508640784002D30C3
:040A5A008000080010
:100A5E00831203131A08F100981C372D181218165A
:060A6E007108F000080011
:100A7400003083120313E2000030E3004830E40046
:100A84008530E500E601E7010230EB009A2283128B
:100A940003137008E6007108E7008030F20080302C
:100AA40071067202031D582D70085A3C0318842DD8
:100AB40005306607F00067080318013EF1001723AC
:100AC4007008F4007108F5007208F6007308F70066
:100AD4000030F0002030F1003630F2008A30F300AC
:100AE400A5230030F4000030F5000030F6007F301C
:100AF400F70081247008E2007108E3007208E40042
:100B04007308E5006208F0006308F1006408F2006D
:080B14006508F3003D22080012
:0E0B1C000030831203138C1A0130F000080021
:100B2A00831203136208B3006308B40035238A11E1
:100B3A000A12F00070080319B32D6208B3006308A3
:100B4A00B40035238A110A12F00064088400700880
:100B5A008000E40AE20A0319E30A952D6408840076
:040B6A0080010800FE
:100B6E0083120313E401620884000008E3006308A3
:100B7E00003A0319CC2D6308EB005B23E40A6408EA
:0C0B8E00620784000008E300BE2D080090
:100B9A00013083120313EB009A22831203137008A5
:100BAA00DA008030003AF2008030700672020318D0
:100BBA00E92D80305A06F0008030323A700203186C
:0C0BCA00E92D0130F000EA2DF0010800D8
:100BD600003083120313DA000030DB004830DC00FB
:100BE6008530DD00DE01DF010330EB009A2283123F
:100BF60003137008DE007108DF008030F2008030D9
:100C060071067202031D092E70085A3C0318352E10
:100C160005305E07F0005F080318013EF100172358
:100C26007008F4007108F5007208F6007308F70002
:100C36000030F0002030F1003630F2008A30F30048
:100C4600A5230030F4000030F5000030F6007F30B8
:100C5600F70081247008DA007108DB007208DC00F6
:100C66007308DD005A08F0005B08F1005C08F2002A
:080C76005D08F3003D220800B7
:100C7E00831203135A08E2005B08E3003530E400E8
:100C8E0095255C08E2005D08E3002130E400C524F0
:100C9E002130E2003530E3009E245E08E2005F085A
:100CAE00E3002130E400C5242130E2003530E300BA
:100CBE009E242630E2003530E3009E243530E200DB
:100CCE00B7258E2570080319702E2F250030F100E0
:060CDE00712E682E0800D3
:100CE400831203135B085D06031D7A2E5C085A0603
:100CF400031D7E2EF0018F2E80305D06F0008030C3
:100D04005B067002031D882E5A085C0203188D2EA0
:0C0D14000130F0008F2EFF30F0000800CE
:100D20003A257008DA004030E200BE243A25700807
:100D3000DB005A087006031DA02E4030E200972405
:100D400080305B06F00080305A0670020318A92E2E
:100D5000B52E80305A06F00080305B067002031812
:0C0D6000B42E8030E20097248B240800A1
:100D6C00831203135A08E2005B08E3003530E400F9
:100D7C0095255C08E2005D08E3002130E400C52401
:100D8C002130E2003530E3009E245E08E2005F086B
:100D9C00E3002130E400C5242130E2003530E300CB
:100DAC009E246008E2006108E3002130E400C524C1
:100DBC002130E2003530E3009E243130E200353042
:0C0DCC00E3009E243530E200B72508004B
:100DD800831203137008F100F0010830FC00710859
:100DE800F40C0318FB2EFC0BF42EF1010034031055
:100DF800002FF40C0318F107F10CF00CFC0BFD2E7E
:020E08000800E0
:100E0A00831203134B084A02F1007108CC008030A8
:100E1A00043AF0008030710670020318172F4C084C
:100E2A00083CCC0080304C06F0008030003A70025A
:100E3A00031C3B2FFF30E20097248030003AF00079
:100E4A0080304C06700203183A2F0830FB004F30EE
:100E5A00FC001930FD00FD0B302FFC0B302FFB0B73
:100E6A00302F00000000CC03222F562FFF30E20063
:100E7A00BE2480304C06F0008030003A700203181D
:100E8A00562F0830FB004F30FC001930FD00FD0BD7
:100E9A004C2FFC0B4C2FFB0B4C2F00000000CC0AF4
:060EAA003E2F8B2408001E
:100EB00083160313981690308312980083168717B1
:100EC000071383128C1E672F1A08F000612F080089
:100ED00035238A110A128000840AB30A0319B40A5E
:080EE000F003031D682F080058
:10100000013083120313D6000130D7000130D8001D
:10101000D9012908DA002A08DB005208DC0053084D
:10102000DD008A1172268A157008D7002E08DA00B2
:101030002F08DB005408DC005508DD008A117226F9
:101040008A155708FF3A031D28285808033ED60082
:101050005708003A031D422836280130D60042289E
:101060000930D60042280530D60042285808FF3AF9
:1010700003192D285808003A031930285808013A56
:10108000031933285708013A031D49285808073C1B
:10109000D600C92A8A113A258A158030023AF10011
:1010A000803070067102031877288A113C238A1554
:1010B000FF30EB008A115C248A158A1179248A1585
:1010C0008A1187248A150430FB009B30FC000F3006
:1010D000FD00FD0B6928FC0B6928FB0B69288A11B0
:1010E0008B248A158A1190268A150130D900112B7C
:1010F0008A113A258A158030023AF1008030700654
:1011000071020318D4288A11EB258A158030023A1F
:10111000F1008030700671020318D428FF30E2001D
:101120008A1197248A150330FB007030FC005C3074
:10113000FD00FD0B9928FC0B9928FB0B992800005A
:101140008A113C238A15FF30EB008A115C248A1532
:101150008A1179248A158A1187248A150430FB00A4
:101160009B30FC000F30FD00FD0BB428FC0BB428B5
:10117000FB0BB4288A118B248A15FF30E2008A11F8
:10118000BE248A150330FB007030FC005C30FD008B
:10119000FD0BC828FC0BC828FB0BC82800008A11CF
:1011A00090268A150130D900112B8A11EB258A155A
:1011B0008030023AF1008030700671020318432932
:1011C0008A113C238A15FF30EB008A115C248A15B2
:1011D0008A116D248A158A117D248A150430FB003A
:1011E0009B30FC000F30FD00FD0BF428FC0BF428B5
:1011F000FB0BF4288A118B248A15FF30E2008A1138
:1012000097248A150330FB007030FC005C30FD0031
:10121000FD0B0829FC0B0829FB0B082900008A118B
:101220003C238A15FF30EB008A115C248A158A1151
:1012300079248A158A1187248A150430FB009B3093
:10124000FC000F30FD00FD0B2329FC0B2329FB0BB9
:1012500023298A118B248A15FF30E2008A11BE24CB
:101260008A150330FB007030FC005C30FD00FD0B84
:101270003729FC0B3729FB0B372900008A119026F0
:101280008A150130D900112B8A11EB258A1580307F
:10129000023AF10080307006710203189529FF3080
:1012A000E2008A11BE248A150330FB007030FC0076
:1012B0005C30FD00FD0B5A29FC0B5A29FB0B5A2907
:1012C00000008A113C238A15FF30EB008A115C2450
:1012D0008A158A116D248A158A117D248A15043095
:1012E000FB009B30FC000F30FD00FD0B7529FC0B53
:1012F0007529FB0B75298A118B248A15FF30E200B2
:101300008A1197248A150330FB007030FC005C3092
:10131000FD00FD0B8929FC0B8929FB0B89290000A5
:101320008A1190268A150130D900112B8A113C238D
:101330008A15FF30EB008A115C248A158A116D240E
:101340008A158A117D248A150430FB009B30FC002D
:101350000F30FD00FD0BAA29FC0BAA29FB0BAA29C3
:101360008A118B248A158A113C238A158A119026AA
:101370008A150130D900112BFF30E2008A11972421
:101380008A150330FB007030FC005C30FD00FD0B63
:10139000C729FC0BC729FB0BC72900008A113C2376
:1013A0008A15FF30EB008A115C248A158A116D249E
:1013B0008A158A117D248A150430FB009B30FC00BD
:1013C0000F30FD00FD0BE229FC0BE229FB0BE229AB
:1013D0008A118B248A15FF30E2008A11BE248A15F7
:1013E0000330FB007030FC005C30FD00FD0BF62983
:1013F000FC0BF629FB0BF62900008A1190268A15B2
:101400000130D900112B8A113C238A15FF30EB00E3
:101410008A115C248A158A116D248A158A117D240B
:101420008A150430FB009B30FC000F30FD00FD0BE3
:10143000172AFC0B172AFB0B172A8A118B248A15F3
:10144000FF30E2008A11BE248A150330FB007030A1
:10145000FC005C30FD00FD0B2B2AFC0B2B2AFB0B48
:101460002B2A00008A113C238A15FF30EB008A11D9
:101470005C248A158A1179248A158A1187248A1591
:101480000430FB009B30FC000F30FD00FD0B462AB2
:10149000FC0B462AFB0B462A8A118B248A15FF3047
:1014A000E2008A1197248A150330FB007030FC009B
:1014B0005C30FD00FD0B5A2AFC0B5A2AFB0B5A2A02
:1014C00000008A1190268A150130D900112B8A114B
:1014D0003A258A158030023AF10080307006710298
:1014E0000318B82AFF30E2008A11BE248A1503309F
:1014F000FB007030FC005C30FD00FD0B7D2AFC0B16
:101500007D2AFB0B7D2A00008A113C238A15FF30BF
:10151000EB008A115C248A158A1179248A158A11B4
:1015200087248A150430FB009B30FC000F30FD003F
:10153000FD0B982AFC0B982AFB0B982A8A118B2406
:101540008A15FF30E2008A1197248A150330FB00C8
:101550007030FC005C30FD00FD0BAC2AFC0BAC2AAB
:10156000FB0BAC2A00008A1190268A150130D900A5
:10157000112B9F30DA000730DB000130DC00003037
:10158000DD000130DE000030DF008A113F268A15C1
:10159000112B5608013A03194A285608013A031933
:1015A0004A285608023A031978285608023A0319BD
:1015B00078285608033A0319D5285608033A031920
:1015C000D5285608043A031944295608043A031941
:1015D00044295608053A031996295608053A03196D
:1015E00096295608063A0319BC295608063A0319E3
:1015F000BC295608073A0319032A5608073A031963
:10160000032A5608083A0319672A5608083A0319A4
:10161000672A5608093A0319B92A5608093A0319DC
:10162000B92A8A11CD258A15700803192D2B59085E
:1016300003192D2B9130DA000730DB005208DC0053
:101640005308DD005408DE005508DF000130E000DB
:101650000030E1008A11B6268A155908F00008000A
:101660007F3083120313DA000730DB000130DC0027
:101670000030DD000130DE000030DF008A113F263F
:101680008A1500307106031D472B0D307006031DAF
:101690004A2B4C2CAB30DA000730DB002908DC0089
:1016A0002A08DD002E08DE002F08DF008A113F2601
:1016B0008A157008D0007108D100B030DA00073008
:1016C000DB002908DC002A08DD002E08DE002F08D8
:1016D000DF007008E0007108E1008A11B6268A1563
:1016E000D00A0319D10A9830DA000730DB00290844
:1016F000DC002A08DD002E08013EDE000030031861
:10170000013E2F07DF008A113F268A157008CE00A0
:101710007108CF00B0010130AD00FF30CA00FF30CA
:10172000CB008030F00080304B067002031D9A2BF6
:101730004A08013C031CF32BFF30CC00FF30CD00E6
:101740008030F00080304D067002031DA92B4C083C
:10175000013C031CEF2B00304B06031DB12B003066
:101760004A06031DBC2B00304D06031DB92B00306B
:101770004C06031DBC2BEB2B8A30DA000730DB0054
:101780004A082907DC002A080318013E4B07DD0040
:101790004C082E07DE002F080318013E4D07DF001E
:1017A0008A113F268A157008D0007108D100803058
:1017B0007106F20080304F067202031DE12B4E08C5
:1017C00070020318EB2B5008CE005108CF004A08D6
:1017D000B0004C08AD00CC0A0319CD0AA02BCA0AF0
:1017E0000319CB0A912B2B08013A031DF72B2B0869
:1017F000053A031D042C2D08F000FF30F4008A1177
:10180000EC268A157008AD002B08073A031D132C2F
:101810003008D0000030D01BFF30D1002D08B000C0
:101820005008003CAD002B08033A031D222C300861
:10183000D0000030D01BFF30D1002D08B000500880
:10184000003CAD0030082907D2002A080318013EE9
:10185000D3000030B01BFF30D3072D082E07D40073
:101860002F080318013ED5000030AD1BFF30D5070F
:101870000020700803194C2C3008A9070318AA0A85
:101880000030B01BFF30AA072D08AE070318AF0ABF
:0A1890000030AD1BFF30AF07080069
:10189A0083120313A101A201A301A401A5010D3022
:1018AA00A600A7017F30A800A901AA010130AB0058
:1018BA00AC01AD01AE01AF01B0010D30B100B20112
:1018CA0081308316990018158A1158278A15A53070
:1018DA00DA000730DB000130DC000030DD000130C7
:1018EA00DE000030DF008A113F268A1500307106BB
:1018FA00031D812C0D3070060319922C0330FB0056
:10190A008A30FC005530FD00FD0B892CFC0B892C1C
:10191A00FB0B892C000000006C2C0530AB008A11EF
:10192A00EB258A157008A9000030A91BFF30AA0010
:10193A00A90CA913291BA9170030A91BFF30AA005B
:10194A008A113A258A157008AE000030AE1BFF30A6
:10195A00AF00AE0CAE132E1BAE170030AE1BFF301D
:10196A00AF007430DA000730DB000130DC000030F1
:10197A00DD000130DE000030DF008A113F268A15C3
:10198A0000307106031DCB2C0D3070060319CF2DC4
:10199A008A11EB258A157008C6000030C61BFF3075
:1019AA00C7008A113A258A157008C8000030C81B7A
:1019BA00FF30C90000304706031DE52C6430460697
:1019CA000319F02C00304906031DED2C643048063B
:1019DA000319F02CCD2D8030F00080302A067002D9
:1019EA00031DF92C2908143C031C082D8030F00033
:1019FA0080302F067002031D042D2E080A3C031C9A
:101A0A00082D0530C5008030F00080302A067002AB
:101A1A00031D112D2908143C0318202D8030F000D5
:101A2A0080302F067002031D1C2D2E080A3C031C51
:101A3A00202D0330C5008030F00080302F06700260
:101A4A00031D292D2E08143C031C432D8030F00061
:101A5A0080302F067002031D342D2E080A3C03180D
:101A6A00432D8030F00080302A067002031D3F2D7E
:101A7A002908143C031C432D0730C5008030F000B0
:101A8A0080302F067002031D4C2D2E08143C031CB7
:101A9A00662D8030F00080302F067002031D572D0E
:101AAA002E080A3C0318662D8030F00080302A0682
:101ABA007002031D622D2908143C0318662D033099
:101ACA00C5008030F00080302F067002031D6F2D94
:101ADA002E08143C03187E2D8030F00080302A0630
:101AEA007002031D7A2D2908143C031C7E2D073031
:101AFA00C5008030F00080302F067002031D872D4C
:101B0A002E08143C0318962D8030F00080302A06E7
:101B1A007002031D922D2908143C0318962D0130DA
:101B2A00C5002B08CA004508CB008A1105278A156B
:101B3A004508AB008A11EB258A157008F100F10CF3
:101B4A00F113711BF11771081E3CA900AA01031CAD
:101B5A00AA030130F11F0030AA070130A902031CB1
:101B6A00AA038A113A258A157008F100F10CF113BB
:101B7A00711BF11771081E3CAE00AF01031CAF03C5
:101B8A000130F11F0030AF070130AE02031CAF0372
:061B9A003023B62CCF2D14
:100EE8006A346F3462346934733464346F346E3402
:060EF80065343F340034B4
:100EFE006A346F3462346934733464346F346E34EC
:060F0E0065343F3400349D
:0E0F140048342B34683465347634723400343B
:0E0F22004D346534743461346C346C340034F6
:0E0F300048342B34683465347634723400341F
:0C0F3E007A34653472346F34643400344B
:0C0F4A0073347434613472347434003435
:0A0F5600483469346E3474340034FA
:0A0F6000483469346E3474340034F0
:04400E00F22F000687
:00000001FF
