:040000008A15542DDC
:10000600FB14FB1F0D28FF30F300F200F100F00097
:08001600FA0DF20CFF300800A6
:0E001E00F201F101F001F801F30100300800D9
:10002C007B15FB1F20280130F300F201F101F001D8
:08003C00FA0DF20CFF30080080
:08004400FA1FF213003008005E
:10004C007C185C28FC182D287C197B282628A001FC
:10005C007208031D4D287108F2007008F100780831
:10006C00F000F801A0157208031D4D287108F2006C
:10007C007008F100F001A01120167208031D4D2824
:10008C007108F200F101A015720803196F282008FD
:10009C00F302031D031C73280310F21B5C28F80DDC
:1000AC00F00DF10DF20DF30B532873287B1B701C14
:1000BC007728F81F7728F00A0319F10A0319F20AB6
:1000CC00031D7728F20CF10CF00CF30A03197B28B2
:1000DC0077280130FC000F207E280230FC0016200F
:1000EC007E280430FC0022207E280830FC000320EF
:0400FC0000000800F8
:1001000083120313FB01FA01F9018030F800F10CAE
:10011000F00C031C94287408F90775080318750F70
:10012000FA070318FB0A0310F01F9C287408FA074B
:1001300075080318750FFB07FB0CFA0CF90CF80C8B
:10014000031C87287B08F3007A08F2007908F10085
:060150007808F000080031
:10015600A0017208031DC0287108F2007008F100A2
:10016600F001A0157208031DC0287108F200F10104
:10017600A011201672080319CE282008F302031DC9
:10018600031CD2280310F21BD628F00DF10DF20D38
:10019600F30BC628D2280130FC000F20D9280230E4
:0E01A600FC001620D9280430FC00222008009E
:1001B4007B14FB1FE528F201FA1FFF30F200F10067
:0A01C400F000FA0DF20CFF30080005
:0601CE00FB15FF300800E4
:0C01D400831203139B011D129D120800F2
:1001E00083120313F801F9011030FC00710DF80DB2
:1001F000F90D7408F8027508031C750FF90203184D
:1002000008297408F80775080318750FF907031013
:0A021000F00DF10DFC0BF6280800BC
:0C021A00831203139501171297120800BD
:10022600831603131208013EF000F1010318F10AC8
:100236002308F400F50180200630F2007008F4006F
:100246007108F500720803192D29F50CF40CF51345
:10025600FF3E26290430F1007408F00071080319E6
:100266003829F00D7010FF3E322930307005F3004A
:100276007408F0007508F100F10CF00CF113F10CA4
:10028600F00CF11370089B000F309D0573089D0458
:0202960008005E
:10029800831603131208013EF000F1010318F10A56
:1002A8002308F400F50180200630F2007008F400FD
:1002B8007108F500720803196629F50CF40CF5139A
:1002C800FF3E5F290430F1007408F000710803193B
:1002D8007129F00D7010FF3E6B2930307005F30066
:1002E8007408F0007508F100F10CF00CF113F10C32
:1002F800F00CF113700895000F30970573089704F8
:020308000800EB
:10030A00831603138710831212150C309D040800FC
:10031A008312031372087606A000F801F901730824
:10032A007702031CB0297708FD007308F7007D08DF
:10033A00F3007608FD007208F6007D08F2007508E1
:10034A00FD007108F5007D08F1007408FD007008D1
:10035A00F4007D08F00077080319292A7208FA00C8
:10036A00F217F61777087302F7000319E329083022
:10037A007702031CD929F7007408F9007508F400FC
:10038A007608F500F60108307702031CD929F70030
:10039A007408F9007508F400F50108307702031CA7
:1003AA00D9297A08F200292A77080319E3290310C0
:1003BA00F60CF50CF40CF90CF70BDC29A01FF0294C
:1003CA00F909F409F509F609F90A0319F40A0319EE
:1003DA00F50A0319F60A7908F80774080318740F5E
:1003EA00F00775080318750FF10776080318760FDA
:1003FA00F207A01B092A031C192AF20CF10CF00CB3
:10040A00F80CF30F192A252A03181D2AF809F009EE
:10041A00F109F209F80A0319F00A0319F10A031992
:10042A00F20A8030FA06212A0130FC0026202B2A03
:10043A000230FC0026202B2A0430FC00AB202B2A99
:10044A000830FC0003202B2A0030FC0000000800C2
:10045A00831603130711831212150C309704080030
:08046A002D220810881408007F
:100472008316031398183F2A0000392A83126E0844
:0404820099000800D5
:0804860085218610061508000F
:08048E002D220814881008005B
:0E049600831203134C088A004B0882000800F2
:0C04A400831203138030F6068D2108003F
:1004B000831203137008F8007108F000F101F201D3
:1004C000F301FB01FC019630F300FA01F01F6E2AE4
:1004D000F809F009F80A0319F00AFA177008F10090
:0C04E0007808F000F801F201AB200800E1
:1004EC00831203137408003A031D912A7508003A0D
:1004FC00031D912A7608003A031D912A7708003AC9
:10050C00031D912AFF30F000FF30F1007F30F20024
:10051C00FF30F3002C2B8312031377080319202BC5
:10052C0073080319232B720876068039FA00F21728
:10053C00F617A0017208F8007108FC007008FD00A5
:10054C007408FD027508031C750FFC027608031C69
:10055C00760FF802F801FC01FD01031CBC2A031004
:10056C00F20CF10CF00CF80C0130A0007708F3023F
:10057C00031CC62A7E302007F3070318262BCB2A30
:10058C007E302007F307031C292B1830FA07FD0DCA
:10059C00FC0DF80DF00DF10DF20DA00D7408F0022C
:1005AC007508031C750FF1027608031C760FF20216
:1005BC00760DA004201CE42A7D14EF2A7408F007A1
:1005CC0075080318750FF10776080318760AF207F9
:1005DC007D10FA031F307A05031DCD2A7B1B7D1C71
:1005EC00162B0310F00DF10DF20DA00D7408F00296
:1005FC007508031C750FF1027608031C760FF202C6
:10060C00760D20040139FD070318FC0A0319F80ABA
:10061C00031D162BF80CFC0CFD0CF30A0319262BEE
:10062C00FA1FF8137808F2007C08F1007D08F0003E
:10063C0000302B2B0130E7202B2B02300F202B2BE3
:0E064C00043003202B2B08301620000008007D
:10065A0083160313071583121211F0309705080049
:10066A0083120313FB0173080319722B7208FA0031
:10067A00F2178E30F302F31F752BF309F30A0830D1
:10068A007302031C582BF300F10D7208F100F201FA
:10069A0008307302031C582BF300F10DF1017308A3
:1006AA00031D0310602B73080319602B0310F20C4F
:1006BA00F10CF30B5B2B7B1B711C6A2B031C6A2B43
:1006CA00F10A0319F20AF21B812BFA1F842BF20991
:1006DA00F109F10A0319F20A842BF201F101842BC0
:1006EA007B14FB1F872BF201FA1F872BFF30F200C6
:1006FA00F100FA0DF20C872B0130FC00892B003037
:10070A00FC00892BFF30FC00FC0803198D2BDA2032
:0A071A007108F0007208F1000800F9
:10072400831203132B08003A031DB02B0130AB00D6
:1007340083160317091009118610061103130810F4
:100744008810831212149210F930831692000D212E
:0E07540012149210F93083169200EA20080069
:08076200852186140611080030
:10076A000030831203136E02031CCE2B6E08033C67
:10077A00031CCE2B6E08F1000130F000710803193A
:10078A00CA2BF00D7010FF3EC42B70088316850427
:10079A00F02B83126E08043A031DD62B8316851696
:1007AA00F02B053083126E02031CF02B6E08073CF7
:1007BA00031CF02B05306E02F0007008F1000130C6
:1007CA00F00071080319ED2BF00D7010FF3EE72BB6
:1007DA0070088316890483126E08F1000130F00054
:1007EA0071080319FC2BF00D7010FF3EF62B7008F0
:1007FA00831603178804831203136E08F000F00DA2
:10080A007010F00D70107008C13E9F001030FD008E
:10081A00FD0B0D2C00009F149F1C142C112C1E087C
:10082A00F200F301F20DF30D7210F20DF30D7210D6
:10083A000630F10083161E08F00071080319292CEE
:10084A00F00CF013FF3E232C0030F1007208F00781
:0A085A0073080318013EF1070800BF
:1008640083160313871483121211F0309D050800B8
:1008740083120313EE0105306E0203184A2C6E082E
:10088400831622078400203080008312EE0A3D2C58
:100894006E0883162207840080018312EE036E081B
:1008A400831622078312EF000A30F400F501831641
:1008B4002008F0002108F100F0207808F000790801
:1008C400F1003030F0076F088400700880000A30AF
:1008D400F400F50183162008F0002108F100F0204F
:1008E40070088316A0007108A10000307106031D72
:1008F4007D2C00307006031D802C832C8312EE03A4
:04090400512C08006A
:10090800831203136E082A060319942C6E08AA0092
:100918006E088316A3004C216E088316A3001321CA
:020928000800C5
:10092A0083120313E701650884000008E6006608DD
:10093A00003A0319AA2C6608EE003922E70A67086A
:0C094A00650784000008E6009C2C0800F3
:0E0956000030831203138C1A0130F0000800E9
:10096400831203136608F000E60A70088400000886
:100974000319BD2CB22CE603650884000008031992
:10098400CE2C650884000008F00066088400700816
:100994008000E60AE50ABE2C66088400800108008F
:0E09A40092236508EE008424472243220800B7
:1009B20083120313EA01EB016508EC006608ED00FF
:1009C20080306606F00080307002031DEA2C003091
:1009D20065020318F82C0130EA000030EB006508CC
:1009E200003CEC006608031C013EED01ED026C08C0
:1009F2008316A00083126D088316A1008312670874
:100A02008316A2003A24063083120313E800003052
:100A1200E9006908003C031D102D6808003C03181A
:100A22002B2D68086707F20001306802F0000030E1
:100A3200031C013E6902F100700867078400000888
:100A4200F00072088400700880000130E802031C84
:100A5200E9030A2D67088400203080006A086B04CD
:100A62000319492DE801E9016808670784000008B5
:100A7200203A031D402DE80A0319E90A352D0130F9
:100A8200E802031CE9036808670784002D30800030
:020A920008005A
:100A9400831203131A08F100981C522D1812181609
:060AA4007108F0000800DB
:0E0AAA0092236508EE0084243522B123080053
:100AB800831203136508CB006608CC004B228A1109
:100AC8000A12F000700803197A2D6508CB00660831
:100AD800CC004B228A110A12F000670884007008C3
:100AE8008000E70AE50A0319E60A5C2D6708840016
:040AF8008001080071
:100AFC0083120313EE0184242D2308108810322452
:080B0C0086100611AB01080080
:100B1400003083120313E5000030E6004830E7009C
:100B24008530E800E901EA010230EE00B5238312C2
:100B340003137008E9007108EA008030F200803085
:100B440071067202031DA82D70085A3C0318D42D97
:100B540005306907F0006A080318013EF1005822C5
:100B64007008F4007108F5007208F6007308F700C5
:100B74000030F0002030F1003630F2008A30F3000B
:100B840076220030F4000030F5000030F6007F30AB
:100B9400F70052227008E5007108E6007208E700C9
:100BA4007308E8006508F0006608F1006708F200C1
:080BB4006808F3003523080076
:100BBC00013083120313EE00B52383120313700864
:100BCC00DD008030003AF2008030700672020318AB
:100BDC00FA2D80305D06F0008030323A7002031836
:0C0BEC00FA2D0130F000FB2DF001080094
:100BF800003083120313DD000030DE004830DF00D0
:100C08008530E000E101E2010330EE00B5238312F4
:100C180003137008E1007108E2008030F2008030B0
:100C280071067202031D1A2E70085A3C0318462ECC
:100C380005306107F00062080318013EF1005822F0
:100C48007008F4007108F5007208F6007308F700E0
:100C58000030F0002030F1003630F2008A30F30026
:100C680076220030F4000030F5000030F6007F30C6
:100C7800F70052227008DD007108DE007208DF00FC
:100C88007308E0005D08F0005E08F1005F08F200FC
:080C98006008F3003523080099
:100CA000831203135D08E5005E08E6003B30E700B1
:100CB0005C255F08E5006008E6002130E700D924E4
:100CC0002130E5003B30E600B2246108E50062080F
:100CD000E6002130E700D9242130E5003B30E60072
:100CE000B2242630E5003B30E600B2243B30E5007C
:100CF0009524AB2470080319812E4A250030F10099
:060D0000822E792E08008E
:100D0600831203135D08E5005E08E6003B30E7004A
:100D16005C255F08E5006008E6002130E700D9247D
:100D26002130E5003B30E600B2246108E5006208A8
:100D3600E6002130E700D9242130E5003B30E6000B
:100D4600B2246308E5006408E6002130E700D924F0
:100D56002130E5003B30E600B2243430E5003B307C
:100D6600E600B2243B30E5009524AB247008031955
:0A0D7600BE2E4A25BF2EB82E08003D
:100D80008A257008DD004030E500D2248A257008ED
:100D9000DE005D087006031DD02E4030E5005525AD
:100DA00080305E06F00080305D0670020318D92E98
:100DB000E52E80305D06F00080305E06700203187C
:0C0DC000E42E8030E50055257E2508005B
:100DCC00710DF80DF90D7408F8027508031C750FF8
:100DDC00F902F00DF10D0F30FC00710DF80DF90D4D
:100DEC007408701CFF2EF8027508031C750FF902AD
:100DFC00042FF80775080318750FF907F00DF10D9E
:100E0C00FC0BF32E7018102F7408F80775080318D4
:080E1C00750FF9070000080042
:100E2400831203135E086006031D1A2F5F085D0614
:100E3400031D1E2FF0012F2F80306006F00080303C
:100E44005E067002031D282F5D085F0203182D2F14
:0C0E54000130F0002F2FFF30F0000800EC
:100E6000831203137008F100F0010830FC007108D0
:100E7000F40C03183F2FFC0B382FF1010034031042
:100E8000442FF40C0318F107F10CF00CFC0B412F6C
:020E9000080058
:100E9200831203137408003A031D582F7508003A91
:100EA200031D582FFF30F0007F30F100B12F831265
:100EB2000313FD01F901F8017108700403190034EC
:100EC20071087506FA00FA1BFD09FB01F51F6E2F6A
:100ED200F409F509F40A0319F50AF11F752FF0094F
:100EE200F109F00A0319F10A71087504FA00FA1BF4
:100EF2008A2FE6267B189D2FFD1F0034F009F10989
:100F0200F00A0319F10AF809F909F80A0319F90AAA
:100F12000034F51F992FF11B952F7108F900700805
:100F2200F800F101F0017D2FF101F001F00A003427
:100F3200F109F009FB0A7A2FF80A0319F90A740871
:100F42007802031D7D2F75087902031D7D2FF9019B
:100F5200F801F00A0319F10AF11F7D2F0000FF3496
:020F6200080085
:100F640083160313981690308312980083168717FC
:100F7400071383128C1EC12F1A08F000BB2F080020
:100F84004B228A110A128000840ACB0A0319CC0A64
:080F9400F003031DC22F080049
:10100000013083120313D9000130DA000130DB0014
:10101000DC012E08DD002F08DE005508DF00560831
:10102000E0008A1112278A157008DA002C08DD000A
:101030002D08DE005708DF005808E0008A1112274B
:101040008A155A08FF3A031D28285B08033ED90079
:101050005A08003A031D422836280130D900422898
:101060000930D90042280530D90042285B08FF3AF0
:1010700003192D285B08003A031930285B08013A50
:10108000031933285A08013A031D49285B08073C15
:10109000D900CD2A8A118A258A158030023AF100BA
:1010A000803070067102031877288A1192238A15FE
:1010B000FF30EE008A1184248A158A1135228A15A0
:1010C0008A1143228A150430FB009B30FC000F304C
:1010D000FD00FD0B6928FC0B6928FB0B69288A11B0
:1010E0007E258A158A11C0268A150130DC00152B51
:1010F0008A118A258A158030023AF1008030700604
:1011000071020318D4288A11FC258A158030023A0E
:10111000F1008030700671020318D428FF30E5001A
:101120008A1155258A150330FB007030FC005C30B5
:10113000FD00FD0B9928FC0B9928FB0B992800005A
:101140008A1192238A15FF30EE008A1184248A15B1
:101150008A1135228A158A1143228A150430FB0030
:101160009B30FC000F30FD00FD0BB428FC0BB428B5
:10117000FB0BB4288A117E258A15FF30E5008A1101
:10118000D2248A150330FB007030FC005C30FD0077
:10119000FD0BC828FC0BC828FB0BC82800008A11CF
:1011A000C0268A150130DC00152B8A11FC258A1512
:1011B0008030023AF1008030700671020318452930
:1011C0008A1192238A15FF30EE008A1184248A1531
:1011D0008A1147228A158A11B1238A150430FB002F
:1011E0009B30FC000F30FD00FD0BF428FC0BF428B5
:1011F000FB0BF4288A117E258A15FF30E5008A1141
:1012000055258A150330FB007030FC005C30FD0072
:10121000FD0B0829FC0B0829FB0B082900008A118B
:1012200092238A15FF30EE008A1184248A158A11D0
:1012300035228A158A1143228A150630FB00683050
:10124000FC001730FD00FD0B2329FC0B2329FB0BB1
:101250002329000000008A117E258A15FF30E50051
:101260008A11D2248A150330FB007030FC005C30F8
:10127000FD00FD0B3929FC0B3929FB0B3929000036
:101280008A11C0268A150130DC00152B8A11FC2535
:101290008A158030023AF10080307006710203181E
:1012A0009729FF30E5008A11D2248A150330FB000C
:1012B0007030FC005C30FD00FD0B5C29FC0B5C29F0
:1012C000FB0B5C2900008A1192238A15FF30EE0087
:1012D0008A1184248A158A1147228A158A11B1231A
:1012E0008A150430FB009B30FC000F30FD00FD0B25
:1012F0007729FC0B7729FB0B77298A117E258A1524
:10130000FF30E5008A1155258A150330FB00703047
:10131000FC005C30FD00FD0B8B29FC0B8B29FB0BCB
:101320008B2900008A11C0268A150130DC00152B9C
:101330008A1192238A15FF30EE008A1184248A15BF
:101340008A1147228A158A11B1238A150430FB00BD
:101350009B30FC000F30FD00FD0BAC29FC0BAC29D1
:10136000FB0BAC298A117E258A158A1192238A15D6
:101370008A11C0268A150130DC00152BFF30E500EC
:101380008A1155258A150330FB007030FC005C3053
:10139000FD00FD0BC929FC0BC929FB0BC929000065
:1013A0008A1192238A15FF30EE008A1184248A154F
:1013B0008A1147228A158A11B1238A150430FB004D
:1013C0009B30FC000F30FD00FD0BE429FC0BE429F1
:1013D000FB0BE4298A117E258A15FF30E5008A116E
:1013E000D2248A150330FB007030FC005C30FD0015
:1013F000FD0BF829FC0BF829FB0BF82900008A11DA
:10140000C0268A150130DC00152B8A1192238A151B
:10141000FF30EE008A1184248A158A1147228A152A
:101420008A11B1238A150430FB009B30FC000F3079
:10143000FD00FD0B192AFC0B192AFB0B192A8A1136
:101440007E258A15FF30E5008A11D2248A150330E3
:10145000FB007030FC005C30FD00FD0B2D2AFC0B06
:101460002D2AFB0B2D2A00008A1192238A15FF30AA
:10147000EE008A1184248A158A1135228A158A1170
:1014800043228A150630FB006830FC001730FD004F
:10149000FD0B482AFC0B482AFB0B482A00000000E1
:1014A0008A117E258A15FF30E5008A1155258A1597
:1014B0000330FB007030FC005C30FD00FD0B5E2A49
:1014C000FC0B5E2AFB0B5E2A00008A11C0268A15DF
:1014D0000130DC00152B8A118A258A158030023AEA
:1014E000F1008030700671020318BC2AFF30E5005D
:1014F0008A11D2248A150330FB007030FC005C3066
:10150000FD00FD0B812AFC0B812AFB0B812A0000C8
:101510008A1192238A15FF30EE008A1184248A15DD
:101520008A1135228A158A1143228A150430FB005C
:101530009B30FC000F30FD00FD0B9C2AFC0B9C2A0D
:10154000FB0B9C2A8A117E258A15FF30E5008A1143
:1015500055258A150330FB007030FC005C30FD001F
:10156000FD0BB02AFC0BB02AFB0BB02A00008A113D
:10157000C0268A150130DC00152BEC30DD00073069
:10158000DE000130DF000030E0000130E10000301B
:10159000E2008A1150268A15152B5908013A0319C1
:1015A0004A285908013A03194A285908023A0319E6
:1015B00078285908023A031978285908033A031978
:1015C000D5285908033A0319D5285908043A0319AC
:1015D00046295908043A031946295908053A0319B6
:1015E00098295908053A031998295908063A031900
:1015F000BE295908063A0319BE295908073A0319A2
:10160000052A5908073A0319052A5908083A0319FF
:101610006B2A5908083A03196B2A5908093A031921
:10162000BD2A5908093A0319BD2A8A11DE258A15EF
:1016300070080319312B5C080319312BD930DD00F8
:101640000730DE005508DF005608E0005708E100CB
:101650005808E2000130E3000030E4008A118326DC
:081660008A155C08F000080087
:1016680083120313FD01F80170080319003474068E
:10167800FA00FA1BFD09FB01F41F442BF409F40AD4
:10168800F01F482BF009F00A70087404FA00FA1BDE
:101698006C2B7408F802F00D700DF80D7408F8073B
:1016A800F00D0630FC00700DF80D74087018F80283
:1016B800701CF807F00DFC0B572B701CF8077B18F3
:1016C8007A2BFD1F0034F009F00AF809F80A0034F3
:1016D800F41F772BF01B742B7008F800F001652BB2
:1016E800F001F00A0034F009FB0A4D2BF80A7408DF
:1016F8007802031D652BF801F00AF01F652BFF34F3
:021708000800D7
:10170A00B23083120313DD000E30DE002E08DF0034
:10171A002F08E0002C08E1002D08E2008A1150266B
:10172A008A157008CE007108CF00A330DD000E3094
:10173A00DE002E08DF002F08E0002C08E1002D084B
:10174A00E200F00A0319F10A7008CE007108CF000E
:10175A007008E3007108E4008A1183268A15F830BC
:10176A00DD000730DE002E08DF002F08E0002C081D
:10177A00E1002D08E2008A1150268A157008BA0085
:10178A00F230DD000730DE002E08DF002F08E0000F
:10179A002C08E1002D08E2008A1150268A157008EB
:1017AA00B3003008013A031DDA2B3008053A031D4D
:1017BA00E72B3308F000FF30F4008A1130278A152E
:1017CA007008B3003008073A031DF62B3A08CE001A
:1017DA000030CE1BFF30CF003308BA004E08003C61
:1017EA00B3003008033A031D052C3A08CE00003036
:1017FA00CE1BFF30CF003308BA004E08003CB300BE
:10180A003A082E07D5002F080318013ED6000030EB
:10181A00BA1BFF30D60733082C07D7002D08031848
:10182A00013ED8000030B31BFF30D80700207008F3
:10183A0003192F2C3A08AE070318AF0A0030BA1B57
:10184A00FF30AF073308AC070318AD0A0030B31BEB
:06185A00FF30AD0708009D
:1018600083120313D001D101D201D301D4012E0878
:10187000D0002F08D1002C08D2002D08D3004F082B
:101880004E02F1007108D4008030043AF00080303C
:101890007106700203184F2C5408083CD4008030A5
:1018A0005406F0008030003A7002031CC62CFF3052
:1018B000E5008A1155258A158030003AF000803005
:1018C000540670020318C52C0830FB004F30FC0092
:1018D0001930FD00FD0B6A2CFC0B6A2CFB0B6A2CEB
:1018E000000000000230F4005408F00034237808AF
:1018F000F0007008013A031D7E2CC32CB32C2C0879
:10190000D0002D08D1002E08FE3ED200FF30031873
:10191000013E2F07D300C32C2C08D0002D08D10086
:1019200004302E07D2002F080318013E003ED300DA
:10193000C32C2C08D0002D08D1002E08FC3ED2006C
:10194000FF300318013E2F07D300C32C2C08D00012
:101950002D08D10002302E07D2002F080318013EB7
:10196000003ED300C32C3008013A03197F2C300805
:10197000053A03198C2C3008033A0319992C3008C6
:10198000073A0319A62CD4035C2C462DFF30E50042
:101990008A11D2248A1580305406F0008030003A33
:1019A00070020318462D0830FB004F30FC00193040
:1019B000FD00FD0BD92CFC0BD92CFB0BD92C000006
:1019C00000005408003CF000F101031CF103013059
:1019D000D41F0030F1070230F4000030F5008A1106
:1019E00049278A157808F0007908F100003071065F
:1019F000031DFC2C01307006031DFF2C442D342DDB
:101A000008302C02D0000030031C013E2D02D10012
:101A10002E08D2002F08D300442D2C08D0002D080A
:101A2000D1002E08043ED20000300318013E2F07DB
:101A3000D300442D2C08D0002D08D10004302E07EF
:101A4000D2002F080318013E003ED300442D02307F
:101A50002E07D0002F080318013E003ED1002E08AB
:101A6000D2002F08D300442D3008013A0319002D6D
:101A70003008053A03190D2D3008033A03191A2DC1
:101A80003008073A0319272DD40ACB2C8A117E255A
:101A90008A154F08B0005008AE005108AF00520838
:081AA000AC005308AD00080082
:101AA80083120313A101A201A301A401A5012030FF
:101AB800A6002030A7002030A800A9017F30AA0086
:101AC800AB01AC01AD01AE01AF010130B000B10115
:101AD800B201B3012030B4002030B5002030B60088
:101AE800B701B801B901BA018130831699001815F8
:101AF8008A11B2278A15E630DD000730DE00013092
:101B0800DF000030E0000130E1000030E2008A111F
:101B180050268A1500307106031D942D0D3070066D
:101B28000319A52D0330FB008A30FC005530FD0059
:101B3800FD0B9C2DFC0B9C2DFB0B9C2D000000002D
:101B48007F2D0530B0008A11FC258A157008AE007B
:101B58000030AE1BFF30AF00AE0CAE132E1BAE171D
:101B68000030AE1BFF30AF008A118A258A15700835
:101B7800AC000030AC1BFF30AD00AC0CAC132C1B20
:101B8800AC170030AC1BFF30AD00A830DD000E30C4
:101B9800DE002E08DF002F08E0002C08E1002D08E9
:101BA800E2008A1150268A153008CE000130CF0095
:101BB80030248A11FC258A157008F100F10CF11304
:101BC800711BF11771082E07B1002F080318013E89
:101BD800B2000030F11BFF30B2078A118A258A153E
:101BE8007008F100F10CF113711BF11771082C0743
:101BF800F0002D080318013EF1000030F11BFF3002
:101C0800F1077008B8007108B900B730DD000E3070
:101C1800DE003108DF003208E0007008E1007108DA
:101C2800E2000130E3000030E4008A1183268A15BF
:101C3800AD30DD000E30DE002E08DF002F08E0009A
:101C48002C08E1002D08E2008A1150268A15E030A0
:101C5800DD000730DE002E08DF002F08E0002C082A
:101C6800E1002D08E2008A1150268A15CE30DD00E9
:101C78000730DE000130DF000030E0000130E10015
:101C88000030E2008A1150268A1500307106031DC3
:101C98004F2E0D3070060319A22E3108F1003208BC
:101CA800F200F20CF10CF213721BF217803072067C
:101CB800F00080302F067002031D642E2E0871027A
:101CC800031C812E3808F1003908F200F20CF10CDF
:101CD800F213721BF21780307206F00080302D0666
:101CE8007002031D792E2C087102031C7E2E05300C
:101CF800CD00802E0730CD009B2E3808F100390822
:101D0800F200F20CF10CF213721BF217803072061B
:101D1800F00080302D067002031D942E2C087102ED
:101D2800031C992E0330CD009B2E0130CD003008C6
:0E1D3800CE004D08CF00302485233A2EA22E77
:100F9C006A346F3462346934733464346F346E344D
:060FAC0065343F340034FF
:0E0FB2004D346534743461346C346C34003466
:0C0FC000483469346E34793474340034E1
:0C0FCC00733474346134723474340034B3
:0C0FD8007A34653472346F3464340034B1
:0C0FE400433461346C3463343234003424
:0A0FF000433461346C346334003480
:0A1D4600483469346E3474340034FC
:0A1D5000483469346E3474340034F2
:0A1D5A00483469346E3474340034E8
:0A1D6400483469346E3474340034DE
:081D6E006D3461347834003457
:04400E00F22F000687
:00000001FF
