:02000000252AAF
:0E000600213083120313FD00FD0B07280800B4
:06001400000000000800DE
:10001A000F3083120313FC004730FD00FD0B132839
:0A002A00FC0B132800000000080082
:1000340083120313BB1B20288813212888173B1B1A
:100044002528081326280817BB1A2A2888122B28C3
:1000540088163B1A2F28081230280816311834281D
:1000640008153528081188150A208811BB193C2861
:1000740088133D2888173B1941280813422808177C
:10008400BB1846288812472888163B184B280812A4
:100094004C280816311850280815512808118815BD
:1000A4000A208811311C58280D20592803200800E3
:1000B40083120313FB01FA01F9018030F800F10CFB
:1000C400F00C031C6E287408F90775080318750FE3
:1000D400FA070318FB0A0310F01F76287408FA07BE
:1000E40075080318750FFB07FB0CFA0CF90CF80CD8
:1000F400031C61287B08F3007A08F2007908F100F8
:060104007808F00008007D
:10010A00831603131208013EF000F1010318F10AE5
:10011A0083123A08F400F5015A200630F2007008FA
:10012A00F4007108F50072080319A028F50CF40C04
:10013A00F513FF3E99280430F1007408F0007108A5
:10014A000319AB28F00D7010FF3EA528303070055A
:10015A00F3007408F0007508F100F10CF00CF113CB
:10016A00F10CF00CF113700895000F309705730825
:04017A0097040800DE
:10017E00831603131208013EF000F1010318F10A71
:10018E0083123A08F400F5015A200630F200700886
:10019E00F4007108F50072080319DA28F50CF40C56
:1001AE00F513FF3ED3280430F1007408F0007108F7
:1001BE000319E528F00D7010FF3EDF283030700572
:1001CE00F3007408F0007508F100F10CF00CF11357
:1001DE00F10CF00CF11370089B000F309D057308A5
:0401EE009D04080064
:1001F2008312031331103A08BB001A20311408008D
:100202001329803083120313B6002629C030B600AA
:1002120026299430B6002629D430B600262980300B
:10022200B6002629831203133608013A031902295C
:100232003608023A031907293608033A03190A292C
:100242003608043A03190D2910293703F00036083D
:10025200F0077008B6007008BB001A203110B9010F
:10026200390838078400000803193F29390838077C
:1002720084000008BA00F920B90A312931140800B3
:0E0282008312031330088A002F088200080040
:100290008316031398184E29000048298312360844
:0402A00099000800B9
:1002A40083160313871483121211F0309D0508007E
:1002B4008312031336082D06031968293608AD0086
:0E02C4003608BA0085203608BA00BF200800B0
:1002D2008316031388110811081288120813881351
:1002E20083128811081188130813881208120D202E
:1002F2000D200D208816081688150A2088110D2059
:1003020088150A2088110D2088150A2088110D20D1
:10031200081288150A2088110D2088150A208811D4
:100322008812881788150A2088110D20881308164C
:1003320088150A208811081288150A2088110D20B4
:1003420088150A208811081688150A2088110D20A0
:10035200081288150A2088118817081788160816A7
:0C03620088150A2088110D2031140800B5
:10036E0083160313071583121211F0309705080038
:10037E0069210C30BB001A200130BB001A2001305D
:0E038E00B6000130B7003308B80001210800A6
:0E039C0000308316031398180130F00008009B
:1003AA00831203131A08F100981CDD291812181673
:0603BA007108F0000800CC
:0E03C0000030831203138C1A0130F000080085
:1003CE00831603139816903083129800831687179E
:1003DE00071383128C1EF6291A08F000F029080064
:1003EE0083120313B501330884000008B4003408E7
:1003FE00003A03190C2A3408B6004821B50A35080C
:0C040E00330784000008B400FE29080039
:10041A0083120313B6015A21B721081088105221FA
:08042A0086100611AE01080066
:1004320041218A110A128000840AAF0A0319B00A04
:08044200F003031D192A080054
:10044A00453083120313A0007230A1007230A2005B
:10045A006F30A3007230A4002130A500A6015330EA
:10046A00A7007430A8006130A9007230AA00743065
:10047A00AB00AC017F30AD00AE01B20183160317A9
:10048A00880189013330031399001815E7210230D6
:10049A00FB000430FC00BA30FD00FD0B522AFC0BB5
:1004AA00522AFB0B522A00002730B300F7210A30E8
:1004BA00B60048210D30B6004821E0217008031922
:1004CA00792A3030B200D5217008B200CE217008E6
:1004DA000319742A83123208B6004821782A831233
:1004EA002030B300BF21622A0630FB001330FC0023
:1004FA00AD30FD00FD0B7F2AFC0B7F2AFB0B7F2A08
:0A050A00000000000D22622A892A79
:04400E00F22F000687
:00000001FF
