:040000008A15422CEF
:100006007B15FB1F0D280130F300F201F101F00111
:08001600FA0DF20CFF300800A6
:0E001E00F201F101F001F801F30100300800D9
:08002C00FA1FF2130030080076
:10003400FB14FB1F2428FF30F300F200F100F00052
:08004400FA0DF20CFF30080078
:10004C007C185C28FC182D287C197B282628A001FC
:10005C007208031D4D287108F2007008F100780831
:10006C00F000F801A0157208031D4D287108F2006C
:10007C007008F100F001A01120167208031D4D2824
:10008C007108F200F101A015720803196F282008FD
:10009C00F302031D031C73280310F21B5C28F80DDC
:1000AC00F00DF10DF20DF30B532873287B1B701C14
:1000BC007728F81F7728F00A0319F10A0319F20AB6
:1000CC00031D7728F20CF10CF00CF30A03197B28B2
:1000DC0077280130FC000F207E280230FC00032022
:1000EC007E280430FC0016207E280830FC001A20E4
:0400FC0000000800F8
:10010000A0017208031D95287108F2007008F10023
:10011000F001A0157208031D95287108F200F10185
:10012000A011201672080319A3282008F302031D4A
:10013000031CA7280310F21BAB28F00DF10DF20DE4
:10014000F30B9B28A7280130FC000F20AE280230BB
:0E015000FC000320AE280430FC00162008003E
:10015E0083120313FB01FA01F9018030F800F10C50
:10016E00F00C031CC3287408F90775080318750FE3
:10017E00FA070318FB0A0310F01FCB287408FA07BE
:10018E0075080318750FFB07FB0CFA0CF90CF80C2D
:10019E00031CB6287B08F3007A08F2007908F100F8
:0601AE007808F0000800D3
:1001B4008312031372087606A000F801F90173088C
:1001C4007702031CFD287708FD007308F7007D08FB
:1001D400F3007608FD007208F6007D08F200750849
:1001E400FD007108F5007D08F1007408FD00700839
:1001F400F4007D08F0007708031976297208FA00E4
:10020400F217F61777087302F7000319302908303C
:100214007702031C2629F7007408F9007508F40016
:100224007608F500F60108307702031C2629F7004A
:100234007408F9007508F400F50108307702031C0E
:1002440026297A08F2007629770803193029031041
:10025400F60CF50CF40CF90CF70B2929A01F3D2919
:10026400F909F409F509F609F90A0319F40A031955
:10027400F50A0319F60A7908F80774080318740FC5
:10028400F00775080318750FF10776080318760F41
:10029400F207A01B5629031C6629F20CF10CF00C82
:1002A400F80CF30F6629722903186A29F809F00972
:1002B400F109F209F80A0319F00A0319F10A0319FA
:1002C400F20A8030FA066E290130FC0026207829D3
:1002D4000230FC00262078290430FC008020782994
:1002E4000830FC001A2078290030FC0000000800C7
:1002F40083120313F801F9011030FC00710DF80D9D
:10030400F90D7408F8027508031C750FF902031837
:1003140092297408F80775080318750FF907031074
:0A032400F00DF10DFC0B802908001C
:10032E007B14FB1FA229F201FA1FFF30F200F1002D
:0A033E00F000FA0DF20CFF30080089
:10034800831603138710831212150C309D040800BE
:06035800FB15FF30080058
:0C035E00831203139B011D129D12080066
:10036A00831603131208013EF000F1010318F10A83
:10037A0083126E08F400F501AF200630F20070080F
:10038A00F4007108F50072080319D029F50CF40C71
:10039A00F513FF3EC9290430F1007408F000710812
:1003AA000319DB29F00D7010FF3ED5293030700596
:1003BA00F3007408F0007508F100F10CF00CF11369
:1003CA00F10CF00CF113700895000F3097057308C3
:0403DA00970408007C
:1003DE00831603130711831212150C3097040800AD
:0C03EE00831203139501171297120800E8
:1003FA00831603131208013EF000F1010318F10AF3
:10040A0083126E08F400F501AF200630F20070087E
:10041A00F4007108F50072080319182AF50CF40C97
:10042A00F513FF3E112A0430F1007408F000710838
:10043A000319232AF00D7010FF3E1D2A3030700573
:10044A00F3007408F0007508F100F10CF00CF113D8
:10045A00F10CF00CF11370089B000F309D05730826
:04046A009D040800E5
:10046E008312031369082B060319452A6908AB008A
:0E047E006908EE00B5216908EE00FD210800B6
:0E048C00831203132F088A002E088200080036
:08049A00A421861006150800DC
:1004A200831203137008F8007108F000F101F201E1
:1004B200F301FB01FC019630F300FA01F01F672AF9
:1004C200F809F009F80A0319F00AFA177008F1009E
:0C04D2007808F000F801F201802008001A
:1004DE0083120313EC0105306C0203187D2A6C089D
:1004EE006B07840020308000EC0A722A6C086B07C0
:1004FE0084008001EC036C086B07ED000A30F400F9
:10050E00F5016908F0006A08F1007A217808F00018
:10051E007908F1003030F0076D0884007008800013
:10052E000A30F400F5016908F0006A08F1007A213A
:10053E007008E9007108EA0000307106031DA92A4F
:10054E0000307006031DAC2AAE2AEC03822A080086
:0C055E00831203138030F606DA20080038
:10056A00831603139818BB2A0000B52A8312690858
:04057A0099000800DC
:10057E00831203132D08003A031DDD2A0130AD004E
:10058E00831603170910091186100611031308109C
:10059E008810831212149210F93083169200F721EC
:0E05AE0012149210F93083169200AF2108004B
:0805BC00EF210810881408006B
:1005C400831203137408003A031DFD2A7508003AC8
:1005D400031DFD2A7608003A031DFD2A7708003A18
:1005E400031DFD2AFF30F000FF30F1007F30F200E0
:1005F400FF30F300982B83120313770803198C2B15
:10060400730803198F2B720876068039FA00F217E3
:10061400F617A0017208F8007108FC007008FD00CC
:100624007408FD027508031C750FFC027608031C90
:10063400760FF802F801FC01FD01031C282B0310BE
:10064400F20CF10CF00CF80C0130A0007708F30266
:10065400031C322B7E302007F3070318922B372B11
:100664007E302007F307031C952B1830FA07FD0D85
:10067400FC0DF80DF00DF10DF20DA00D7408F00253
:100684007508031C750FF1027608031C760FF2023D
:10069400760DA004201C502B7D145B2B7408F007EE
:1006A40075080318750FF10776080318760AF20720
:1006B4007D10FA031F307A05031D392B7B1B7D1C2B
:1006C400822B0310F00DF10DF20DA00D7408F00251
:1006D4007508031C750FF1027608031C760FF202ED
:1006E400760D20040139FD070318FC0A0319F80AE2
:1006F400031D822BF80CFC0CFD0CF30A0319922B3E
:10070400FA1FF8137808F2007C08F1007D08F00065
:100714000030972B0130AC21972B02300F20972B00
:0E07240004301A20972B083003200000080034
:1007320083120313FB0173080319D62B7208FA0004
:10074200F2178E30F302F31FD92BF309F30A0830A4
:100752007302031CBC2BF300F10D7208F100F201CD
:1007620008307302031CBC2BF300F10DF101730876
:10077200031D0310C42B73080319C42B0310F20CBE
:10078200F10CF30BBF2B7B1B711CCE2B031CCE2B4E
:10079200F10A0319F20AF21BE52BFA1FE82BF20900
:1007A200F109F10A0319F20AE82BF201F101E82B2F
:1007B2007B14FB1FEB2BF201FA1FEB2BFF30F20035
:1007C200F100FA0DF20CEB2B0130FC00ED2B0030A6
:1007D200FC00ED2BFF30FC00FC080319F12B9721E4
:0A07E2007108F0007208F100080031
:0807EC00EF2108148810080039
:0807F400A4218614061108007F
:1007FC000030831203136902031C172C6908033C95
:10080C00031C172C6908F1000130F0007108031962
:10081C00132CF00D7010FF3E0D2C70088316850400
:10082C00392C83126908043A031D1F2C8316851674
:10083C00392C053083126902031C392C6908073CDA
:10084C00031C392C05306902F0007008F1000130EE
:10085C00F00071080319362CF00D7010FF3E302C8F
:10086C0070088316890483126908F1000130F000C6
:10087C0071080319452CF00D7010FF3E3F2C7008C9
:10088C00831603178804831203136908F000F00D14
:10089C007010F00D70107008C13E9F001030FD00FC
:1008AC00FD0B562C00009F149F1C5D2C5A2C1E080F
:1008BC00F200F301F20DF30D7210F20DF30D721044
:1008CC000630F10083161E08F00071080319722C13
:1008DC00F00CF013FF3E6C2C0030F1007208F007A6
:0A08EC0073080318013EF10708002D
:1008F60083120313E201600884000008E100610826
:10090600003A0319902C6108E900B522E20A620850
:0C091600600784000008E100822C08004B
:10092200831203136008AE006108AF0046228A11E9
:100932000A12F00070080319AF2C6008AE006108BB
:10094200AF0046228A110A12F00062088400700881
:100952008000E20AE00A0319E10A912C620884008D
:040962008001080008
:1009660083120313E501E6016008E7006108E80069
:1009760080306106F00080307002031DC42C003008
:1009860060020318D22C0130E5000030E600600852
:10099600003CE7006108031C013EE801E802670825
:1009A600E9006808EA006208EB006F220630E300FF
:1009B6000030E4006408003C031DE32C6308003C9F
:1009C6000318FE2C63086207F20001306302F00090
:1009D6000030031C013E6402F100700862078400C7
:1009E6000008F00072088400700880000130E302FD
:1009F600031CE403DD2C62088400203080006508B7
:100A0600660403191C2DE301E401630862078400F0
:100A16000008203A031D132DE30A0319E40A082DE2
:100A26000130E302031CE4036308620784002D30EF
:040A36008000080034
:100A3A00831203136108F000E10A700884000008B9
:100A4A000319282D1D2DE1036008840000080319ED
:100A5A00392D600884000008F000610884007008DD
:100A6A008000E10AE00A292D61088400800108005B
:0E0A7A00BF226008E9003722DE22FA230800BE
:100A880083160313071583121211F0309705080017
:100A9800003083120313E0000030E1004830E20028
:100AA8008530E300E401E5010230E900FE2383120A
:100AB80003137008E4007108E5008030F20080300C
:100AC80071067202031D6A2D70085A3C0318962D90
:100AD80005306407F00065080318013EF100512253
:100AE8007008F4007108F5007208F6007308F70042
:100AF8000030F0002030F1003630F2008A30F30088
:100B0800E2220030F4000030F5000030F6007F30BB
:100B1800F700AF227008E0007108E1007208E200F7
:100B28007308E3006008F0006108F1006208F20051
:080B38006308F3009923080093
:0E0B4000BF226008E9003722F6234D2208008C
:100B4E0083160313871483121211F0309D050800CB
:100B5E00003083120313D8000030D9004830DA0079
:100B6E008530DB00DC01DD010330E900FE2383125A
:100B7E0003137008DC007108DD008030F200803055
:100B8E0071067202031DCD2D70085A3C0318F92D03
:100B9E0005305C07F0005D080318013EF10051229C
:100BAE007008F4007108F5007208F6007308F7007B
:100BBE000030F0002030F1003630F2008A30F300C1
:100BCE00E2220030F4000030F5000030F6007F30F5
:100BDE00F700AF227008D8007108D9007208DA0049
:100BEE007308DB005808F0005908F1005A08F200AB
:080BFE005B08F30099230800D5
:100C0600013083120313E900FE23831203137008D5
:100C1600D8008030003AF200803070067202031865
:100C26001F2E80305806F0008030323A70020318CA
:0C0C36001F2E0130F000202EF0010800FD
:100C42004C257008D8004030E000A0254C257008E3
:100C5200D90058087006031D312E4030E0003D25B2
:100C620080305906F00080305806700203183A2E80
:100C7200452E80305806F000803059067002031865
:0A0C8200452E8030E0003D250800FB
:100C8C00831203135808E0005908E1003030E200E9
:100C9C0091245A08E0005B08E1002630E200B324FE
:100CAC002630E0003030E1001D255C08E0005D08D6
:100CBC00E1002630E200B3242630E0003030E100C1
:100CCC001D255E08E0005F08E1002630E200B32439
:100CDC002630E0003030E1001D253030E0007B2470
:020CEC000800FE
:100CEE008312031358085906031D7F2EF0018C2E14
:100CFE0080305906F00080305806700203188A2E94
:0C0D0E000130F0008C2EFF30F0000800D7
:100D1A0083120313E9013722442508108810A725F6
:080D2A0086100611AD0108005E
:100D3200831203131A08F100981CA12E1812181618
:060D42007108F00008003A
:0E0D48000030831203138C1A0130F0000800F3
:100D5600831203137008F100F0010830FC007108DB
:100D6600F40C0318BA2EFC0BB32EF1010034031059
:100D7600BF2EF40C0318F107F10CF00CFC0BBC2E83
:020D8600080063
:100D8800831203135108E0005208E1003030E200FA
:100D980091245308E0005408E1002630E200B3240F
:100DA8002630E0003030E1001D255508E0005608E7
:100DB800E1002630E200B3242630E0003030E100C4
:100DC8001D253030E0007B24A42670080319F62E78
:100DD80099267008D7007008E900B5225708F00076
:080DE800F101F72EE82E0800CE
:100DF0008312031348084702F1007108C9008030CC
:100E0000043AF00080307106700203180A2F490876
:100E1000083CC90080304906F0008030003A70027A
:100E2000031C2E2FFF30E0003D258030003AF000FB
:100E300080304906700203182D2F0830FB004F3018
:100E4000FC001930FD00FD0B232FFC0B232FFB0BA7
:100E5000232F00000000C903152F492FFF30E000A9
:100E6000A02580304906F0008030003A7002031857
:100E7000492F0830FB004F30FC001930FD00FD0BFE
:100E80003F2FFC0B3F2FFB0B3F2F00000000C90A38
:040E9000312F0800F6
:100E940083160313981690308312980083168717CD
:100EA400071383128C1E592F1A08F000532F0800C1
:100EB40046228A110A128000840AAE0A0319AF0A74
:080EC400F003031D5A2F080082
:1010000083120313D6012108D8005108D9008A1190
:1010100077268A157008D4002308D8005208D90012
:101020008A1177268A155408FF3A031D1A28550895
:10103000033ED3005408003A031D34282828013009
:10104000D30034280930D30034280530D3003428A5
:101050005508FF3A03191F285508003A031922289A
:101060005508013A031925285408013A031D3B2865
:101070005508073CD300A92A8A114C258A158030CF
:10108000023AF100803070067102031869288A1153
:10109000BF228A15FF30E9008A1137228A158A118A
:1010A000DE228A158A114D228A150430FB009B30FE
:1010B000FC000F30FD00FD0B5B28FC0B5B28FB0BDD
:1010C0005B288A118D268A158A1121268A150130FE
:1010D000D600CD2A8A114C258A158030023AF100BB
:1010E0008030700671020318C6288A11AF258A1550
:1010F0008030023AF1008030700671020318C62871
:10110000FF30E0008A113D258A150330FB00703066
:10111000FC005C30FD00FD0B8B28FC0B8B28FB0BCF
:101120008B2800008A11BF228A15FF30E9008A113E
:1011300037228A158A11DE228A158A114D228A15D4
:101140000430FB009B30FC000F30FD00FD0BA62897
:10115000FC0BA628FB0BA6288A118D268A15FF30CA
:10116000E0008A11A0258A150330FB007030FC00D6
:101170005C30FD00FD0BBA28FC0BBA28FB0BBA282B
:1011800000008A1121268A150130D600CD2A8A1145
:10119000AF258A158030023AF10080307006710266
:1011A000031835298A11BF228A15FF30E9008A11F8
:1011B00037228A158A11F6238A158A11FA238A158D
:1011C0000430FB009B30FC000F30FD00FD0BE628D7
:1011D000FC0BE628FB0BE6288A118D268A15FF30CA
:1011E000E0008A113D258A150330FB007030FC00B9
:1011F0005C30FD00FD0BFA28FC0BFA28FB0BFA28EB
:1012000000008A11BF228A15FF30E9008A113722B7
:101210008A158A11DE228A158A114D228A15043018
:10122000FB009B30FC000F30FD00FD0B1529FC0B73
:101230001529FB0B15298A118D268A15FF30E00030
:101240008A11A0258A150330FB007030FC005C3049
:10125000FD00FD0B2929FC0B2929FB0B2929000086
:101260008A1121268A150130D600CD2A8A11AF2590
:101270008A158030023AF10080307006710203183E
:101280008729FF30E0008A11A0258A150330FB0072
:101290007030FC005C30FD00FD0B4C29FC0B4C2930
:1012A000FB0B4C2900008A11BF228A15FF30E90090
:1012B0008A1137228A158A11F6238A158A11FA2390
:1012C0008A150430FB009B30FC000F30FD00FD0B45
:1012D0006729FC0B6729FB0B67298A118D268A1564
:1012E000FF30E0008A113D258A150330FB00703085
:1012F000FC005C30FD00FD0B7B29FC0B7B29FB0B0C
:101300007B2900008A1121268A150130D600CD2ABA
:101310008A11BF228A15FF30E9008A1137228A1507
:101320008A11F6238A158A11FA238A150430FB00E4
:101330009B30FC000F30FD00FD0B9C29FC0B9C2911
:10134000FB0B9C298A118D268A158A1121268A1564
:101350000130D600CD2AFF30E0008A113D258A15E4
:101360000330FB007030FC005C30FD00FD0BB62943
:10137000FC0BB629FB0BB62900008A11BF228A1587
:10138000FF30E9008A1137228A158A11F6238A155F
:101390008A11FA238A150430FB009B30FC000F30C1
:1013A000FD00FD0BD129FC0BD129FB0BD1298A11A2
:1013B0008D268A15FF30E0008A11A0258A1503309A
:1013C000FB007030FC005C30FD00FD0BE529FC0BE0
:1013D000E529FB0BE52900008A1121268A15013039
:1013E000D600CD2A8A11BF228A15FF30E9008A1162
:1013F00037228A158A11F6238A158A11FA238A154B
:101400000430FB009B30FC000F30FD00FD0B062A72
:10141000FC0B062AFB0B062A8A118D268A15FF3043
:10142000E0008A11A0258A150330FB007030FC0013
:101430005C30FD00FD0B1A2AFC0B1A2AFB0B1A2A42
:1014400000008A11BF228A15FF30E9008A11372275
:101450008A158A11DE228A158A114D228A150430D6
:10146000FB009B30FC000F30FD00FD0B352AFC0B10
:10147000352AFB0B352A8A118D268A15FF30E000AC
:101480008A113D258A150330FB007030FC005C306A
:10149000FD00FD0B492AFC0B492AFB0B492A0000E1
:1014A0008A1121268A150130D600CD2A8A114C25B1
:1014B0008A158030023AF1008030700671020318FC
:1014C000A72AFF30E0008A11A0258A150330FB000F
:1014D0007030FC005C30FD00FD0B6C2AFC0B6C2AAC
:1014E000FB0B6C2A00008A11BF228A15FF30E9002D
:1014F0008A1137228A158A11DE228A158A114D2215
:101500008A150430FB009B30FC000F30FD00FD0B02
:10151000872AFC0B872AFB0B872A8A118D268A15BE
:10152000FF30E0008A113D258A150330FB00703042
:10153000FC005C30FD00FD0B9B2AFC0B9B2AFB0B87
:101540009B2A00008A1121268A150130D600CD2A57
:10155000CD2A5308013A03193C285308023A0319CB
:101560006A285308033A0319C7285308043A031991
:1015700036295308053A031988295308063A0319EE
:10158000AB295308073A0319F2295308083A0319FB
:10159000562A5308093A0319A82A8A1103268A15DC
:1015A00070080319ED2A56080319ED2A7C30D8007B
:1015B0000730D9005108DA000030DA1BFF30DB00B9
:1015C0005208DC000030DC1BFF30DD000130DE00A3
:1015D0000030DF008A1146268A155608F000080000
:1015E000831203132508833A031DF72A412C713017
:1015F000D1000730D2000130D3000030D4000130D8
:10160000D5000030D6008A11C4268A150030710634
:10161000031D0C2B0D307006031D0F2B412C983031
:10162000D1000730D2002108D3002208D4002308BB
:10163000D5002408D6008A11C4268A157008CD006A
:101640007108CE009330D8000730D9002108DA00A5
:101650002208DB002308DC002408DD007008DE001F
:101660007108DF008A1146268A15CD0A0319CE0AB1
:10167000A230D1000730D2002108D3002208D400C4
:101680002308013ED50000300318013E2407D60090
:101690008A11C4268A157008CF007108D0009D30C9
:1016A000D1000730D2002108D3002208D40023083B
:1016B000013ED50000300318013E2407D6008A11F0
:1016C000C4268A1570084F07CB0050080318013E46
:1016D0007107CC00FF30C700FF30C8008030F00039
:1016E000803048067002031D772B4708013C031C1D
:1016F000F32BFF30C900FF30CA008030F00080308B
:101700004A067002031D862B4908013C031CEF2B7F
:1017100000304806031D8E2B00304706031D992B11
:1017200000304A06031D962B00304906031D992BF5
:10173000EB2B8E30D1000730D20047082107D300B1
:1017400022080318013E4807D40049082307D500A2
:1017500024080318013E4A07D6008A11C4268A15B8
:101760007008CF007108D0008930D1000730D20056
:1017700047082107D30022080318013E4807D40078
:1017800049082307D50024080318013E4A07D6005C
:101790008A11C4268A1570084F07F20050080318F2
:1017A000013E7107F3007208CD007308CE0080304F
:1017B0007306F00080304C067002031DE12B4B08CD
:1017C00072020318EB2B4D08CB004E08CC004708E3
:1017D000C0004908C100C90A0319CA0A7D2BC70AFB
:1017E0000319C80A6E2B172C272C4108F000FF3074
:1017F000F4008A11AB268A157008C100272C400816
:10180000CD000030CD1BFF30CE004108C0004D0898
:10181000003CC100272C4008CD000030CD1BFF301C
:10182000CE004108003CC0004D08C100272C2C0808
:10183000013A0319F42B2C08053A0319F52B2C084F
:10184000073A0319FF2B2C08033A03190B2C400805
:101850002107D10041082307D20000207008031996
:10186000412C4008A1070318A20A0030C01BFF301A
:10187000A2074108A3070318A40A0030C11BFF30C8
:04188000A4070800B1
:1018840083120313A101A201A301A401A501A601CE
:10189400A701A801A901AA017F30AB000130AC0067
:1018A400AD0181308316990018158A114A278A15CB
:1018B4008330D1000730D2000130D3000030D4008F
:1018C4000130D5000030D6008A11C4268A150030B4
:1018D4007106031D6F2C0D3070060319802C033024
:1018E400FB008A30FC005530FD00FD0B772CFC0B0F
:1018F400772CFB0B772C000000005A2C0130AC0035
:101904008A11AF258A157008F100F10CF113711BCF
:10191400F11771081E3CA100A201031CA2030130AF
:10192400F11F0030A2070130A102031CA2038A1197
:101934004C258A157008F100F10CF113711BF11795
:1019440071081E3CA300A401031CA4030130F11F71
:101954000030A4070130A302031CA4036630D100A5
:101964000730D2000130D3000030D4000130D5005C
:101974000030D6008A11C4268A1500307106031D72
:10198400C52C0D30700603199B2D8A11AF258A15BD
:101994007008C3000030C31BFF30C4008A114C25FB
:1019A4008A157008C5000030C51BFF30C600003022
:1019B4004406031DDF2C643043060319EA2C00306F
:1019C4004606031DE72C643045060319EA2C992DBD
:1019D4008030F000803022067002031DF32C2108B1
:1019E400143C031C022D8030F00080302406700269
:1019F400031DFE2C23080A3C031C022D0530C200E3
:101A04008030F000803022067002031D0B2D210867
:101A1400143C03181A2D8030F00080302406700224
:101A2400031D162D23080A3C031C1A2D0330C20083
:101A34008030F000803024067002031D232D23081B
:101A4400143C031C3D2D8030F000803024067002CD
:101A5400031D2E2D23080A3C03183D2D8030F00071
:101A6400803022067002031D392D2108143C031C0A
:101A74003D2D0730C2008030F00080302406700213
:101A8400031D462D2308143C031C602D8030F000F8
:101A9400803024067002031D512D23080A3C0318CC
:101AA400602D8030F000803022067002031D5C2D12
:101AB4002108143C0318602D0330C2008030F0006C
:101AC400803024067002031D692D2308143C03187A
:101AD400782D8030F000803022067002031D742DB2
:101AE4002108143C031C782D0730C2008030F0001C
:101AF400803024067002031D812D2308143C031832
:101B0400902D8030F000803022067002031D8C2D51
:101B14002108143C0318902D0130C2002C08C70082
:101B24004208C8008A11F8268A154208AC00F0223F
:041B3400B02C9B2D09
:100ECC006A346F3462346934733464346F346E341E
:060EDC0065343F340034D0
:100EE2006A346F3462346934733464346F346E3408
:060EF20065343F340034BA
:0E0EF8004D346534743461346C346C34003421
:0C0F060073347434613472347434003479
:0A0F1200683465347634723400341C
:0A0F1C00483469346E347434003434
:0A0F2600483469346E34743400342A
:0A0F3000483469346E347434003420
:0A0F3A0068346534763472340034F4
:0A0F4400483469346E34743400340C
:04400E00F22F000687
:00000001FF
