:02000000D72EF9
:1000060083120313FB01FA01F9018030F800F10CA9
:10001600F00C031C17287408F90775080318750FE8
:10002600FA070318FB0A0310F01F1F287408FA07C3
:1000360075080318750FFB07FB0CFA0CF90CF80C86
:10004600031C0A287B08F3007A08F2007908F100FD
:060056007808F00008002C
:0E005C00F201F101F001F801F301003008009B
:10006A007B15FB1F3F280130F300F201F101F0017B
:08007A00FA0DF20CFF30080042
:08008200FA1FF2130030080020
:10008A00FB14FB1F4F28FF30F300F200F100F000D1
:08009A00FA0DF20CFF30080022
:0C00A200831203139B011D129D12080025
:1000AE00831603130711831212150C3097040800E0
:0C00BE008312031395011712971208001B
:1000CA00A0017208031D7A287108F2007008F10075
:1000DA00F001A0157208031D7A287108F200F101D7
:1000EA00A01120167208031988282008F302031D9C
:1000FA00031C8C280310F21B9028F00DF10DF20D51
:10010A00F30B80288C280130FC002E209328023023
:0E011A00FC00352093280430FC004120080032
:10012800831603138710831212150C309D040800E0
:100138007C18D228FC18A3287C19F1289C28A00137
:100148007208031DC3287108F2007008F1007808CE
:10015800F000F801A0157208031DC3287108F20009
:100168007008F100F001A01120167208031DC328C1
:100178007108F200F101A01572080319E52820089A
:10018800F302031D031CE9280310F21BD228F80D03
:10019800F00DF10DF20DF30BC928E9287B1B701C3B
:1001A800ED28F81FED28F00A0319F10A0319F20ADD
:1001B800031DED28F20CF10CF00CF30A0319F128D9
:1001C800ED280130FC002E20F4280230FC003520F8
:1001D800F4280430FC004120F4280830FC004520B5
:0401E800000008000B
:1001EC00831603131208013EF000F1010318F10A03
:1001FC003308F400F50103200630F2007008F40017
:10020C007108F500720803191029F50CF40CF5139C
:10021C00FF3E09290430F1007408F000710803193D
:10022C001B29F00D7010FF3E152930307005F300BE
:10023C007408F0007508F100F10CF00CF113F10CDE
:10024C00F00CF11370089B000F309D0573089D0492
:02025C00080098
:10025E00831603131208013EF000F1010318F10A90
:10026E003308F400F50103200630F2007008F400A4
:10027E007108F500720803194929F50CF40CF513F1
:10028E00FF3E42290430F1007408F0007108031992
:10029E005429F00D7010FF3E4E2930307005F300DA
:1002AE007408F0007508F100F10CF00CF113F10C6C
:1002BE00F00CF113700895000F3097057308970432
:0202CE00080026
:0602D000FB15FF300800E1
:1002D6008312031372087606A000F801F901730869
:1002E6007702031C8E297708FD007308F7007D0846
:1002F600F3007608FD007208F6007D08F200750826
:10030600FD007108F5007D08F1007408FD00700815
:10031600F4007D08F00077080319072A7208FA002E
:10032600F217F61777087302F7000319C129083088
:100336007702031CB729F7007408F9007508F40062
:100346007608F500F60108307702031CB729F70096
:100356007408F9007508F400F50108307702031CEB
:10036600B7297A08F200072A77080319C12903106A
:10037600F60CF50CF40CF90CF70BBA29A01FCE29D4
:10038600F909F409F509F609F90A0319F40A031932
:10039600F50A0319F60A7908F80774080318740FA2
:1003A600F00775080318750FF10776080318760F1E
:1003B600F207A01BE729031CF729F20CF10CF00C3D
:1003C600F80CF30FF729032A0318FB29F809F0099B
:1003D600F109F209F80A0319F00A0319F10A0319D7
:1003E600F20A8030FA06FF290130FC009C20092A17
:1003F6000230FC009C20092A0430FC006520092AF2
:100406000830FC004520092A0030FC0000000800E6
:08041600942086100615080071
:10041E00831603133208831265060319222A8316E4
:10042E0032088312E50083163208B3002F2183169B
:08043E003208B300F6200800AB
:10044600831203136708003A031D412A0130E700AF
:1004560083160317091009118610061103130810D5
:1004660088108312121492106330831692005F2054
:0E047600121492106330831692005120080079
:100484007B14FB1F4D2AF201FA1FFF30F200F1002A
:0A049400F000FA0DF20CFF30080032
:08049E00572008148810080023
:0804A6009420861406110800E1
:0804AE00572008108814080013
:1004B600831203137408003A031D762A7508003A5E
:1004C600031D762A7608003A031D762A7708003A35
:1004D600031D762AFF30F000FF30F1007F30F20076
:1004E600FF30F300112B8312031377080319052B32
:1004F60073080319082B720876068039FA00F2177A
:10050600F617A0017208F8007108FC007008FD00DB
:100516007408FD027508031C750FFC027608031C9F
:10052600760FF802F801FC01FD01031CA12A031055
:10053600F20CF10CF00CF80C0130A0007708F30275
:10054600031CAB2A7E302007F30703180B2BB02AB7
:100556007E302007F307031C0E2B1830FA07FD0D1B
:10056600FC0DF80DF00DF10DF20DA00D7408F00262
:100576007508031C750FF1027608031C760FF2024C
:10058600760DA004201CC92A7D14D42A7408F0070D
:1005960075080318750FF10776080318760AF2072F
:1005A6007D10FA031F307A05031DB22A7B1B7D1CC2
:1005B600FB2A0310F00DF10DF20DA00D7408F002E8
:1005C6007508031C750FF1027608031C760FF202FC
:1005D600760D20040139FD070318FC0A0319F80AF1
:1005E600031DFB2AF80CFC0CFD0CF30A03190B2B5C
:1005F600FA1FF8137808F2007C08F1007D08F00075
:100606000030102B01306821102B02302E20102BC9
:0E06160004304520102B08303520000008006D
:1006240083160313071583121211F030970508007F
:10063400232283163108B2000F224F220B22080016
:10064400831203137008F8007108F000F101F2013D
:10065400F301FB01FC019630F300FA01F01F382B83
:10066400F809F009F80A0319F00AFA177008F100FA
:0C0674007808F000F801F2016520080091
:100680000030831603133102031C582B3108033C3E
:10069000031C582B3108F1000130F00071080319D8
:1006A000552BF00D7010FF3E4F2B70088504762BF4
:1006B0003108043A031D5E2B8516762B0530310276
:1006C000031C762B3108073C031C762B05303102C6
:1006D000F0007008F1000130F00071080319742B6C
:1006E000F00D7010FF3E6E2B700889043108F10088
:1006F0000130F00071080319812BF00D7010FF3EDE
:100700007B2B70080317880403133108F000F00DE9
:100710007010F00D70107008C13E83129F000630FB
:10072000FD00FD0B912B00009F149F1C982B952B17
:100730001E08F200F301F20DF30D7210F20DF30D2D
:1007400072100630F10083161E08F00071080319BC
:10075000AD2BF00CF013FF3EA72B0030F100720818
:0C076000F00773080318013EF1070800C1
:10076C00232283163108B2000F225722532208008D
:10077C00831203137008F100F0010830FC007108BB
:10078C00F40C0318CD2BFC0BC62BF1010034031019
:10079C00D22BF40C0318F107F10CF00CFC0BCF2B43
:0207AC00080043
:1007AE0083120313FB0173080319142C7208FA0049
:1007BE00F2178E30F302F31F172CF309F30A0830E9
:1007CE007302031CFA2BF300F10D7208F100F20113
:1007DE0008307302031CFA2BF300F10DF1017308BC
:1007EE00031D0310022C73080319022C0310F20CC4
:1007FE00F10CF30BFD2B7B1B711C0C2C031C0C2C16
:10080E00F10A0319F20AF21B232CFA1F262CF20905
:10081E00F109F10A0319F20A262CF201F101262C34
:10082E007B14FB1F292CF201FA1F292CFF30F2003A
:10083E00F100FA0DF20C292C0130FC002B2C0030AB
:10084E00FC002B2CFF30FC00FC0803192F2C42223D
:0A085E007108F0007208F1000800B4
:1008680083160313871483121211F0309D050800B4
:0C087800831203138030F6066B21080089
:1008840083160313B2010F22122308108810342494
:0808940086100611E7010800BF
:10089C00003083160313AB000030AC004830AD00C1
:1008AC008530AE00AF01B0010230B100402383129D
:1008BC00031370088316AF007108B0008030F2008B
:1008CC00803071067202031D6D2C70085A3C03189F
:1008DC009A2C05302F07F00030080318013EF10068
:1008EC0022237008F4007108F5007208F6007308F2
:1008FC00F7000030F0002030F1003630F2008A3082
:10090C00F3005B220030F4000030F5000030F600FC
:10091C007F30F7003C2470088316AB007108AC00E4
:10092C007208AD007308AE002B08F0002C08F10023
:0C093C002D08F2002E08F300D72308005D
:10094800013083160313B100402383120313700888
:100958008316AB008030003AF200803070067202D5
:100968000318C12C80302B06F0008030323A700218
:0E0978000318C12C0130F000C22CF001080061
:10098600831603132C082B02F1007108AD0080308A
:10099600043AF0008030710670020318D52C2D0839
:1009A600083CAD0080302D06F0008030003A700221
:1009B600031CE72C2D08F0002D30F400BE23700830
:1009C6008316B100B623F22C83162D08003CF000E6
:1009D6002D30F400BE2370088316B1001A230800D8
:1009E600831603132B082C06031DFB2CF001082D80
:1009F60080302C06F00080302B0670020318062D7E
:0C0A06000130F000082DFF30F000080067
:100A12008312031366088316AB002408AC00F32488
:100A22007008A700831222088316AB002508AC00C9
:100A3200F3242708FF3A031D212D2808033EA600B0
:100A42002708003A031D3D2D312D0130A6003D2D12
:100A5200831221088316A6003D2D0530A6003D2DE8
:100A62002808FF3A0319262D2808003A0319292DD0
:100A72002808013A03192E2D2708013A031D442D97
:100A82002808073CA600831221088316AB0026081B
:100A9200AC00C3244E247008643A031D682D23223F
:100AA200FF308316B2000F2257220B220B30FB00BD
:100AB2002630FC005D30FD00FD0B5D2DFC0B5D2D35
:100AC200FB0B5D2D000000000130F000D32D4E2401
:100AD20070088316AA002322FF308316B2000F2269
:100AE20057220B228316A90105302A02F100F201D6
:100AF200031CF2030030AA1BFF30F2078030A91B4F
:100B02007F30F000803072067002031D8A2D71085A
:100B1200290203189C2D0630FB001330FC00AD3077
:100B2200FD00FD0B922DFC0B922DFB0B922D000074
:100B32000000A90A752D4224A42470080319A22DCD
:100B4200A22D2322FF308316B2000F224F225322FE
:100B52008316A90105302A02F100F201031CF203F7
:100B62000030AA1BFF30F2078030A91B7F30F00053
:100B7200803072067002031DC02D7108290203180D
:100B8200D22D0630FB001330FC00AD30FD00FD0B12
:100B9200C82DFC0BC82DFB0BC82D00000000A90AB4
:060BA200AB2DF00108007C
:100BA800033083120313F20083162408F00025088B
:100BB800F10072080319E52DF00DF10D7010FF3EDC
:100BC800DE2D2430F0072608700784000008013E57
:100BD800F000F1010318F10A0030801BFF30F10723
:020BE800080003
:0E0BEA008312031369088A006808820008005D
:100BF8008312031323086406031D032ECA2E033031
:100C0800F1006608F000710803190E2EF00D70103F
:100C1800FF3E082E2430F0072208700784000008E1
:100C2800003A031D2F2E0330F1006608F00071080A
:100C38000319222EF00D7010FF3E1C2E2430F007F1
:100C480022087007F10071088400000AF00071089A
:100C580084007008800066088316A4000030A41B76
:100C6800FF30A50083122208013E8316A600A701C3
:100C78000318A70A00308312A21BFF308316A707A8
:100C8800D4257008A0007108A100FF308312EA0083
:100C9800FF30EB008030F00080306B067002031DDF
:100CA800572E6A08013C031CB72EFF30EC00FF30BA
:100CB800ED008030F00080306D067002031D662E56
:100CC8006C08013C031CB32E00306B06031D6E2E0E
:100CD80000306A06031D792E00306D06031D762E3E
:100CE80000306C06031D792EAE2E6A08660783163F
:100CF800A40000308312E61BFF300318013E6B0787
:100D08008316A50083126C0822078316A6000030FC
:100D18008312A21BFF300318013E6D078316A7003C
:100D2800D4257008A2007108A30080307106F20073
:100D3800803021067202031DA32E200870020318BA
:100D4800AE2E2208A0002308A10083126A08EE0034
:100D58006C08EF008312EC0A0319ED0A5D2EEA0A0B
:100D68000319EB0A4E2E6E0866078316A400831239
:100D78006F0822078316A50009258312031370083C
:0E0D88000319CA2E6E08E6076F08A2070800BE
:100D9600F5258A110A128000840AE80A0319E90A6D
:080DA600F003031DCB2E080031
:060DAE002627FC25D92ECA
:100E4C0021308400473083120313F000DF30E800B8
:080E5C000630E900CB26080076
:020DBE000134FE
:020DC0000034FD
:020DC2000034FB
:100DC400003400340034003400340034003400347F
:100DD400003400340034003400340034003400346F
:100DE400003400340034003400340034003400345F
:100DF400003400340034003400340034003400344F
:100E0400003400340034003400340034003400343E
:100E1400003400340034003400340034003400342E
:100E2400003400340034003400340034003400341E
:100E3400003400340034003400340034003400340E
:020E44003F3439
:020E46007F34F7
:020E4800003474
:020E4A00003472
:04400E00F22F000687
:00000001FF
